{
  "_format": "hh-sol-artifact-1",
  "contractName": "EscapeVerifier",
  "sourceName": "src/core/EscapeVerifier.sol",
  "abi": [
    {
      "inputs": [
        {
          "internalType": "address",
          "name": "target",
          "type": "address"
        }
      ],
      "name": "AddressEmptyCode",
      "type": "error"
    },
    {
      "inputs": [
        {
          "internalType": "address",
          "name": "implementation",
          "type": "address"
        }
      ],
      "name": "ERC1967InvalidImplementation",
      "type": "error"
    },
    {
      "inputs": [],
      "name": "ERC1967NonPayable",
      "type": "error"
    },
    {
      "inputs": [],
      "name": "FailedInnerCall",
      "type": "error"
    },
    {
      "inputs": [],
      "name": "InvalidInitialization",
      "type": "error"
    },
    {
      "inputs": [],
      "name": "NotInitializing",
      "type": "error"
    },
    {
      "inputs": [
        {
          "internalType": "address",
          "name": "owner",
          "type": "address"
        }
      ],
      "name": "OwnableInvalidOwner",
      "type": "error"
    },
    {
      "inputs": [
        {
          "internalType": "address",
          "name": "account",
          "type": "address"
        }
      ],
      "name": "OwnableUnauthorizedAccount",
      "type": "error"
    },
    {
      "inputs": [],
      "name": "ReentrancyGuardReentrantCall",
      "type": "error"
    },
    {
      "inputs": [],
      "name": "UUPSUnauthorizedCallContext",
      "type": "error"
    },
    {
      "inputs": [
        {
          "internalType": "bytes32",
          "name": "slot",
          "type": "bytes32"
        }
      ],
      "name": "UUPSUnsupportedProxiableUUID",
      "type": "error"
    },
    {
      "anonymous": false,
      "inputs": [
        {
          "indexed": false,
          "internalType": "uint32",
          "name": "escapeId",
          "type": "uint32"
        },
        {
          "indexed": false,
          "internalType": "uint32",
          "name": "timestamp",
          "type": "uint32"
        },
        {
          "indexed": false,
          "internalType": "uint32",
          "name": "tokenId",
          "type": "uint32"
        },
        {
          "indexed": false,
          "internalType": "uint64",
          "name": "amount",
          "type": "uint64"
        },
        {
          "indexed": false,
          "internalType": "address",
          "name": "recipient",
          "type": "address"
        }
      ],
      "name": "EscapeWithdrawalEvent",
      "type": "event"
    },
    {
      "anonymous": false,
      "inputs": [
        {
          "indexed": false,
          "internalType": "uint64",
          "name": "version",
          "type": "uint64"
        }
      ],
      "name": "Initialized",
      "type": "event"
    },
    {
      "anonymous": false,
      "inputs": [
        {
          "indexed": true,
          "internalType": "uint32",
          "name": "escapeId",
          "type": "uint32"
        },
        {
          "indexed": false,
          "internalType": "uint32",
          "name": "timestamp",
          "type": "uint32"
        },
        {
          "components": [
            {
              "internalType": "uint64",
              "name": "index",
              "type": "uint64"
            },
            {
              "internalType": "uint256",
              "name": "addressX",
              "type": "uint256"
            },
            {
              "internalType": "uint256",
              "name": "addressY",
              "type": "uint256"
            },
            {
              "internalType": "uint32",
              "name": "token",
              "type": "uint32"
            },
            {
              "internalType": "uint64",
              "name": "amount",
              "type": "uint64"
            },
            {
              "internalType": "uint256",
              "name": "blinding",
              "type": "uint256"
            }
          ],
          "indexed": false,
          "internalType": "struct Note[]",
          "name": "escape_notes",
          "type": "tuple[]"
        },
        {
          "indexed": false,
          "internalType": "uint256[2]",
          "name": "signature",
          "type": "uint256[2]"
        }
      ],
      "name": "NoteEscapeEvent",
      "type": "event"
    },
    {
      "anonymous": false,
      "inputs": [
        {
          "indexed": false,
          "internalType": "uint32",
          "name": "escapeId",
          "type": "uint32"
        },
        {
          "indexed": false,
          "internalType": "uint32",
          "name": "timestamp",
          "type": "uint32"
        },
        {
          "components": [
            {
              "internalType": "uint64",
              "name": "tab_idx",
              "type": "uint64"
            },
            {
              "internalType": "uint32",
              "name": "base_token",
              "type": "uint32"
            },
            {
              "internalType": "uint32",
              "name": "quote_token",
              "type": "uint32"
            },
            {
              "internalType": "uint256",
              "name": "base_blinding",
              "type": "uint256"
            },
            {
              "internalType": "uint256",
              "name": "quote_blinding",
              "type": "uint256"
            },
            {
              "internalType": "uint256",
              "name": "pub_key",
              "type": "uint256"
            },
            {
              "internalType": "uint64",
              "name": "base_amount",
              "type": "uint64"
            },
            {
              "internalType": "uint64",
              "name": "quote_amount",
              "type": "uint64"
            }
          ],
          "indexed": false,
          "internalType": "struct OrderTab",
          "name": "orderTab",
          "type": "tuple"
        },
        {
          "indexed": false,
          "internalType": "uint256[2]",
          "name": "signature",
          "type": "uint256[2]"
        }
      ],
      "name": "OrderTabEscapeEvent",
      "type": "event"
    },
    {
      "anonymous": false,
      "inputs": [
        {
          "indexed": true,
          "internalType": "address",
          "name": "previousOwner",
          "type": "address"
        },
        {
          "indexed": true,
          "internalType": "address",
          "name": "newOwner",
          "type": "address"
        }
      ],
      "name": "OwnershipTransferred",
      "type": "event"
    },
    {
      "anonymous": false,
      "inputs": [
        {
          "indexed": false,
          "internalType": "uint32",
          "name": "escapeId",
          "type": "uint32"
        },
        {
          "indexed": false,
          "internalType": "uint64",
          "name": "closePrice",
          "type": "uint64"
        },
        {
          "components": [
            {
              "internalType": "uint64",
              "name": "index",
              "type": "uint64"
            },
            {
              "internalType": "uint32",
              "name": "synthetic_token",
              "type": "uint32"
            },
            {
              "internalType": "uint256",
              "name": "position_address",
              "type": "uint256"
            },
            {
              "internalType": "bool",
              "name": "allow_partial_liquidations",
              "type": "bool"
            },
            {
              "internalType": "uint32",
              "name": "vlp_token",
              "type": "uint32"
            },
            {
              "internalType": "uint64",
              "name": "max_vlp_supply",
              "type": "uint64"
            },
            {
              "internalType": "bool",
              "name": "order_side",
              "type": "bool"
            },
            {
              "internalType": "uint64",
              "name": "position_size",
              "type": "uint64"
            },
            {
              "internalType": "uint64",
              "name": "margin",
              "type": "uint64"
            },
            {
              "internalType": "uint64",
              "name": "entry_price",
              "type": "uint64"
            },
            {
              "internalType": "uint64",
              "name": "liquidation_price",
              "type": "uint64"
            },
            {
              "internalType": "uint64",
              "name": "bankruptcy_price",
              "type": "uint64"
            },
            {
              "internalType": "uint32",
              "name": "last_funding_idx",
              "type": "uint32"
            },
            {
              "internalType": "uint64",
              "name": "vlp_supply",
              "type": "uint64"
            }
          ],
          "indexed": false,
          "internalType": "struct Position",
          "name": "position_a",
          "type": "tuple"
        },
        {
          "components": [
            {
              "internalType": "uint64",
              "name": "initial_margin",
              "type": "uint64"
            },
            {
              "internalType": "uint32",
              "name": "collateral_token",
              "type": "uint32"
            },
            {
              "components": [
                {
                  "internalType": "uint64",
                  "name": "index",
                  "type": "uint64"
                },
                {
                  "internalType": "uint256",
                  "name": "addressX",
                  "type": "uint256"
                },
                {
                  "internalType": "uint256",
                  "name": "addressY",
                  "type": "uint256"
                },
                {
                  "internalType": "uint32",
                  "name": "token",
                  "type": "uint32"
                },
                {
                  "internalType": "uint64",
                  "name": "amount",
                  "type": "uint64"
                },
                {
                  "internalType": "uint256",
                  "name": "blinding",
                  "type": "uint256"
                }
              ],
              "internalType": "struct Note[]",
              "name": "notes_in",
              "type": "tuple[]"
            },
            {
              "components": [
                {
                  "internalType": "uint64",
                  "name": "index",
                  "type": "uint64"
                },
                {
                  "internalType": "uint256",
                  "name": "addressX",
                  "type": "uint256"
                },
                {
                  "internalType": "uint256",
                  "name": "addressY",
                  "type": "uint256"
                },
                {
                  "internalType": "uint32",
                  "name": "token",
                  "type": "uint32"
                },
                {
                  "internalType": "uint64",
                  "name": "amount",
                  "type": "uint64"
                },
                {
                  "internalType": "uint256",
                  "name": "blinding",
                  "type": "uint256"
                }
              ],
              "internalType": "struct Note",
              "name": "refund_note",
              "type": "tuple"
            },
            {
              "internalType": "uint256",
              "name": "position_address",
              "type": "uint256"
            },
            {
              "internalType": "bool",
              "name": "allow_partial_liquidations",
              "type": "bool"
            }
          ],
          "indexed": false,
          "internalType": "struct OpenOrderFields",
          "name": "openOrderFields_b",
          "type": "tuple"
        },
        {
          "indexed": false,
          "internalType": "address",
          "name": "recipient",
          "type": "address"
        },
        {
          "indexed": false,
          "internalType": "uint256[2]",
          "name": "signature_a",
          "type": "uint256[2]"
        },
        {
          "indexed": false,
          "internalType": "uint256[2]",
          "name": "signature_b",
          "type": "uint256[2]"
        }
      ],
      "name": "PositionEscapeEventA",
      "type": "event"
    },
    {
      "anonymous": false,
      "inputs": [
        {
          "indexed": false,
          "internalType": "uint32",
          "name": "escapeId",
          "type": "uint32"
        },
        {
          "indexed": false,
          "internalType": "uint64",
          "name": "closePrice",
          "type": "uint64"
        },
        {
          "components": [
            {
              "internalType": "uint64",
              "name": "index",
              "type": "uint64"
            },
            {
              "internalType": "uint32",
              "name": "synthetic_token",
              "type": "uint32"
            },
            {
              "internalType": "uint256",
              "name": "position_address",
              "type": "uint256"
            },
            {
              "internalType": "bool",
              "name": "allow_partial_liquidations",
              "type": "bool"
            },
            {
              "internalType": "uint32",
              "name": "vlp_token",
              "type": "uint32"
            },
            {
              "internalType": "uint64",
              "name": "max_vlp_supply",
              "type": "uint64"
            },
            {
              "internalType": "bool",
              "name": "order_side",
              "type": "bool"
            },
            {
              "internalType": "uint64",
              "name": "position_size",
              "type": "uint64"
            },
            {
              "internalType": "uint64",
              "name": "margin",
              "type": "uint64"
            },
            {
              "internalType": "uint64",
              "name": "entry_price",
              "type": "uint64"
            },
            {
              "internalType": "uint64",
              "name": "liquidation_price",
              "type": "uint64"
            },
            {
              "internalType": "uint64",
              "name": "bankruptcy_price",
              "type": "uint64"
            },
            {
              "internalType": "uint32",
              "name": "last_funding_idx",
              "type": "uint32"
            },
            {
              "internalType": "uint64",
              "name": "vlp_supply",
              "type": "uint64"
            }
          ],
          "indexed": false,
          "internalType": "struct Position",
          "name": "position_a",
          "type": "tuple"
        },
        {
          "components": [
            {
              "internalType": "uint64",
              "name": "index",
              "type": "uint64"
            },
            {
              "internalType": "uint32",
              "name": "synthetic_token",
              "type": "uint32"
            },
            {
              "internalType": "uint256",
              "name": "position_address",
              "type": "uint256"
            },
            {
              "internalType": "bool",
              "name": "allow_partial_liquidations",
              "type": "bool"
            },
            {
              "internalType": "uint32",
              "name": "vlp_token",
              "type": "uint32"
            },
            {
              "internalType": "uint64",
              "name": "max_vlp_supply",
              "type": "uint64"
            },
            {
              "internalType": "bool",
              "name": "order_side",
              "type": "bool"
            },
            {
              "internalType": "uint64",
              "name": "position_size",
              "type": "uint64"
            },
            {
              "internalType": "uint64",
              "name": "margin",
              "type": "uint64"
            },
            {
              "internalType": "uint64",
              "name": "entry_price",
              "type": "uint64"
            },
            {
              "internalType": "uint64",
              "name": "liquidation_price",
              "type": "uint64"
            },
            {
              "internalType": "uint64",
              "name": "bankruptcy_price",
              "type": "uint64"
            },
            {
              "internalType": "uint32",
              "name": "last_funding_idx",
              "type": "uint32"
            },
            {
              "internalType": "uint64",
              "name": "vlp_supply",
              "type": "uint64"
            }
          ],
          "indexed": false,
          "internalType": "struct Position",
          "name": "position_b",
          "type": "tuple"
        },
        {
          "indexed": false,
          "internalType": "address",
          "name": "recipient",
          "type": "address"
        },
        {
          "indexed": false,
          "internalType": "uint256[2]",
          "name": "signature_a",
          "type": "uint256[2]"
        },
        {
          "indexed": false,
          "internalType": "uint256[2]",
          "name": "signature_b",
          "type": "uint256[2]"
        }
      ],
      "name": "PositionEscapeEventB",
      "type": "event"
    },
    {
      "anonymous": false,
      "inputs": [
        {
          "indexed": false,
          "internalType": "bool",
          "name": "is_valid",
          "type": "bool"
        },
        {
          "indexed": false,
          "internalType": "enum EscapeType",
          "name": "escape_type",
          "type": "uint8"
        },
        {
          "indexed": false,
          "internalType": "uint32",
          "name": "escape_id",
          "type": "uint32"
        },
        {
          "indexed": false,
          "internalType": "uint256",
          "name": "escape_message_hash",
          "type": "uint256"
        },
        {
          "indexed": false,
          "internalType": "uint256",
          "name": "signature_r",
          "type": "uint256"
        },
        {
          "indexed": false,
          "internalType": "uint256",
          "name": "signature_s",
          "type": "uint256"
        }
      ],
      "name": "TestEvent",
      "type": "event"
    },
    {
      "anonymous": false,
      "inputs": [
        {
          "indexed": true,
          "internalType": "address",
          "name": "implementation",
          "type": "address"
        }
      ],
      "name": "Upgraded",
      "type": "event"
    },
    {
      "inputs": [],
      "name": "UPGRADE_INTERFACE_VERSION",
      "outputs": [
        {
          "internalType": "string",
          "name": "",
          "type": "string"
        }
      ],
      "stateMutability": "view",
      "type": "function"
    },
    {
      "inputs": [
        {
          "components": [
            {
              "internalType": "uint64",
              "name": "index",
              "type": "uint64"
            },
            {
              "internalType": "uint256",
              "name": "addressX",
              "type": "uint256"
            },
            {
              "internalType": "uint256",
              "name": "addressY",
              "type": "uint256"
            },
            {
              "internalType": "uint32",
              "name": "token",
              "type": "uint32"
            },
            {
              "internalType": "uint64",
              "name": "amount",
              "type": "uint64"
            },
            {
              "internalType": "uint256",
              "name": "blinding",
              "type": "uint256"
            }
          ],
          "internalType": "struct Note[]",
          "name": "notes",
          "type": "tuple[]"
        }
      ],
      "name": "hashNoteEscapeMessage",
      "outputs": [
        {
          "internalType": "uint256",
          "name": "",
          "type": "uint256"
        }
      ],
      "stateMutability": "view",
      "type": "function"
    },
    {
      "inputs": [
        {
          "components": [
            {
              "internalType": "uint64",
              "name": "index",
              "type": "uint64"
            },
            {
              "internalType": "uint32",
              "name": "synthetic_token",
              "type": "uint32"
            },
            {
              "internalType": "uint256",
              "name": "position_address",
              "type": "uint256"
            },
            {
              "internalType": "bool",
              "name": "allow_partial_liquidations",
              "type": "bool"
            },
            {
              "internalType": "uint32",
              "name": "vlp_token",
              "type": "uint32"
            },
            {
              "internalType": "uint64",
              "name": "max_vlp_supply",
              "type": "uint64"
            },
            {
              "internalType": "bool",
              "name": "order_side",
              "type": "bool"
            },
            {
              "internalType": "uint64",
              "name": "position_size",
              "type": "uint64"
            },
            {
              "internalType": "uint64",
              "name": "margin",
              "type": "uint64"
            },
            {
              "internalType": "uint64",
              "name": "entry_price",
              "type": "uint64"
            },
            {
              "internalType": "uint64",
              "name": "liquidation_price",
              "type": "uint64"
            },
            {
              "internalType": "uint64",
              "name": "bankruptcy_price",
              "type": "uint64"
            },
            {
              "internalType": "uint32",
              "name": "last_funding_idx",
              "type": "uint32"
            },
            {
              "internalType": "uint64",
              "name": "vlp_supply",
              "type": "uint64"
            }
          ],
          "internalType": "struct Position",
          "name": "position_a",
          "type": "tuple"
        },
        {
          "internalType": "uint64",
          "name": "closePrice",
          "type": "uint64"
        },
        {
          "internalType": "uint256",
          "name": "hashInp4",
          "type": "uint256"
        },
        {
          "internalType": "address",
          "name": "recipient",
          "type": "address"
        }
      ],
      "name": "hashPositionEscapeMessage",
      "outputs": [
        {
          "internalType": "uint256",
          "name": "",
          "type": "uint256"
        }
      ],
      "stateMutability": "view",
      "type": "function"
    },
    {
      "inputs": [
        {
          "internalType": "address",
          "name": "initialOwner",
          "type": "address"
        }
      ],
      "name": "initialize",
      "outputs": [],
      "stateMutability": "nonpayable",
      "type": "function"
    },
    {
      "inputs": [],
      "name": "owner",
      "outputs": [
        {
          "internalType": "address",
          "name": "",
          "type": "address"
        }
      ],
      "stateMutability": "view",
      "type": "function"
    },
    {
      "inputs": [],
      "name": "proxiableUUID",
      "outputs": [
        {
          "internalType": "bytes32",
          "name": "",
          "type": "bytes32"
        }
      ],
      "stateMutability": "view",
      "type": "function"
    },
    {
      "inputs": [],
      "name": "renounceOwnership",
      "outputs": [],
      "stateMutability": "nonpayable",
      "type": "function"
    },
    {
      "inputs": [
        {
          "internalType": "uint32",
          "name": "",
          "type": "uint32"
        },
        {
          "internalType": "uint32",
          "name": "",
          "type": "uint32"
        }
      ],
      "name": "s_escapeAmounts",
      "outputs": [
        {
          "internalType": "uint64",
          "name": "",
          "type": "uint64"
        }
      ],
      "stateMutability": "view",
      "type": "function"
    },
    {
      "inputs": [
        {
          "internalType": "uint32",
          "name": "",
          "type": "uint32"
        }
      ],
      "name": "s_forcedEscapes",
      "outputs": [
        {
          "internalType": "uint32",
          "name": "escapeId",
          "type": "uint32"
        },
        {
          "internalType": "uint32",
          "name": "timestamp",
          "type": "uint32"
        },
        {
          "internalType": "uint256",
          "name": "escapeHash",
          "type": "uint256"
        },
        {
          "internalType": "address",
          "name": "caller",
          "type": "address"
        }
      ],
      "stateMutability": "view",
      "type": "function"
    },
    {
      "inputs": [
        {
          "internalType": "address",
          "name": "",
          "type": "address"
        },
        {
          "internalType": "uint32",
          "name": "",
          "type": "uint32"
        }
      ],
      "name": "s_successfulEscapes",
      "outputs": [
        {
          "internalType": "bool",
          "name": "",
          "type": "bool"
        }
      ],
      "stateMutability": "view",
      "type": "function"
    },
    {
      "inputs": [
        {
          "internalType": "address",
          "name": "_invisible",
          "type": "address"
        }
      ],
      "name": "setInvisibleAddress",
      "outputs": [],
      "stateMutability": "nonpayable",
      "type": "function"
    },
    {
      "inputs": [
        {
          "internalType": "address",
          "name": "_structHasher",
          "type": "address"
        }
      ],
      "name": "setStructHasher",
      "outputs": [],
      "stateMutability": "nonpayable",
      "type": "function"
    },
    {
      "inputs": [
        {
          "components": [
            {
              "internalType": "uint64",
              "name": "index",
              "type": "uint64"
            },
            {
              "internalType": "uint256",
              "name": "addressX",
              "type": "uint256"
            },
            {
              "internalType": "uint256",
              "name": "addressY",
              "type": "uint256"
            },
            {
              "internalType": "uint32",
              "name": "token",
              "type": "uint32"
            },
            {
              "internalType": "uint64",
              "name": "amount",
              "type": "uint64"
            },
            {
              "internalType": "uint256",
              "name": "blinding",
              "type": "uint256"
            }
          ],
          "internalType": "struct Note[]",
          "name": "notes",
          "type": "tuple[]"
        },
        {
          "internalType": "uint256[2]",
          "name": "signature",
          "type": "uint256[2]"
        }
      ],
      "name": "startNoteEscape",
      "outputs": [],
      "stateMutability": "nonpayable",
      "type": "function"
    },
    {
      "inputs": [
        {
          "components": [
            {
              "internalType": "uint64",
              "name": "tab_idx",
              "type": "uint64"
            },
            {
              "internalType": "uint32",
              "name": "base_token",
              "type": "uint32"
            },
            {
              "internalType": "uint32",
              "name": "quote_token",
              "type": "uint32"
            },
            {
              "internalType": "uint256",
              "name": "base_blinding",
              "type": "uint256"
            },
            {
              "internalType": "uint256",
              "name": "quote_blinding",
              "type": "uint256"
            },
            {
              "internalType": "uint256",
              "name": "pub_key",
              "type": "uint256"
            },
            {
              "internalType": "uint64",
              "name": "base_amount",
              "type": "uint64"
            },
            {
              "internalType": "uint64",
              "name": "quote_amount",
              "type": "uint64"
            }
          ],
          "internalType": "struct OrderTab",
          "name": "orderTab",
          "type": "tuple"
        },
        {
          "internalType": "uint256[2]",
          "name": "signature",
          "type": "uint256[2]"
        }
      ],
      "name": "startOrderTabEscape",
      "outputs": [],
      "stateMutability": "nonpayable",
      "type": "function"
    },
    {
      "inputs": [
        {
          "components": [
            {
              "internalType": "uint64",
              "name": "index",
              "type": "uint64"
            },
            {
              "internalType": "uint32",
              "name": "synthetic_token",
              "type": "uint32"
            },
            {
              "internalType": "uint256",
              "name": "position_address",
              "type": "uint256"
            },
            {
              "internalType": "bool",
              "name": "allow_partial_liquidations",
              "type": "bool"
            },
            {
              "internalType": "uint32",
              "name": "vlp_token",
              "type": "uint32"
            },
            {
              "internalType": "uint64",
              "name": "max_vlp_supply",
              "type": "uint64"
            },
            {
              "internalType": "bool",
              "name": "order_side",
              "type": "bool"
            },
            {
              "internalType": "uint64",
              "name": "position_size",
              "type": "uint64"
            },
            {
              "internalType": "uint64",
              "name": "margin",
              "type": "uint64"
            },
            {
              "internalType": "uint64",
              "name": "entry_price",
              "type": "uint64"
            },
            {
              "internalType": "uint64",
              "name": "liquidation_price",
              "type": "uint64"
            },
            {
              "internalType": "uint64",
              "name": "bankruptcy_price",
              "type": "uint64"
            },
            {
              "internalType": "uint32",
              "name": "last_funding_idx",
              "type": "uint32"
            },
            {
              "internalType": "uint64",
              "name": "vlp_supply",
              "type": "uint64"
            }
          ],
          "internalType": "struct Position",
          "name": "position_a",
          "type": "tuple"
        },
        {
          "internalType": "uint64",
          "name": "closePrice",
          "type": "uint64"
        },
        {
          "components": [
            {
              "internalType": "uint64",
              "name": "index",
              "type": "uint64"
            },
            {
              "internalType": "uint32",
              "name": "synthetic_token",
              "type": "uint32"
            },
            {
              "internalType": "uint256",
              "name": "position_address",
              "type": "uint256"
            },
            {
              "internalType": "bool",
              "name": "allow_partial_liquidations",
              "type": "bool"
            },
            {
              "internalType": "uint32",
              "name": "vlp_token",
              "type": "uint32"
            },
            {
              "internalType": "uint64",
              "name": "max_vlp_supply",
              "type": "uint64"
            },
            {
              "internalType": "bool",
              "name": "order_side",
              "type": "bool"
            },
            {
              "internalType": "uint64",
              "name": "position_size",
              "type": "uint64"
            },
            {
              "internalType": "uint64",
              "name": "margin",
              "type": "uint64"
            },
            {
              "internalType": "uint64",
              "name": "entry_price",
              "type": "uint64"
            },
            {
              "internalType": "uint64",
              "name": "liquidation_price",
              "type": "uint64"
            },
            {
              "internalType": "uint64",
              "name": "bankruptcy_price",
              "type": "uint64"
            },
            {
              "internalType": "uint32",
              "name": "last_funding_idx",
              "type": "uint32"
            },
            {
              "internalType": "uint64",
              "name": "vlp_supply",
              "type": "uint64"
            }
          ],
          "internalType": "struct Position",
          "name": "position_b",
          "type": "tuple"
        },
        {
          "internalType": "address",
          "name": "recipient",
          "type": "address"
        },
        {
          "internalType": "uint256[2]",
          "name": "signature_a",
          "type": "uint256[2]"
        },
        {
          "internalType": "uint256[2]",
          "name": "signature_b",
          "type": "uint256[2]"
        }
      ],
      "name": "startPositionEscape1",
      "outputs": [],
      "stateMutability": "nonpayable",
      "type": "function"
    },
    {
      "inputs": [
        {
          "components": [
            {
              "internalType": "uint64",
              "name": "index",
              "type": "uint64"
            },
            {
              "internalType": "uint32",
              "name": "synthetic_token",
              "type": "uint32"
            },
            {
              "internalType": "uint256",
              "name": "position_address",
              "type": "uint256"
            },
            {
              "internalType": "bool",
              "name": "allow_partial_liquidations",
              "type": "bool"
            },
            {
              "internalType": "uint32",
              "name": "vlp_token",
              "type": "uint32"
            },
            {
              "internalType": "uint64",
              "name": "max_vlp_supply",
              "type": "uint64"
            },
            {
              "internalType": "bool",
              "name": "order_side",
              "type": "bool"
            },
            {
              "internalType": "uint64",
              "name": "position_size",
              "type": "uint64"
            },
            {
              "internalType": "uint64",
              "name": "margin",
              "type": "uint64"
            },
            {
              "internalType": "uint64",
              "name": "entry_price",
              "type": "uint64"
            },
            {
              "internalType": "uint64",
              "name": "liquidation_price",
              "type": "uint64"
            },
            {
              "internalType": "uint64",
              "name": "bankruptcy_price",
              "type": "uint64"
            },
            {
              "internalType": "uint32",
              "name": "last_funding_idx",
              "type": "uint32"
            },
            {
              "internalType": "uint64",
              "name": "vlp_supply",
              "type": "uint64"
            }
          ],
          "internalType": "struct Position",
          "name": "position_a",
          "type": "tuple"
        },
        {
          "internalType": "uint64",
          "name": "closePrice",
          "type": "uint64"
        },
        {
          "components": [
            {
              "internalType": "uint64",
              "name": "initial_margin",
              "type": "uint64"
            },
            {
              "internalType": "uint32",
              "name": "collateral_token",
              "type": "uint32"
            },
            {
              "components": [
                {
                  "internalType": "uint64",
                  "name": "index",
                  "type": "uint64"
                },
                {
                  "internalType": "uint256",
                  "name": "addressX",
                  "type": "uint256"
                },
                {
                  "internalType": "uint256",
                  "name": "addressY",
                  "type": "uint256"
                },
                {
                  "internalType": "uint32",
                  "name": "token",
                  "type": "uint32"
                },
                {
                  "internalType": "uint64",
                  "name": "amount",
                  "type": "uint64"
                },
                {
                  "internalType": "uint256",
                  "name": "blinding",
                  "type": "uint256"
                }
              ],
              "internalType": "struct Note[]",
              "name": "notes_in",
              "type": "tuple[]"
            },
            {
              "components": [
                {
                  "internalType": "uint64",
                  "name": "index",
                  "type": "uint64"
                },
                {
                  "internalType": "uint256",
                  "name": "addressX",
                  "type": "uint256"
                },
                {
                  "internalType": "uint256",
                  "name": "addressY",
                  "type": "uint256"
                },
                {
                  "internalType": "uint32",
                  "name": "token",
                  "type": "uint32"
                },
                {
                  "internalType": "uint64",
                  "name": "amount",
                  "type": "uint64"
                },
                {
                  "internalType": "uint256",
                  "name": "blinding",
                  "type": "uint256"
                }
              ],
              "internalType": "struct Note",
              "name": "refund_note",
              "type": "tuple"
            },
            {
              "internalType": "uint256",
              "name": "position_address",
              "type": "uint256"
            },
            {
              "internalType": "bool",
              "name": "allow_partial_liquidations",
              "type": "bool"
            }
          ],
          "internalType": "struct OpenOrderFields",
          "name": "openOrderFields_b",
          "type": "tuple"
        },
        {
          "internalType": "address",
          "name": "recipient",
          "type": "address"
        },
        {
          "internalType": "uint256[2]",
          "name": "signature_a",
          "type": "uint256[2]"
        },
        {
          "internalType": "uint256[2]",
          "name": "signature_b",
          "type": "uint256[2]"
        }
      ],
      "name": "startPositionEscape2",
      "outputs": [],
      "stateMutability": "nonpayable",
      "type": "function"
    },
    {
      "inputs": [
        {
          "internalType": "uint8",
          "name": "option",
          "type": "uint8"
        }
      ],
      "name": "test",
      "outputs": [],
      "stateMutability": "nonpayable",
      "type": "function"
    },
    {
      "inputs": [
        {
          "internalType": "address",
          "name": "newOwner",
          "type": "address"
        }
      ],
      "name": "transferOwnership",
      "outputs": [],
      "stateMutability": "nonpayable",
      "type": "function"
    },
    {
      "inputs": [
        {
          "components": [
            {
              "internalType": "uint256",
              "name": "batched_escape_info",
              "type": "uint256"
            },
            {
              "internalType": "uint256",
              "name": "escape_message_hash",
              "type": "uint256"
            },
            {
              "internalType": "uint256",
              "name": "signature_r",
              "type": "uint256"
            },
            {
              "internalType": "uint256",
              "name": "signature_s",
              "type": "uint256"
            }
          ],
          "internalType": "struct EscapeOutput[]",
          "name": "escapeOutputs",
          "type": "tuple[]"
        }
      ],
      "name": "updatePendingEscapes",
      "outputs": [],
      "stateMutability": "nonpayable",
      "type": "function"
    },
    {
      "inputs": [
        {
          "components": [
            {
              "internalType": "uint256",
              "name": "batched_escape_info",
              "type": "uint256"
            },
            {
              "internalType": "address",
              "name": "recipient",
              "type": "address"
            },
            {
              "internalType": "uint256",
              "name": "escape_message_hash",
              "type": "uint256"
            },
            {
              "internalType": "uint256",
              "name": "signature_a_r",
              "type": "uint256"
            },
            {
              "internalType": "uint256",
              "name": "signature_a_s",
              "type": "uint256"
            },
            {
              "internalType": "uint256",
              "name": "signature_b_r",
              "type": "uint256"
            },
            {
              "internalType": "uint256",
              "name": "signature_b_s",
              "type": "uint256"
            }
          ],
          "internalType": "struct PositionEscapeOutput[]",
          "name": "escapeOutputs",
          "type": "tuple[]"
        }
      ],
      "name": "updatePendingPositionEscapes",
      "outputs": [],
      "stateMutability": "nonpayable",
      "type": "function"
    },
    {
      "inputs": [
        {
          "internalType": "address",
          "name": "newImplementation",
          "type": "address"
        },
        {
          "internalType": "bytes",
          "name": "data",
          "type": "bytes"
        }
      ],
      "name": "upgradeToAndCall",
      "outputs": [],
      "stateMutability": "payable",
      "type": "function"
    },
    {
      "inputs": [
        {
          "internalType": "uint32",
          "name": "escapeId",
          "type": "uint32"
        },
        {
          "internalType": "uint32",
          "name": "tokenId",
          "type": "uint32"
        }
      ],
      "name": "withdrawForcedEscape",
      "outputs": [],
      "stateMutability": "nonpayable",
      "type": "function"
    }
  ],
  "bytecode": "0x60a0806040523461002a5730608052613bd790816100308239608051818181611b180152611c0f0152f35b600080fdfe6080604052600436101561001257600080fd5b6000803560e01c80630729c10514612ca35780631ac8bd1814612a315780633031b1701461257e578063350eccc91461252a5780633a6a89c1146121d25780633e5a442b14611e735780634d90b6e014611e345780634f1ef28614611b9257806352d1902d14611afd57806352fa4c53146119335780635de5f8ec1461120d57806364092f4f146111a8578063715018a61461112c5780638da5cb5b146110e6578063ad3cb1cc1461104f578063b657b83914610ff8578063c0390e4e14610fbb578063c316fdae14610f77578063c4d66de814610e22578063f1820bdc146104ee578063f2fde38b146104c15763fbaf89651461010f57600080fd5b346104be576060806003193601126104ba5767ffffffffffffffff916004358381116104ba57610143903690600401612e1e565b606490366064116104b657600167080000000000001160c01b019360249561016e8660243510612fbd565b60449661017e8760443510612fbd565b63ffffffff98894216978454998b8b169a8c6101998d613008565b169063ffffffff1916178655855b878110610351575050505050506101be8285613456565b95604051946101cc86612d0f565b8286526020938385880152604051956101e487612d2b565b83875285870199898b52604088019081526040519161020283612d0f565b602488845b8383106103415750505050606088019182526080880198895260a088019a338c5285875260019c600189526040882099511667ffffffff000000008a5492518a1b169167ffffffffffffffff1916171788555160018801555197845b6002998a821015610282579081888e935191019b828b01015501610263565b5050898b9293949695978951895b6002811061032d575050906001600160a01b036006869493019151166001600160a01b03198254161790556080604051968188019288528701525260a084019291865b81811061030e5787877f3b9e8d140207afbab1b39f2b424c559ff1ea3ad08b04d21fba45ae1ad2a8a78b88808960406024818401370390a280f35b90918461031d859683966132d5565b60c09081019501939291016102d3565b815183820160040155908801908501610290565b82358152918101918a9101610207565b8c8a6103748861036e858d6001600160a01b03600454169561340a565b01612f94565b9060405192839263f6f01b8760e01b8452166004830152818860209485935afa9081156104ab57899161047e575b501561043d57908c8b8f9360019461040d8b61036e8f8f9060408a926103ff8f6103f986868e6103f48f956103e7816080986103df88888861340a565b013510612fbd565b60a06103df86868661340a565b61340a565b0161309e565b9a815260028952209761340a565b166000525260406000209086610427835492828416612ef7565b169067ffffffffffffffff1916179055016101a7565b89907f546f6b656e206e6f742072656769737465726564000000000000000000000000846014896040519462461bcd60e51b86526004860152840152820152fd5b61049e9150823d84116104a4575b6104968183612d64565b810190612fa5565b386103a2565b503d61048c565b6040513d8b823e3d90fd5b8380fd5b5080fd5b80fd5b50346104be5760203660031901126104be576104eb6104de612ce2565b6104e66139d1565b613933565b80f35b50346104be5760203660031901126104be5760043560ff81168091036104ba5780610609575060017f3b9e8d140207afbab1b39f2b424c559ff1ea3ad08b04d21fba45ae1ad2a8a78b6105f861054261381c565b60405161054e81612d2b565b8481527a0499cceb47a74b59b2ee32548378da0a9f09b1a903be4d64d8d8ed908160208201527a0819ea277dec0e5a77188ddd37b39cc5edceaba903be4d64d8d8ed604082015263d623f7fd60608201526305f5e10060808201528160a08201526105b883612ec0565b526105c282612ec0565b50604051906105d082612d0f565b80825260208201526106036040519384936239e57e8552608060208601526080850190613886565b91604084019061390b565b0390a280f35b60019080820361079c575050604051610100908181019181831067ffffffffffffffff84111761078657610782610180927f0ca0b32713afb658f82cf58cf8a093dd7f2415a2f2c91017c828a42260d151c094604052600b815263d623f7fd6020820152638fdd705b604082015267ffffffffffffffff60e07a0499cceb47a74b59b2ee32548378da0a9f09b1a903be4d64d8d8ed928360608201527a05c82ed8767257750016403744a2b840abe7387f8cf4c69311fba860808201527a17c79343f08fa5a0231be3945c174ce7161337360a28128862594f60a08201526314dc938060c08201526377359400828201526040519361070785612d0f565b808552602085015260405195600287526239e57e6020880152838251166040880152602082015163ffffffff80911660608901526040830151166080880152606082015160a0880152608082015160c088015260a0820151838801528360c0830151169087015201511661012084015261014083019061390b565ba180f35b634e487b7160e01b600052604160045260246000fd5b60028103610abd57506104607fae88e4192d823d2d7e9b1e5b0908ffad965c8b4dcb5fdc88c655c9b2755bfcc291610782604051916107da83612d47565b60078352610ab2631b0bc2a88060208601528785817a0499cceb47a74b59b2ee32548378da0a9f09b1a903be4d64d8d8ed958660408401528060608401528160808401528160a08401528060c08401526302ebae406305f5e1008060e08601526101008181870152610120918287015261014085818801526308f0d1806101609387858a01526101809688888b0152886101a0809b01526040519b61087e8d612d47565b60078d5260208d01528d60408d01528060608d01528860808d01528860a08d015260c08c0152630bebc20060e08c01526302faf08080948c01528a0152880152860152840152820152610a8c604051916108d783612d0f565b848352846020840152604051946108ed86612d0f565b80865260208601526109c460405197600389526305e308c860208a0152604089019067ffffffffffffffff808251168352602082015163ffffffff8091166020850152604083015160408501526060830151151560608501528060808401511660808501528160a08401511660a085015260c0830151151560c08501528160e08401511660e085015261010082818501511690850152610120828185015116908501526101408281850151169085015261016082818501511690850152610180908184015116908401526101a08092015116910152565b805167ffffffffffffffff908116610200890152602082015163ffffffff9081166102208a015260408301516102408a0152606083015115156102608a0152608083015181166102808a015260a083015182166102a08a015260c083015115156102c08a015260e083015182166102e08a015261010083015182166103008a015261012083015182166103208a015261014083015182166103408a015261016083015182166103608a0152610180830151166103808901526101a090910151166103a0870152565b732b2ea7ec7e366666772daaf496817c14b8c0ae746103c08601526103e085019061390b565b61042083019061390b565b600314610ac9575b5080f35b60405190610ad682612d47565b60078252631b0bc2a88060208401527a0499cceb47a74b59b2ee32548378da0a9f09b1a903be4d64d8d8ed8060408501528260608501528460808501528460a08501528260c08501526305f5e100928360e086015283610100860152836101208601528561014086015261016090868287015286610180870152866101a0870152610b5f61381c565b60405194610b6c86612d2b565b8286528460208701527a0819ea277dec0e5a77188ddd37b39cc5edceaba903be4d64d8d8ed958660408201526060810163d623f7fd90528760808201528560a0820152610bb883612ec0565b52610bc282612ec0565b5060405195610bd087612d2b565b60078752856020880152604087015260608601528560808601528360a086015260405195610bfd87612d2b565b8652602086019261d90384526040870191825260608701958652608087019185835260a0880193845260405194610c3386612d0f565b86865286602087015260405196610c4988612d0f565b8088526020880152604051998a996102c09160048c5260208c016305e308c8905260408c01610d279167ffffffffffffffff808251168352602082015163ffffffff8091166020850152604083015160408501526060830151151560608501528060808401511660808501528160a08401511660a085015260c0830151151560c08501528160e08401511660e085015261010082818501511690850152610120828185015116908501526101408281850151169085015261016082818501511690850152610180908184015116908401526101a08092015116910152565b816102008c01525167ffffffffffffffff16908a01525163ffffffff166102e089015251906103008801526104208701610d6091613886565b9451805167ffffffffffffffff90811661032089015260208201516103408901526040820151610360890152606082015163ffffffff166103808901526080820151166103a088015260a001516103c0870152516103e08601525115156104008501526102208401732b2ea7ec7e366666772daaf496817c14b8c0ae7490526102408401610ded9161390b565b6102808301610dfb9161390b565b037f11732e657240425ed105b3b18626aefac55a7336ce4ed7e241fed7931dc03c5191a180f35b50346104be5760203660031901126104be57610e3c612ce2565b7ff0c57e16840df040f15088dc2f81fe391c3923bec73e23a9662efc9c229c6a0090815460ff8160401c16159167ffffffffffffffff821680159081610f6f575b6001149081610f65575b159081610f5c575b50610f325767ffffffffffffffff1982166001178455610ec09183610f13575b50610eb8613ab5565b6104e6613ab5565b610ec8613ab5565b6001600655610ed5575080f35b68ff00000000000000001981541690557fc7f505b2f371ae2175ee4913f4499e1f2633a7b5936321eed1cdaeb6115181d2602060405160018152a180f35b68ffffffffffffffffff19166801000000000000000117845538610eaf565b60046040517ff92ee8a9000000000000000000000000000000000000000000000000000000008152fd5b90501538610e8f565b303b159150610e87565b849150610e7d565b50346104be57366003190161022081126104ba576101c0136104be576020610fb3610fa0612dd5565b610fa8612cf8565b906101e435906135c4565b604051908152f35b50346104be5760203660031901126104be576004359067ffffffffffffffff82116104be576020610fb3610ff23660048601612e1e565b90613456565b50346104be5760403660031901126104be57611012612db1565b604061101c612d9e565b9263ffffffff80931681526002602052209116600052602052602067ffffffffffffffff60406000205416604051908152f35b50346104be57806003193601126104be5760405161106c81612d0f565b600581526020917f352e302e30000000000000000000000000000000000000000000000000000000602083015260405192839160208352835191826020850152815b8381106110cf57505060408094508284010152601f80199101168101030190f35b8086018201518782016040015286945081016110ae565b50346104be57806003193601126104be5760206001600160a01b037f9016d09d72d40fdae2fd8ceac6b6234c7706214fd39c1cd1e609a0528c1993005416604051908152f35b50346104be57806003193601126104be576111456139d1565b60006001600160a01b037f9016d09d72d40fdae2fd8ceac6b6234c7706214fd39c1cd1e609a0528c1993008054906001600160a01b031982169055167f8be0079c531659141344cd1fd0a4f28419497f9722a3daafe3b4186f6b6457e08280a380f35b50346104be5760203660031901126104be57608090604063ffffffff91826111ce612db1565b168152600160205220908154916001600160a01b0360066001830154920154169160405193818116855260201c16602084015260408301526060820152f35b50346104be57600319903682016102a081126104ba576101c0136104be57611233612dd5565b9167ffffffffffffffff6101e435116104ba57610160906101e435360301126104be5761125e612cf8565b36610264116104ba57366102a4116104ba5781549263ffffffff611283818616613008565b1663ffffffff1985161783556112b0600167080000000000001160c01b016101246101e435013510612fbd565b829383945b6112cb60446101e435016101e435600401613a34565b905086101561139a5761139260019161131161d90363ffffffff61130a606061036e8d61130460446101e435016101e435600401613a34565b9061340a565b1614613a6a565b61133f600167080000000000001160c01b0160206103df8b61130460446101e435016101e435600401613a34565b61136d600167080000000000001160c01b0160a06103df8b61130460446101e435016101e435600401613a34565b61138c60806103f98a61130460446101e435016101e435600401613a34565b90612ef7565b9501946112b5565b849067ffffffffffffffff6113b460e46101e4350161309e565b1661187b575b67ffffffffffffffff806113d360e46101e4350161309e565b1691160367ffffffffffffffff81116118675767ffffffffffffffff806113ff6101e43560040161309e565b169116036118235761d90363ffffffff61141e60246101e43501612f94565b16036117df576001600160a01b0360055416602060405180927f8ed2ff180000000000000000000000000000000000000000000000000000000082528260048301528180611475602482016101e435600401613333565b03915afa80156117d4578590839061179e575b6114939250856135c4565b9267ffffffffffffffff8116156117995760843563ffffffff81168091036117995761172f576114d4600167080000000000001160c01b0160443510612fbd565b6114f0600167080000000000001160c01b016102243510612fbd565b61150c600167080000000000001160c01b016102443510612fbd565b611528600167080000000000001160c01b016102643510612fbd565b611544600167080000000000001160c01b016102843510612fbd565b6040519361155185612d2b565b63ffffffff8416855263ffffffff42166020860152604085015260405161157781612d0f565b610224815b610264821061171f575050606085015260405161159881612d0f565b610264815b6102a4821061170f57505060808501526001600160a01b03851660a085015263ffffffff8316600052600160205260406000209463ffffffff85511686549067ffffffff00000000602088015160201b169167ffffffffffffffff1916171786556040850151600187015560608501519360005b600281101561163157600190602087519701966002828b01015501611611565b5086945085608081015160005b600281106116f8575050916001600160a01b036116d47f11732e657240425ed105b3b18626aefac55a7336ce4ed7e241fed7931dc03c51959367ffffffffffffffff958360a060068c01920151166001600160a01b031982541617905560405195869563ffffffff6102c0931687521660208601526116bf604086016131c8565b8061020086015284016101e435600401613333565b9116610220830152604061022461024084013760406102646102808401370390a180f35b600190602083519301926004828b0101550161163e565b813581526020918201910161159d565b813581526020918201910161157c565b608460405162461bcd60e51b815260206004820152603860248201527f43616e6e6f7420666f72636520657363617065206120736d61727420636f6e7460448201527f7261637420696e697469746174656420706f736974696f6e00000000000000006064820152fd5b600080fd5b50506020813d6020116117cc575b816117b960209383612d64565b8101031261179957846114939151611488565b3d91506117ac565b6040513d84823e3d90fd5b606460405162461bcd60e51b815260206004820152601860248201527f496e76616c696420636f6c6c61746572616c20746f6b656e00000000000000006044820152fd5b606460405162461bcd60e51b815260206004820152601660248201527f496e76616c696420696e697469616c206d617267696e000000000000000000006044820152fd5b602482634e487b7160e01b81526011600452fd5b61189561d90363ffffffff61130a60c46101e43501612f94565b6118a460646101e4350161309e565b6118ba60446101e435016101e435600401613a34565b1561191f5767ffffffffffffffff6118d2819261309e565b16911603156113ba57606460405162461bcd60e51b815260206004820152601960248201527f696e76616c696420726566756e645f6e6f74655f696e646578000000000000006044820152fd5b602484634e487b7160e01b81526032600452fd5b50346104be576020806003193601126104ba5767ffffffffffffffff906004358281116104b657366023820112156104b657602490600481013561197681612d86565b946119846040519687612d64565b81865260248587019260071b84010192368411611af957602401915b838310611a90578787876001600160a01b03906119c282600454163314612e4f565b835b8351811015611a8c57806119da60019286612ee3565b51805183918663ffffffff8360101c169287830151906060604085015194015193858d52868a5260408d20928784015403611a8057600283015403611a75576003938483015403611a755760081c60ff168514611a4b575b50505087528352611a4560408720612f40565b016119c4565b6006015416895285526040882081600052855260406000208260ff19825416179055888681611a32565b505050505050611a45565b50505050505050611a45565b8480f35b60808084360312611af55760405190810181811084821117611ae05791879160809360405285358152828601358382015260408601356040820152606080870135908201528152019201916119a0565b86634e487b7160e01b60005260416004526000fd5b8880fd5b8780fd5b50346104be57806003193601126104be576001600160a01b037f0000000000000000000000000000000000000000000000000000000000000000163003611b685760206040517f360894a13ba1a3210667c828492db98dca3e2076cc3735a920a3ca505d382bbc8152f35b60046040517fe07c8dba000000000000000000000000000000000000000000000000000000008152fd5b5060403660031901126104be57611ba7612ce2565b602491823567ffffffffffffffff81116104ba57366023820112156104ba578060040135611bd481612e02565b93611be26040519586612d64565b8185526020918286019336888383010111611e3057818692898693018737870101526001600160a01b03807f000000000000000000000000000000000000000000000000000000000000000016803014908115611e02575b50611b6857611c476139d1565b8116946040517f52d1902d00000000000000000000000000000000000000000000000000000000815283816004818a5afa869181611dcf575b50611c9c57878760405190634c9c8ce360e01b82526004820152fd5b8690887f360894a13ba1a3210667c828492db98dca3e2076cc3735a920a3ca505d382bbc91828103611da15750843b15611d8b575080546001600160a01b031916821790556040518692917fbc7cd75a20ee27fd9adebab32041f755214dbc6bffa90cc0225b39da2e5c2d3b8480a2815115611d545750610ac59482915190845af4903d15611d4b573d611d2f81612e02565b90611d3d6040519283612d64565b81528581943d92013e613b0e565b60609250613b0e565b94505050505034611d63575080f35b807fb398979f0000000000000000000000000000000000000000000000000000000060049252fd5b8260405190634c9c8ce360e01b82526004820152fd5b604051907faa1d49a40000000000000000000000000000000000000000000000000000000082526004820152fd5b9091508481813d8311611dfb575b611de78183612d64565b81010312611df757519038611c80565b8680fd5b503d611ddd565b9050817f360894a13ba1a3210667c828492db98dca3e2076cc3735a920a3ca505d382bbc5416141538611c3a565b8580fd5b50346104be5760203660031901126104be576001600160a01b03611e56612ce2565b611e5e6139d1565b166001600160a01b0319600554161760055580f35b50346104be5760403660031901126104be57611e8d612db1565b611e95612d9e565b907f9b779b17422d0df92223018b32b4d1fa46e071723d6817e2486d003becc55f009060028254146121a8576002825563ffffffff92338552602090600382528460408720931692838752825260ff6040872054161561216457828652600282528460408720911690818752825267ffffffffffffffff918260408820541692831561212057848852600282526040882083895282526040882067ffffffffffffffff1981541690556001600160a01b039088826004541692604051937f6d3ed7470000000000000000000000000000000000000000000000000000000085528760048601528660248601528585604481845afa9485156121155783956120e2575b506040517f543d7a190000000000000000000000000000000000000000000000000000000081528760048201528681602481855afa9081156120d75784916120a1575b50813b156104b6578360649260405197889586947f5250e16800000000000000000000000000000000000000000000000000000000865216600485015233602485015260448401525af180156104ab5761207c575b5050917f015f0cd55798d1984fe6c6778bca0370117205807f686a114c5836c50c44485c939160a09360019760405194855242169084015260408301526060820152336080820152a15580f35b811161208d576040528160a061202f565b602488634e487b7160e01b81526041600452fd5b90508681813d83116120d0575b6120b88183612d64565b810103126104b6575182811681036104b65738611fda565b503d6120ae565b6040513d86823e3d90fd5b9094508581813d831161210e575b6120fa8183612d64565b8101031261210a57519338611f97565b8280fd5b503d6120f0565b6040513d85823e3d90fd5b6064826040519062461bcd60e51b82526004820152601a60248201527f4e6f206573636170656420616d6f756e7420746f20636c61696d0000000000006044820152fd5b6064826040519062461bcd60e51b82526004820152601660248201527f496e76616c69642065736361706520617474656d7074000000000000000000006044820152fd5b60046040517f3ee5aeb5000000000000000000000000000000000000000000000000000000008152fd5b50346104be5736600319019061044082126104be576101c08092126104be576121f9612dd5565b91366101e31901126104be576103a435916001600160a01b03831683036104ba5736610404116104ba5736610444116104ba5781549163ffffffff61223f818516613008565b1663ffffffff198416178155600167080000000000001160c01b0192612269846102243510612fbd565b6101c460206001600160a01b036005541660405192838092633643eae560e11b8252612297600483016130b3565b5afa801561211557869084906124f4575b6122b39250856135c4565b9367ffffffffffffffff84161561210a5760843563ffffffff81168091036104b65761172f57806122ea61231e9260443510612fbd565b6122f8816103c43510612fbd565b612306816103e43510612fbd565b612314816104043510612fbd565b6104243510612fbd565b6040519361232b85612d2b565b63ffffffff8216855263ffffffff42166020860152604085015260405161235181612d0f565b6103c4815b61040482106124e4575050606085015260405161237281612d0f565b610404815b61044482106124d457505060808501526001600160a01b03851660a085015263ffffffff811682526001602052604082209463ffffffff85511686549067ffffffff00000000602088015160201b169167ffffffffffffffff19161717865560408501516001870155606085015193835b600281101561240857600190602087519701966002828b010155016123e8565b50869450856080810151855b600281106124bd5750506104609267ffffffffffffffff7fae88e4192d823d2d7e9b1e5b0908ffad965c8b4dcb5fdc88c655c9b2755bfcc295936001600160a01b03938460a060068c01920151166001600160a01b031982541617905563ffffffff6040519516855216602084015261248f604084016131c8565b61249c61020084016130b3565b166103c082015260406103c46103e08301376040610404610420830137a180f35b600190602083519301926004828b01015501612414565b8135815260209182019101612377565b8135815260209182019101612356565b50506020813d602011612522575b8161250f60209383612d64565b8101031261210a57856122b391516122a8565b3d9150612502565b50346104be5760403660031901126104be5760ff604060209261254b612ce2565b6001600160a01b0361255b612d9e565b911682526003855263ffffffff8383209116825284522054166040519015158152f35b50346104be57366003190161014081126104ba57610100136104be576101443681116104ba576001600160a01b03600454166125b8612f6e565b60405163ffffffff63f6f01b8760e01b92838352166004820152602081602481865afa908115612a26578591612a07575b50156129c35763ffffffff916024602092612602612f81565b92604051958694859384521660048301525afa9081156121155783916129a4575b5015612960576101049061267c600167080000000000001160c01b0161264c8160643510612fbd565b6126598160843510612fbd565b6126668160a43510612fbd565b61267281853510612fbd565b6101243510612fbd565b82549063ffffffff61268f818416613008565b1663ffffffff19831617845560206001600160a01b0360055416604051948580927f770f9bfa0000000000000000000000000000000000000000000000000000000082526126df6004830161301d565b5afa9283156120d757849361292c575b50604051906126fd82612d0f565b8482528460208301526040519361271385612d2b565b63ffffffff8416855263ffffffff4216602086015260408501526040519061273a82612d0f565b610104825b82821061291c57505050606084015260808301523360a083015263ffffffff811683526001602052604083209263ffffffff83511684549067ffffffff00000000602086015160201b169167ffffffffffffffff19161717845560408301516001850155606083015191815b60028110156127cb576001906020855195019460028289010155016127ab565b5083856080820151845b6002811061290557505060a060066001600160a01b039201920151166001600160a01b031982541617905560c4359067ffffffffffffffff9182811681036104b65760026020526040842063ffffffff61282d612f6e565b168552602052604084209083612847835492828416612ef7565b169067ffffffffffffffff191617905560e4359082821682036104b6577f0ca0b32713afb658f82cf58cf8a093dd7f2415a2f2c91017c828a42260d151c0926101809263ffffffff8316865260026020526040862063ffffffff6128a9612f81565b16875260205260408620916128c2835492828416612ef7565b169067ffffffffffffffff191617905563ffffffff6040519116815263ffffffff421660208201526128f66040820161301d565b6040610104610140830137a180f35b6001906020835193019260048286010155016127d5565b813581526020918201910161273f565b9092506020813d602011612958575b8161294860209383612d64565b810103126104b6575191386126ef565b3d915061293b565b606460405162461bcd60e51b815260206004820152601a60248201527f51756f746520546f6b656e206e6f7420726567697374657265640000000000006044820152fd5b6129bd915060203d6020116104a4576104968183612d64565b38612623565b606460405162461bcd60e51b815260206004820152601960248201527f4261736520746f6b656e206e6f742072656769737465726564000000000000006044820152fd5b612a20915060203d6020116104a4576104968183612d64565b386125e9565b6040513d87823e3d90fd5b50346104be576020806003193601126104ba576004359167ffffffffffffffff908184116104be57366023850112156104be576024936004810135612a7581612d86565b95612a836040519788612d64565b818752602460e0878901930284010192368411612c9f57602401915b838310612c0e57505050506001600160a01b0390612ac282600454163314612e4f565b805b8551811015610ac55780612ada60019288612ee3565b51805187849263ffffffff8360081c16928883830151169160408101518a8a606084015193896080820151988a60c060a085015194015194525260408d20938a85015403612bff576002948585015403612bff576003978885015403612bff57600484015403612bf157600583015403612be4576006859201541603612bd9578560ff831614612b7e575b50505050508652612b7860408420612f40565b01612ac4565b8b526040882061d90389528b5260408820908a612ba48184549360281c16828416612ef7565b169067ffffffffffffffff191617905586528852604085209085528752604084208160ff198254161790553880808080612b65565b505050505050612b78565b5050505050505050612b78565b505050505050505050612b78565b50505050505050505050612b78565b60e083360312612c9f5760405160e0810181811088821117612c8c5760405283358152878401356001600160a01b0381168103611df757918160e0938a8094015260408601356040820152606080870135908201526080808701359082015260a0808701359082015260c08087013590820152815201920191612a9f565b8387634e487b7160e01b81526041600452fd5b8480fd5b50346104be5760203660031901126104be576001600160a01b03612cc5612ce2565b612ccd6139d1565b166001600160a01b0319600454161760045580f35b600435906001600160a01b038216820361179957565b61020435906001600160a01b038216820361179957565b6040810190811067ffffffffffffffff82111761078657604052565b60c0810190811067ffffffffffffffff82111761078657604052565b6101c0810190811067ffffffffffffffff82111761078657604052565b90601f8019910116810190811067ffffffffffffffff82111761078657604052565b67ffffffffffffffff81116107865760051b60200190565b6024359063ffffffff8216820361179957565b6004359063ffffffff8216820361179957565b359063ffffffff8216820361179957565b6101c4359067ffffffffffffffff8216820361179957565b359067ffffffffffffffff8216820361179957565b67ffffffffffffffff811161078657601f01601f191660200190565b9181601f840112156117995782359167ffffffffffffffff83116117995760208085019460c0850201011161179957565b15612e5657565b608460405162461bcd60e51b815260206004820152602e60248201527f4f6e6c7920696e76697369626c6520636f6e74726163742063616e2063616c6c60448201527f20746869732066756e6374696f6e0000000000000000000000000000000000006064820152fd5b805115612ecd5760200190565b634e487b7160e01b600052603260045260246000fd5b8051821015612ecd5760209160051b010190565b91909167ffffffffffffffff80809416911601918211612f1357565b634e487b7160e01b600052601160045260246000fd5b818110612f34575050565b60008155600101612f29565b600090818155816001820155612f6b60066004830192612f638460028301612f29565b018092612f29565b55565b60243563ffffffff811681036117995790565b60443563ffffffff811681036117995790565b3563ffffffff811681036117995790565b90816020910312611799575180151581036117995790565b15612fc457565b606460405162461bcd60e51b815260206004820152601360248201527f6e756d626572206e6f7420696e2072616e6765000000000000000000000000006044820152fd5b63ffffffff809116908114612f135760010190565b6004359067ffffffffffffffff9182811680910361179957815260243563ffffffff908181168091036117995760208301526044359081168091036117995760408201526064356060820152608435608082015260a43560a082015260c4358281168091036117995760c082015260e4359182168092036117995760e00152565b3567ffffffffffffffff811681036117995790565b6101e4359067ffffffffffffffff918281168091036117995781526102043563ffffffff908181168091036117995760208301526102243560408301526102443580151580910361179957606083015261026435818116809103611799576080830152610284358381168091036117995760a08301526102a4358015158091036117995760c08301526102c4358381168091036117995760e08301526102e43583811680910361179957610100830152610304358381168091036117995761012083015261032435838116809103611799576101408301526103443583811680910361179957610160830152610364359081168091036117995761018082015261038435918216809203611799576101a00152565b6004359067ffffffffffffffff9182811680910361179957815260243563ffffffff90818116809103611799576020830152604435604083015260643580151580910361179957606083015260843581811680910361179957608083015260a4358381168091036117995760a083015260c4358015158091036117995760c083015260e4358381168091036117995760e0830152610104358381168091036117995761010083015261012435838116809103611799576101208301526101443583811680910361179957610140830152610164358381168091036117995761016083015261018435908116809103611799576101808201526101a435918216809203611799576101a00152565b60a0809167ffffffffffffffff806132ec83612ded565b168552602082013560208601526040820135604086015263ffffffff61331460608401612dc4565b16606086015261332660808301612ded565b1660808501520135910152565b67ffffffffffffffff91906101608083018461334e84612ded565b16845263ffffffff61336260208501612dc4565b1660208501526040830135601e1984360301811215611799578301916020833593019583116117995760c09160c084023603871361179957839293916040870152526101808401949160005b8281106133eb57505050506133c960608301606083016132d5565b6101208082013590830152610140809101359182151580930361179957015290565b909192958280826133fe6001948b6132d5565b019701939291016133ae565b9190811015612ecd5760c0020190565b602090602060408183019282815285518094520193019160005b828110613442575050505090565b835185529381019392810192600101613434565b9061346081612d86565b906040906134716040519384612d64565b80835261347d81612d86565b602094859391601f190136868601376005546001600160a01b03169260005b8181106135145750505050916134c7926040518080958194634eeb4f3560e11b83526004830161341a565b03915afa918215613508576000926134de57505090565b90809250813d8311613501575b6134f58183612d64565b81010312611799575190565b503d6134eb565b6040513d6000823e3d90fd5b90919293945061352581838561340a565b6135588551917f071ecaad00000000000000000000000000000000000000000000000000000000835260048301906132d5565b878160c481895afa9081156135b95760009161358b575b509060019161357e8289612ee3565b520190869493929161349c565b908882813d83116135b2575b6135a18183612d64565b810103126104be575051600161356f565b503d613597565b85513d6000823e3d90fd5b6040805193949390929167ffffffffffffffff60a0830181811184821017610786578552600496878452602094608036878701376001600160a01b03928360055416948851633643eae560e11b81528b35838116809103611799578c82015260243563ffffffff90818116809103611799576024830152604435604483015260643580151580910361179957606483015260843581811680910361179957608483015260a4358481168091036117995760a483015260c4358015158091036117995760c483015260e4358481168091036117995760e4830152610104803590858216809203611799578301526101248035908582168092036117995783015261014480359085821680920361179957830152610164803590858216809203611799578301526101848035918216809203611799578201526101a48035908482168092036117995782015288816101c4818a5afa908115613811576000916137e4575b5061373088612ec0565b528651600110156137cf5716878601528451600210156137ba5760608501528351600310156137a55796849392916137839697981660808401528651809681948293634eeb4f3560e11b8452830161341a565b03915afa92831561379b57506000926134de57505090565b513d6000823e3d90fd5b603288634e487b7160e01b6000525260246000fd5b603289634e487b7160e01b6000525260246000fd5b60328b634e487b7160e01b6000525260246000fd5b90508881813d831161380a575b6137fb8183612d64565b81010312611799575138613726565b503d6137f1565b8a513d6000823e3d90fd5b6040906040519161382c83612d0f565b60018352829160005b60208082101561387e5783516020929161384e82612d2b565b600082526000818301526000868301526000606083015260006080830152600060a0830152828801015201613835565b505091925050565b90815180825260208080930193019160005b8281106138a6575050505090565b909192938260c0826138ff600194895160a0809167ffffffffffffffff808251168552602082015160208601526040820151604086015263ffffffff606083015116606086015260808201511660808501520151910152565b01950193929101613898565b6000915b6002831061391c57505050565b60019082518152602080910192019201919061390f565b6001600160a01b038091169081156139a0577f9016d09d72d40fdae2fd8ceac6b6234c7706214fd39c1cd1e609a0528c199300805490836001600160a01b03198316179055167f8be0079c531659141344cd1fd0a4f28419497f9722a3daafe3b4186f6b6457e0600080a3565b60246040517f1e4fbdf700000000000000000000000000000000000000000000000000000000815260006004820152fd5b6001600160a01b037f9016d09d72d40fdae2fd8ceac6b6234c7706214fd39c1cd1e609a0528c19930054163303613a0457565b60246040517f118cdaa7000000000000000000000000000000000000000000000000000000008152336004820152fd5b903590601e1981360301821215611799570180359067ffffffffffffffff8211611799576020019160c082023603831361179957565b15613a7157565b606460405162461bcd60e51b815260206004820152601d60248201527f496e76616c696420636f6c6c61746572616c206e6f746520746f6b656e0000006044820152fd5b60ff7ff0c57e16840df040f15088dc2f81fe391c3923bec73e23a9662efc9c229c6a005460401c1615613ae457565b60046040517fd7e6bcf8000000000000000000000000000000000000000000000000000000008152fd5b90613b4d5750805115613b2357805190602001fd5b60046040517f1425ea42000000000000000000000000000000000000000000000000000000008152fd5b81511580613b98575b613b5e575090565b6024906001600160a01b03604051917f9996b315000000000000000000000000000000000000000000000000000000008352166004820152fd5b50803b15613b5656fea26469706673582212208a9901ea4e592267f337c030f4723e098358c6c07fd63fc8388e495df1490b1964736f6c63430008160033",
  "linkReferences": {},
  "deployedLinkReferences": {}
}