{
  "_format": "hh-sol-artifact-1",
  "contractName": "InvisibleV2",
  "sourceName": "src/InvisibleV2.sol",
  "abi": [
    {
      "inputs": [
        {
          "internalType": "address",
          "name": "target",
          "type": "address"
        }
      ],
      "name": "AddressEmptyCode",
      "type": "error"
    },
    {
      "inputs": [
        {
          "internalType": "address",
          "name": "implementation",
          "type": "address"
        }
      ],
      "name": "ERC1967InvalidImplementation",
      "type": "error"
    },
    {
      "inputs": [],
      "name": "ERC1967NonPayable",
      "type": "error"
    },
    {
      "inputs": [],
      "name": "FailedInnerCall",
      "type": "error"
    },
    {
      "inputs": [],
      "name": "InvalidInitialization",
      "type": "error"
    },
    {
      "inputs": [],
      "name": "NotInitializing",
      "type": "error"
    },
    {
      "inputs": [
        {
          "internalType": "address",
          "name": "owner",
          "type": "address"
        }
      ],
      "name": "OwnableInvalidOwner",
      "type": "error"
    },
    {
      "inputs": [
        {
          "internalType": "address",
          "name": "account",
          "type": "address"
        }
      ],
      "name": "OwnableUnauthorizedAccount",
      "type": "error"
    },
    {
      "inputs": [],
      "name": "ReentrancyGuardReentrantCall",
      "type": "error"
    },
    {
      "inputs": [],
      "name": "UUPSUnauthorizedCallContext",
      "type": "error"
    },
    {
      "inputs": [
        {
          "internalType": "bytes32",
          "name": "slot",
          "type": "bytes32"
        }
      ],
      "name": "UUPSUnsupportedProxiableUUID",
      "type": "error"
    },
    {
      "anonymous": false,
      "inputs": [
        {
          "indexed": false,
          "internalType": "address",
          "name": "depositor",
          "type": "address"
        },
        {
          "indexed": false,
          "internalType": "uint256",
          "name": "mmPositionAddress",
          "type": "uint256"
        },
        {
          "indexed": false,
          "internalType": "uint64",
          "name": "usdcAmount",
          "type": "uint64"
        },
        {
          "indexed": true,
          "internalType": "uint32",
          "name": "mmActionId",
          "type": "uint32"
        }
      ],
      "name": "AddLiquidity",
      "type": "event"
    },
    {
      "anonymous": false,
      "inputs": [
        {
          "indexed": false,
          "internalType": "uint256",
          "name": "positionAddress",
          "type": "uint256"
        },
        {
          "indexed": false,
          "internalType": "address",
          "name": "mmOwner",
          "type": "address"
        },
        {
          "indexed": false,
          "internalType": "uint64",
          "name": "initialValueSum",
          "type": "uint64"
        },
        {
          "indexed": false,
          "internalType": "uint64",
          "name": "vlpAmountSum",
          "type": "uint64"
        },
        {
          "indexed": true,
          "internalType": "uint32",
          "name": "mmActionId",
          "type": "uint32"
        }
      ],
      "name": "ClosePositionEvent",
      "type": "event"
    },
    {
      "anonymous": false,
      "inputs": [
        {
          "indexed": false,
          "internalType": "uint256",
          "name": "pubKey",
          "type": "uint256"
        },
        {
          "indexed": false,
          "internalType": "address",
          "name": "tokenAddress",
          "type": "address"
        },
        {
          "indexed": false,
          "internalType": "uint256",
          "name": "timestamp",
          "type": "uint256"
        }
      ],
      "name": "DepositCancelEvent",
      "type": "event"
    },
    {
      "anonymous": false,
      "inputs": [
        {
          "indexed": false,
          "internalType": "uint64",
          "name": "depositId",
          "type": "uint64"
        },
        {
          "indexed": false,
          "internalType": "uint256",
          "name": "pubKey",
          "type": "uint256"
        },
        {
          "indexed": false,
          "internalType": "uint32",
          "name": "tokenId",
          "type": "uint32"
        },
        {
          "indexed": false,
          "internalType": "uint64",
          "name": "depositAmountScaled",
          "type": "uint64"
        },
        {
          "indexed": false,
          "internalType": "uint256",
          "name": "timestamp",
          "type": "uint256"
        }
      ],
      "name": "DepositEvent",
      "type": "event"
    },
    {
      "anonymous": false,
      "inputs": [
        {
          "indexed": false,
          "internalType": "uint64",
          "name": "version",
          "type": "uint64"
        }
      ],
      "name": "Initialized",
      "type": "event"
    },
    {
      "anonymous": false,
      "inputs": [
        {
          "indexed": false,
          "internalType": "address",
          "name": "tokenAddress",
          "type": "address"
        },
        {
          "indexed": false,
          "internalType": "uint32",
          "name": "tokenId",
          "type": "uint32"
        },
        {
          "indexed": false,
          "internalType": "uint8",
          "name": "scaleFactor",
          "type": "uint8"
        }
      ],
      "name": "NewTokenRegisteredEvent",
      "type": "event"
    },
    {
      "anonymous": false,
      "inputs": [
        {
          "indexed": true,
          "internalType": "address",
          "name": "previousOwner",
          "type": "address"
        },
        {
          "indexed": true,
          "internalType": "address",
          "name": "newOwner",
          "type": "address"
        }
      ],
      "name": "OwnershipTransferred",
      "type": "event"
    },
    {
      "anonymous": false,
      "inputs": [
        {
          "indexed": false,
          "internalType": "address",
          "name": "depositor",
          "type": "address"
        },
        {
          "indexed": false,
          "internalType": "uint256",
          "name": "mmPositionAddress",
          "type": "uint256"
        },
        {
          "indexed": false,
          "internalType": "uint64",
          "name": "initialValue",
          "type": "uint64"
        },
        {
          "indexed": false,
          "internalType": "uint64",
          "name": "vlpAmount",
          "type": "uint64"
        },
        {
          "indexed": true,
          "internalType": "uint32",
          "name": "mmActionId",
          "type": "uint32"
        }
      ],
      "name": "RemoveLiquidity",
      "type": "event"
    },
    {
      "anonymous": false,
      "inputs": [
        {
          "indexed": false,
          "internalType": "uint256",
          "name": "timestamp",
          "type": "uint256"
        },
        {
          "indexed": false,
          "internalType": "uint64",
          "name": "txBatchId",
          "type": "uint64"
        }
      ],
      "name": "StoredNewWithdrawalsEvent",
      "type": "event"
    },
    {
      "anonymous": false,
      "inputs": [
        {
          "indexed": false,
          "internalType": "uint256",
          "name": "timestamp",
          "type": "uint256"
        },
        {
          "indexed": false,
          "internalType": "uint64",
          "name": "txBatchId",
          "type": "uint64"
        }
      ],
      "name": "UpdatedPendingDepositsEvent",
      "type": "event"
    },
    {
      "anonymous": false,
      "inputs": [
        {
          "indexed": true,
          "internalType": "address",
          "name": "implementation",
          "type": "address"
        }
      ],
      "name": "Upgraded",
      "type": "event"
    },
    {
      "anonymous": false,
      "inputs": [
        {
          "indexed": false,
          "internalType": "address",
          "name": "tokenAddress",
          "type": "address"
        }
      ],
      "name": "VaultRegisteredEvent",
      "type": "event"
    },
    {
      "anonymous": false,
      "inputs": [
        {
          "indexed": false,
          "internalType": "address",
          "name": "withdrawer",
          "type": "address"
        },
        {
          "indexed": false,
          "internalType": "address",
          "name": "tokenAddress",
          "type": "address"
        },
        {
          "indexed": false,
          "internalType": "uint256",
          "name": "withdrawalAmount",
          "type": "uint256"
        },
        {
          "indexed": false,
          "internalType": "uint256",
          "name": "timestamp",
          "type": "uint256"
        }
      ],
      "name": "WithdrawalEvent",
      "type": "event"
    },
    {
      "anonymous": false,
      "inputs": [
        {
          "indexed": false,
          "internalType": "address",
          "name": "mmOwner",
          "type": "address"
        },
        {
          "indexed": false,
          "internalType": "uint32",
          "name": "syntheticAsset",
          "type": "uint32"
        },
        {
          "indexed": false,
          "internalType": "uint256",
          "name": "positionAddress",
          "type": "uint256"
        },
        {
          "indexed": false,
          "internalType": "uint64",
          "name": "maxVlpSupply",
          "type": "uint64"
        },
        {
          "indexed": false,
          "internalType": "uint32",
          "name": "vlpTokenId",
          "type": "uint32"
        },
        {
          "indexed": true,
          "internalType": "uint32",
          "name": "mmActionId",
          "type": "uint32"
        }
      ],
      "name": "newPerpMMRegistration",
      "type": "event"
    },
    {
      "inputs": [],
      "name": "CALLBACK_SUCCESS",
      "outputs": [
        {
          "internalType": "bytes32",
          "name": "",
          "type": "bytes32"
        }
      ],
      "stateMutability": "view",
      "type": "function"
    },
    {
      "inputs": [],
      "name": "ETH_ID",
      "outputs": [
        {
          "internalType": "uint32",
          "name": "",
          "type": "uint32"
        }
      ],
      "stateMutability": "view",
      "type": "function"
    },
    {
      "inputs": [],
      "name": "UPGRADE_INTERFACE_VERSION",
      "outputs": [
        {
          "internalType": "string",
          "name": "",
          "type": "string"
        }
      ],
      "stateMutability": "view",
      "type": "function"
    },
    {
      "inputs": [
        {
          "internalType": "uint256",
          "name": "",
          "type": "uint256"
        }
      ],
      "name": "addresses",
      "outputs": [
        {
          "internalType": "address",
          "name": "",
          "type": "address"
        }
      ],
      "stateMutability": "view",
      "type": "function"
    },
    {
      "inputs": [
        {
          "internalType": "address",
          "name": "mmOwner",
          "type": "address"
        },
        {
          "internalType": "uint256",
          "name": "tabPosAddress",
          "type": "uint256"
        }
      ],
      "name": "approveMMRegistration",
      "outputs": [],
      "stateMutability": "nonpayable",
      "type": "function"
    },
    {
      "inputs": [
        {
          "internalType": "address",
          "name": "token",
          "type": "address"
        }
      ],
      "name": "claimFailedWithdrawal",
      "outputs": [],
      "stateMutability": "nonpayable",
      "type": "function"
    },
    {
      "inputs": [
        {
          "internalType": "uint256",
          "name": "mmPositionAddress",
          "type": "uint256"
        }
      ],
      "name": "closePerpMarketMaker",
      "outputs": [],
      "stateMutability": "nonpayable",
      "type": "function"
    },
    {
      "inputs": [],
      "name": "escapeVerifier",
      "outputs": [
        {
          "internalType": "address",
          "name": "",
          "type": "address"
        }
      ],
      "stateMutability": "view",
      "type": "function"
    },
    {
      "inputs": [
        {
          "internalType": "address",
          "name": "tokenAddress",
          "type": "address"
        },
        {
          "internalType": "address payable",
          "name": "recipient",
          "type": "address"
        },
        {
          "internalType": "uint256",
          "name": "escapeAmount",
          "type": "uint256"
        }
      ],
      "name": "executeEscape",
      "outputs": [],
      "stateMutability": "nonpayable",
      "type": "function"
    },
    {
      "inputs": [],
      "name": "feePercent",
      "outputs": [
        {
          "internalType": "uint256",
          "name": "",
          "type": "uint256"
        }
      ],
      "stateMutability": "view",
      "type": "function"
    },
    {
      "inputs": [
        {
          "internalType": "address",
          "name": "token",
          "type": "address"
        },
        {
          "internalType": "uint256",
          "name": "amount",
          "type": "uint256"
        }
      ],
      "name": "flashFee",
      "outputs": [
        {
          "internalType": "uint256",
          "name": "",
          "type": "uint256"
        }
      ],
      "stateMutability": "pure",
      "type": "function"
    },
    {
      "inputs": [
        {
          "internalType": "contract IERC3156FlashBorrower",
          "name": "receiver",
          "type": "address"
        },
        {
          "internalType": "address",
          "name": "token",
          "type": "address"
        },
        {
          "internalType": "uint256",
          "name": "amount",
          "type": "uint256"
        },
        {
          "internalType": "bytes",
          "name": "data",
          "type": "bytes"
        }
      ],
      "name": "flashLoan",
      "outputs": [
        {
          "internalType": "bool",
          "name": "",
          "type": "bool"
        }
      ],
      "stateMutability": "nonpayable",
      "type": "function"
    },
    {
      "inputs": [
        {
          "internalType": "uint256",
          "name": "starkKey",
          "type": "uint256"
        },
        {
          "internalType": "address",
          "name": "tokenAddress",
          "type": "address"
        }
      ],
      "name": "getPendingDepositAmount",
      "outputs": [
        {
          "internalType": "uint256",
          "name": "",
          "type": "uint256"
        }
      ],
      "stateMutability": "view",
      "type": "function"
    },
    {
      "inputs": [
        {
          "internalType": "uint256",
          "name": "starkKey",
          "type": "uint256"
        }
      ],
      "name": "getPendingETHDepositAmount",
      "outputs": [
        {
          "internalType": "uint256",
          "name": "",
          "type": "uint256"
        }
      ],
      "stateMutability": "view",
      "type": "function"
    },
    {
      "inputs": [
        {
          "internalType": "uint32",
          "name": "tokenId",
          "type": "uint32"
        }
      ],
      "name": "getScaleFactor",
      "outputs": [
        {
          "internalType": "uint8",
          "name": "",
          "type": "uint8"
        }
      ],
      "stateMutability": "view",
      "type": "function"
    },
    {
      "inputs": [
        {
          "internalType": "uint32",
          "name": "tokenId",
          "type": "uint32"
        }
      ],
      "name": "getTokenAddress",
      "outputs": [
        {
          "internalType": "address",
          "name": "",
          "type": "address"
        }
      ],
      "stateMutability": "view",
      "type": "function"
    },
    {
      "inputs": [
        {
          "internalType": "address",
          "name": "tokenAddress",
          "type": "address"
        }
      ],
      "name": "getTokenId",
      "outputs": [
        {
          "internalType": "uint32",
          "name": "",
          "type": "uint32"
        }
      ],
      "stateMutability": "view",
      "type": "function"
    },
    {
      "inputs": [
        {
          "internalType": "address",
          "name": "tokenAddress",
          "type": "address"
        }
      ],
      "name": "getTokenPrice",
      "outputs": [
        {
          "internalType": "uint8",
          "name": "",
          "type": "uint8"
        },
        {
          "internalType": "uint256",
          "name": "",
          "type": "uint256"
        }
      ],
      "stateMutability": "view",
      "type": "function"
    },
    {
      "inputs": [
        {
          "internalType": "address",
          "name": "initialOwner",
          "type": "address"
        }
      ],
      "name": "initialize",
      "outputs": [],
      "stateMutability": "nonpayable",
      "type": "function"
    },
    {
      "inputs": [
        {
          "internalType": "uint256",
          "name": "mmAddress",
          "type": "uint256"
        }
      ],
      "name": "isAddressRegistered",
      "outputs": [
        {
          "internalType": "bool",
          "name": "",
          "type": "bool"
        }
      ],
      "stateMutability": "view",
      "type": "function"
    },
    {
      "inputs": [
        {
          "internalType": "uint32",
          "name": "syntheticAsset",
          "type": "uint32"
        }
      ],
      "name": "isMarketRegistered",
      "outputs": [
        {
          "internalType": "bool",
          "name": "",
          "type": "bool"
        }
      ],
      "stateMutability": "view",
      "type": "function"
    },
    {
      "inputs": [
        {
          "internalType": "uint32",
          "name": "tokenId",
          "type": "uint32"
        }
      ],
      "name": "isTokenRegistered",
      "outputs": [
        {
          "internalType": "bool",
          "name": "",
          "type": "bool"
        }
      ],
      "stateMutability": "view",
      "type": "function"
    },
    {
      "inputs": [
        {
          "internalType": "address",
          "name": "tokenAddress",
          "type": "address"
        }
      ],
      "name": "isVaultRegistered",
      "outputs": [
        {
          "internalType": "bool",
          "name": "",
          "type": "bool"
        }
      ],
      "stateMutability": "view",
      "type": "function"
    },
    {
      "inputs": [
        {
          "internalType": "address",
          "name": "tokenAddress",
          "type": "address"
        },
        {
          "internalType": "uint256",
          "name": "amount",
          "type": "uint256"
        },
        {
          "internalType": "uint256",
          "name": "starkKey",
          "type": "uint256"
        }
      ],
      "name": "makeDeposit",
      "outputs": [
        {
          "internalType": "uint64",
          "name": "newAmountDeposited",
          "type": "uint64"
        }
      ],
      "stateMutability": "payable",
      "type": "function"
    },
    {
      "inputs": [
        {
          "internalType": "address",
          "name": "token",
          "type": "address"
        }
      ],
      "name": "maxFlashLoan",
      "outputs": [
        {
          "internalType": "uint256",
          "name": "",
          "type": "uint256"
        }
      ],
      "stateMutability": "view",
      "type": "function"
    },
    {
      "inputs": [],
      "name": "owner",
      "outputs": [
        {
          "internalType": "address",
          "name": "",
          "type": "address"
        }
      ],
      "stateMutability": "view",
      "type": "function"
    },
    {
      "inputs": [
        {
          "internalType": "uint32",
          "name": "syntheticToken",
          "type": "uint32"
        },
        {
          "internalType": "uint256",
          "name": "mmPositionAddress",
          "type": "uint256"
        },
        {
          "internalType": "uint256",
          "name": "usdcAmount",
          "type": "uint256"
        }
      ],
      "name": "provideLiquidity",
      "outputs": [],
      "stateMutability": "nonpayable",
      "type": "function"
    },
    {
      "inputs": [],
      "name": "proxiableUUID",
      "outputs": [
        {
          "internalType": "bytes32",
          "name": "",
          "type": "bytes32"
        }
      ],
      "stateMutability": "view",
      "type": "function"
    },
    {
      "inputs": [
        {
          "internalType": "uint32[]",
          "name": "syntheticAssets",
          "type": "uint32[]"
        }
      ],
      "name": "registerNewMarkets",
      "outputs": [],
      "stateMutability": "nonpayable",
      "type": "function"
    },
    {
      "inputs": [
        {
          "internalType": "uint32",
          "name": "syntheticAsset",
          "type": "uint32"
        },
        {
          "internalType": "uint256",
          "name": "positionAddress",
          "type": "uint256"
        },
        {
          "internalType": "uint64",
          "name": "maxVlpSupply",
          "type": "uint64"
        }
      ],
      "name": "registerPerpMarketMaker",
      "outputs": [],
      "stateMutability": "nonpayable",
      "type": "function"
    },
    {
      "inputs": [
        {
          "internalType": "address",
          "name": "tokenAddress",
          "type": "address"
        },
        {
          "internalType": "uint32",
          "name": "tokenId",
          "type": "uint32"
        },
        {
          "internalType": "uint8",
          "name": "offchainDecimals",
          "type": "uint8"
        }
      ],
      "name": "registerToken",
      "outputs": [],
      "stateMutability": "nonpayable",
      "type": "function"
    },
    {
      "inputs": [
        {
          "internalType": "uint32",
          "name": "syntheticToken",
          "type": "uint32"
        },
        {
          "internalType": "uint256",
          "name": "mmPositionAddress",
          "type": "uint256"
        }
      ],
      "name": "removeLiquidity",
      "outputs": [],
      "stateMutability": "nonpayable",
      "type": "function"
    },
    {
      "inputs": [],
      "name": "renounceOwnership",
      "outputs": [],
      "stateMutability": "nonpayable",
      "type": "function"
    },
    {
      "inputs": [
        {
          "internalType": "uint64",
          "name": "",
          "type": "uint64"
        }
      ],
      "name": "s_accumulatedHashesRelayed",
      "outputs": [
        {
          "internalType": "bool",
          "name": "",
          "type": "bool"
        }
      ],
      "stateMutability": "view",
      "type": "function"
    },
    {
      "inputs": [
        {
          "internalType": "address",
          "name": "",
          "type": "address"
        },
        {
          "internalType": "uint256",
          "name": "",
          "type": "uint256"
        }
      ],
      "name": "s_activeLiqudity",
      "outputs": [
        {
          "internalType": "uint64",
          "name": "initialValue",
          "type": "uint64"
        },
        {
          "internalType": "uint64",
          "name": "vlpAmount",
          "type": "uint64"
        }
      ],
      "stateMutability": "view",
      "type": "function"
    },
    {
      "inputs": [
        {
          "internalType": "address",
          "name": "",
          "type": "address"
        },
        {
          "internalType": "uint256",
          "name": "",
          "type": "uint256"
        }
      ],
      "name": "s_approvedPerpMMs",
      "outputs": [
        {
          "internalType": "bool",
          "name": "",
          "type": "bool"
        }
      ],
      "stateMutability": "view",
      "type": "function"
    },
    {
      "inputs": [
        {
          "internalType": "address",
          "name": "",
          "type": "address"
        }
      ],
      "name": "s_clAggregators",
      "outputs": [
        {
          "internalType": "address",
          "name": "",
          "type": "address"
        }
      ],
      "stateMutability": "view",
      "type": "function"
    },
    {
      "inputs": [
        {
          "internalType": "uint256",
          "name": "",
          "type": "uint256"
        }
      ],
      "name": "s_closedPositionLiqudity",
      "outputs": [
        {
          "internalType": "uint64",
          "name": "vlpAmountSum",
          "type": "uint64"
        },
        {
          "internalType": "uint64",
          "name": "returnCollateral",
          "type": "uint64"
        }
      ],
      "stateMutability": "view",
      "type": "function"
    },
    {
      "inputs": [
        {
          "internalType": "address",
          "name": "",
          "type": "address"
        },
        {
          "internalType": "address",
          "name": "",
          "type": "address"
        }
      ],
      "name": "s_failedWithdrawals",
      "outputs": [
        {
          "internalType": "uint256",
          "name": "",
          "type": "uint256"
        }
      ],
      "stateMutability": "view",
      "type": "function"
    },
    {
      "inputs": [],
      "name": "s_gasFeeCollector",
      "outputs": [
        {
          "internalType": "address payable",
          "name": "",
          "type": "address"
        }
      ],
      "stateMutability": "view",
      "type": "function"
    },
    {
      "inputs": [
        {
          "internalType": "uint256",
          "name": "",
          "type": "uint256"
        },
        {
          "internalType": "uint32",
          "name": "",
          "type": "uint32"
        }
      ],
      "name": "s_pendingDeposits",
      "outputs": [
        {
          "internalType": "uint64",
          "name": "",
          "type": "uint64"
        }
      ],
      "stateMutability": "view",
      "type": "function"
    },
    {
      "inputs": [],
      "name": "s_pendingPerpMMCount",
      "outputs": [
        {
          "internalType": "uint32",
          "name": "",
          "type": "uint32"
        }
      ],
      "stateMutability": "view",
      "type": "function"
    },
    {
      "inputs": [
        {
          "internalType": "address",
          "name": "",
          "type": "address"
        }
      ],
      "name": "s_pendingWithdrawals",
      "outputs": [
        {
          "internalType": "uint256",
          "name": "",
          "type": "uint256"
        }
      ],
      "stateMutability": "view",
      "type": "function"
    },
    {
      "inputs": [
        {
          "internalType": "uint32",
          "name": "",
          "type": "uint32"
        }
      ],
      "name": "s_perpMarkets",
      "outputs": [
        {
          "internalType": "bool",
          "name": "",
          "type": "bool"
        }
      ],
      "stateMutability": "view",
      "type": "function"
    },
    {
      "inputs": [
        {
          "internalType": "uint256",
          "name": "",
          "type": "uint256"
        }
      ],
      "name": "s_perpRegistrations",
      "outputs": [
        {
          "internalType": "address",
          "name": "mmOwner",
          "type": "address"
        },
        {
          "internalType": "uint32",
          "name": "syntheticAsset",
          "type": "uint32"
        },
        {
          "internalType": "uint256",
          "name": "positionAddress",
          "type": "uint256"
        },
        {
          "internalType": "uint64",
          "name": "maxVlpSupply",
          "type": "uint64"
        },
        {
          "internalType": "uint32",
          "name": "vlpTokenId",
          "type": "uint32"
        },
        {
          "internalType": "uint64",
          "name": "vlpAmount",
          "type": "uint64"
        }
      ],
      "stateMutability": "view",
      "type": "function"
    },
    {
      "inputs": [
        {
          "internalType": "address",
          "name": "",
          "type": "address"
        }
      ],
      "name": "s_tokenAddress2Id",
      "outputs": [
        {
          "internalType": "uint32",
          "name": "",
          "type": "uint32"
        }
      ],
      "stateMutability": "view",
      "type": "function"
    },
    {
      "inputs": [
        {
          "internalType": "uint32",
          "name": "",
          "type": "uint32"
        }
      ],
      "name": "s_tokenId2Address",
      "outputs": [
        {
          "internalType": "address",
          "name": "",
          "type": "address"
        }
      ],
      "stateMutability": "view",
      "type": "function"
    },
    {
      "inputs": [
        {
          "internalType": "uint32",
          "name": "",
          "type": "uint32"
        }
      ],
      "name": "s_tokenId2ScaleFactor",
      "outputs": [
        {
          "internalType": "uint8",
          "name": "",
          "type": "uint8"
        }
      ],
      "stateMutability": "view",
      "type": "function"
    },
    {
      "inputs": [
        {
          "internalType": "uint32",
          "name": "",
          "type": "uint32"
        }
      ],
      "name": "s_tokenIdIsRegistered",
      "outputs": [
        {
          "internalType": "bool",
          "name": "",
          "type": "bool"
        }
      ],
      "stateMutability": "view",
      "type": "function"
    },
    {
      "inputs": [],
      "name": "s_txBatchId",
      "outputs": [
        {
          "internalType": "uint64",
          "name": "",
          "type": "uint64"
        }
      ],
      "stateMutability": "view",
      "type": "function"
    },
    {
      "inputs": [
        {
          "internalType": "uint64",
          "name": "",
          "type": "uint64"
        }
      ],
      "name": "s_txBatchId2StateRoot",
      "outputs": [
        {
          "internalType": "uint256",
          "name": "",
          "type": "uint256"
        }
      ],
      "stateMutability": "view",
      "type": "function"
    },
    {
      "inputs": [
        {
          "internalType": "uint64",
          "name": "",
          "type": "uint64"
        }
      ],
      "name": "s_txBatchId2Timestamp",
      "outputs": [
        {
          "internalType": "uint256",
          "name": "",
          "type": "uint256"
        }
      ],
      "stateMutability": "view",
      "type": "function"
    },
    {
      "inputs": [
        {
          "internalType": "uint256",
          "name": "amount",
          "type": "uint256"
        },
        {
          "internalType": "uint32",
          "name": "tokenId",
          "type": "uint32"
        }
      ],
      "name": "scaleDown",
      "outputs": [
        {
          "internalType": "uint64",
          "name": "amountScaled",
          "type": "uint64"
        }
      ],
      "stateMutability": "view",
      "type": "function"
    },
    {
      "inputs": [
        {
          "internalType": "uint64",
          "name": "amount",
          "type": "uint64"
        },
        {
          "internalType": "uint32",
          "name": "tokenId",
          "type": "uint32"
        }
      ],
      "name": "scaleUp",
      "outputs": [
        {
          "internalType": "uint256",
          "name": "amountScaled",
          "type": "uint256"
        }
      ],
      "stateMutability": "view",
      "type": "function"
    },
    {
      "inputs": [
        {
          "internalType": "address[]",
          "name": "tokenAddress",
          "type": "address[]"
        },
        {
          "internalType": "address[]",
          "name": "aggregatorAddresses",
          "type": "address[]"
        }
      ],
      "name": "setClAggregators",
      "outputs": [],
      "stateMutability": "nonpayable",
      "type": "function"
    },
    {
      "inputs": [
        {
          "internalType": "address",
          "name": "newVerirfier",
          "type": "address"
        }
      ],
      "name": "setEscapeVerifier",
      "outputs": [],
      "stateMutability": "nonpayable",
      "type": "function"
    },
    {
      "inputs": [
        {
          "internalType": "address",
          "name": "tokenAddress",
          "type": "address"
        },
        {
          "internalType": "uint256",
          "name": "starkKey",
          "type": "uint256"
        }
      ],
      "name": "startCancelDeposit",
      "outputs": [],
      "stateMutability": "nonpayable",
      "type": "function"
    },
    {
      "inputs": [
        {
          "internalType": "uint256",
          "name": "starkKey",
          "type": "uint256"
        }
      ],
      "name": "startCancelETHDeposit",
      "outputs": [],
      "stateMutability": "nonpayable",
      "type": "function"
    },
    {
      "inputs": [
        {
          "internalType": "uint8",
          "name": "option",
          "type": "uint8"
        }
      ],
      "name": "test",
      "outputs": [],
      "stateMutability": "nonpayable",
      "type": "function"
    },
    {
      "inputs": [
        {
          "internalType": "address",
          "name": "newOwner",
          "type": "address"
        }
      ],
      "name": "transferOwnership",
      "outputs": [],
      "stateMutability": "nonpayable",
      "type": "function"
    },
    {
      "inputs": [
        {
          "internalType": "uint256",
          "name": "mmPositionAddress",
          "type": "uint256"
        }
      ],
      "name": "tryCancelAddLiquidity",
      "outputs": [],
      "stateMutability": "nonpayable",
      "type": "function"
    },
    {
      "inputs": [
        {
          "internalType": "uint256[]",
          "name": "programOutput",
          "type": "uint256[]"
        }
      ],
      "name": "updateStateAfterTxBatch",
      "outputs": [],
      "stateMutability": "nonpayable",
      "type": "function"
    },
    {
      "inputs": [
        {
          "internalType": "address",
          "name": "newImplementation",
          "type": "address"
        },
        {
          "internalType": "bytes",
          "name": "data",
          "type": "bytes"
        }
      ],
      "name": "upgradeToAndCall",
      "outputs": [],
      "stateMutability": "payable",
      "type": "function"
    },
    {
      "inputs": [],
      "name": "version",
      "outputs": [
        {
          "internalType": "uint256",
          "name": "",
          "type": "uint256"
        }
      ],
      "stateMutability": "view",
      "type": "function"
    },
    {
      "inputs": [],
      "name": "withdrawalLiquidity",
      "outputs": [],
      "stateMutability": "nonpayable",
      "type": "function"
    }
  ],
  "bytecode": "0x60a0806040523461002b5730608052615e7590816200003182396080518181816138200152613b410152f35b600080fdfe61014080604052600436101561001457600080fd5b600061010052610100513560e01c90816301f079e3146145275750806305560c791461421c578063063f2ada1461415a578063091d46a91461411c578063105a88e3146140d9578063128bd6bf146107db5780631367fa8414614096578063149e7f4114613e0857806320fd1f1b146140585780632440fdc214613ff557806324e7cfa514613fa057806325e8eecb14613f21578063266a4f4114613ec75780632f68172214613e4857806335177a5c14613e085780633671a8f214613de357806343d105a714613d9e5780634e06213214613d4f5780634f1ef28614613ac2578063503318ea14613a835780635250e1681461389a57806352d1902d14613803578063543d7a19146137b457806354fd4d50146137945780635533bfbc1461375657806357be4544146136ff5780635cffe9de1461334b5780635f74a2da14610db5578063602555781461314d578063613255ab1461312a5780636cc76d62146131015780636d3ed747146130d5578063715018a61461305057806374a0b7ae14612eae5780637c504b3514612e885780637fd6f15c14612e685780638237e53814612e2b57806385bbadab14612cc55780638852668214612c8e5780638da5cb5b14612c4657806399bf596414612bd6578063aaab727514612bad578063ad3cb1cc14612b0b578063af694ca714612ac7578063b1a75c7214612a9a578063c4d66de81461295d578063d02641a01461292b578063d236c24714610df3578063d28ff48f14610db5578063d47d6b6614610348578063d9d98ce414610d8e578063deb6cecd14610d32578063e3564dd314610cd0578063e625a8ea14610caf578063e7273eeb14610c8b578063e9dfa0fe14610bb3578063edc27769146108c9578063edf26d9b1461086d578063efae44061461081f578063f1537686146107db578063f1820bdc1461050b578063f2fde38b14610445578063f340470b14610388578063f6f01b87146103485763fce4624d146102f357600080fd5b3461034157610100513660031901126103415761030e615162565b61031661505a565b60017f9b779b17422d0df92223018b32b4d1fa46e071723d6817e2486d003becc55f00556101005180f35b6101005180fd5b346103415760203660031901126103415763ffffffff61036661458c565b1661010051526013602052602060ff6040610100512054166040519015158152f35b34610341576040366003190112610341576001600160401b03600435818111610341576103b99036906004016146bd565b91602435908111610341576103d29036906004016146bd565b6103da6150a0565b610100515b8481106103ed576101005180f35b806104036103fe6001938888615036565b615046565b6104116103fe838688615036565b906001600160a01b03809116610100515260176020526040610100512091166001600160a01b0319825416179055016103df565b346103415760203660031901126103415761045e61454d565b6104666150a0565b6001600160a01b038091169081156104d8577f9016d09d72d40fdae2fd8ceac6b6234c7706214fd39c1cd1e609a0528c199300805490836001600160a01b03198316179055167f8be0079c531659141344cd1fd0a4f28419497f9722a3daafe3b4186f6b6457e0600080a36101005180f35b60246040517f1e4fbdf7000000000000000000000000000000000000000000000000000000008152610100516004820152fd5b34610341576020806003193601126103415760043560ff81168091036107d657806105c5575060a07f429602b012976e07ac9b27b6c1bac9791626550f52721f02a2523c88808ec7a0917a0499cceb47a74b59b2ee32548378da0a9f09b1a903be4d64d8d8ed6001600160401b039161059561058a8460125416614810565b846019541690614bf1565b926040519316835282015263d623f7fd6040820152620f424060608201526239e57e6080820152a15b6101005180f35b6001810361065357507ff3fad21df399baa618c576cd2c34e0a39241f96cde8ac1fbe066cb297636389c60a0620f42419263d623f7fd60405191732b2ea7ec7e366666772daaf496817c14b8c0ae7483528201527a0499cceb47a74b59b2ee32548378da0a9f09b1a903be4d64d8d8ed60408201526305f5e1006060820152620181cd6080820152a26105be565b600281036106ce57507faa43054738c0ccc1d25109def7436a8b764fbd8a5415e121d2a16c2f84d5a4b76060620f4242927a0499cceb47a74b59b2ee32548378da0a9f09b1a903be4d64d8d8ed60405191732b2ea7ec7e366666772daaf496817c14b8c0ae7483528201526305f5e1006040820152a26105be565b6003810361074f57507f596ee89944172f283ef762f313344c7e24443c63de4a42fafa46ff56254608b06080620f4243927a0499cceb47a74b59b2ee32548378da0a9f09b1a903be4d64d8d8ed60405191732b2ea7ec7e366666772daaf496817c14b8c0ae7483528201526305f5e1008060408301526060820152a26105be565b60041461075d575b506105be565b7ff0be4d45a4b0c97a58e137eb4e5f3ee1946352b0634474b7f181b1d9e00b4c4a6080620f424492732b2ea7ec7e366666772daaf496817c14b8c0ae74604051917a0499cceb47a74b59b2ee32548378da0a9f09b1a903be4d64d8d8ed83528201526305f5e1008060408301526060820152a280610757565b600080fd5b34610341576020366003190112610341576001600160a01b036107fc61454d565b1661010051526014602052602063ffffffff604061010051205416604051908152f35b3461034157602036600319011261034157610100805160043590526007602090815290516040908190205481516001600160401b03808316825291831c9091169281019290925290f35b0390f35b3461034157602036600319011261034157600435601154811015610341576001600160a01b03602091601161010051527f31ecc21a745e3968a04e9570e4425bc18fa8019c68028196b546d1669c200c68015416604051908152f35b34610341576060366003190112610341576108e261458c565b6001600160401b03602435604435828116908190036107d657336101005152602090600a825260406101005120836101005152825260ff60406101005120541615610b495763ffffffff809516908161010051526009835260ff60406101005120541615610b055760085493868516928761095c85615009565b1693620186a0851015610341577ff3fad21df399baa618c576cd2c34e0a39241f96cde8ac1fbe066cb297636389c9760a0978a61099b610ab694615009565b169063ffffffff191617600855604051906109b5826145e6565b33825287808301858152826002604086019589875260608101968b885260808201948d86528f600c908401976101005189528d6101005152526001600160a01b03604061010051209351167fffffffffffffffff00000000000000000000000000000000000000000000000077ffffffff00000000000000000000000000000000000000008554935160a01b16921617178255516001820155019451166bffffffff00000000000000008554925160401b16916bffffffffffffffffffffffff191617178355511673ffffffffffffffff0000000000000000000000001973ffffffffffffffff00000000000000000000000083549260601b169116179055565b6008549788861c169767ffffffff00000000610ad18a614872565b871b169067ffffffff0000000019161760085560405194338652850152604084015260608301526080820152a26101005180f35b6064836040519062461bcd60e51b82526004820152601a60248201527f50657270206d61726b657420646f6573206e6f742065786973740000000000006044820152fd5b6084826040519062461bcd60e51b82526004820152602d60248201527f4f6e6c7920617070726f7665642070657270206d61726b6574206d616b65727360448201527f2063616e207265676973746572000000000000000000000000000000000000006064820152fd5b3461034157602080600319360112610341576004356001600160401b038111610341573660238201121561034157806004013590610bf0826146ed565b91610bfe6040519384614681565b8083526024602084019160051b8301019136831161034157602401905b828210610c6f57505050610c2d6150a0565b610100515b81518110156105be578063ffffffff610c4d60019385614ff5565b5116610100515260098452604061010051208260ff1982541617905501610c32565b813563ffffffff811681036107d6578152908401908401610c1b565b3461034157602036600319011261034157610ca4615162565b610316600435615530565b346103415761010051366003190112610341576020604051631b0bc2a88152f35b34610341576040366003190112610341576001600160a01b03610cf161454d565b610cf96150a0565b166101005152600a60205260406101005120602435610100515260205260406101005120600160ff198254161790556101005161010051f35b34610341576020366003190112610341576000805260146020526020610d8663ffffffff604060002054166004356000526018835260406000208160005283526001600160401b0360406000205416614da7565b604051908152f35b3461034157604036600319011261034157610da761454d565b506020610d86602435615453565b346103415760203660031901126103415763ffffffff610dd361458c565b1661010051526016602052602060ff604061010051205416604051908152f35b34610341576020366003190112610341576004356001600160401b03811161034157610e239036906004016146bd565b610e2b6150a0565b610e33615162565b610e3b615873565b508060041161034157610e4c615873565b5060405190610e5a82614601565b60408381013563ffffffff81811685528535602080870191909152808701358685015282841c60ff1660608088019190915292811c909116608086015290850135605081901c61ffff90811660a087015281841c811660c0870152603082901c811660e08701529181901c821661010086015280821661012086015260101c1661014084015251610eea816145e6565b61010051815261010051602082015261010051604082015261010051606082015261010051608082015260a0610100519101526003198101156129115760405192610f34846145e6565b63ffffffff608082810135608881901c8316875260ff81831c16602080890191909152606082811c85166040808b0182905284901c8616918a01919091529082901c841692880192909252821660a08701526003029081160361170f5763ffffffff8080608084013560601c16600302166001011161170f5763ffffffff606085015116600502918263ffffffff81160361170f57611005610ff463ffffffff611030951663ffffffff80608087013560601c166003021660010161501e565b63ffffffff6080880151169061501e565b91608063ffffffff6110236003198501958260a08b0151169061501e565b16926003190191016158c6565b9063ffffffff6110458160a0870151166158e1565b1682811161034157611059600382046146ed565b906110676040519283614681565b60038104808352601f199061107b906146ed565b01610100515b8181106128fa575050610100515b81811061285c575050508163ffffffff6110b28160a06110b997980151166158e1565b16916158c6565b6110ca61ffff60a0850151166158f9565b918161ffff841611610341576110e6617fff8460011c166146ed565b926110f46040519485614681565b600181901c617fff16808552601f199061110d906146ed565b01610100515b818110612833575050610100515b61ffff821681106127b157505090611146918161ffff6110b28160a0890151166158f9565b9061115861ffff60c0860151166158f9565b8261ffff82161161034157611184611176617fff8360011c166146ed565b60405160c05260c051614681565b617fff8160011c1660c05152601f196111a3617fff8360011c166146ed565b01610100515b818110612786575050610100515b61ffff821681106126f7575050906111dc918161ffff6110b28160c0890151166158f9565b61ffff6111ee8160e087015116615910565b16908082116103415761010051928392839081805b82811061264f575061121a63ffffffff8216615b46565b6101205261122d63ffffffff8816615b46565b9661123d63ffffffff8816615b46565b9661124d63ffffffff8616615b46565b60a05261010051925b8484106124ce575050505050509061127b918161ffff6110b28160e08b015116615910565b6112a361129e61ffff6101008996959601511661ffff6101408a0151169061593d565b615926565b928161ffff851611610341576112bf613fff8560021c166146ed565b936112cd6040519586614681565b600281901c613fff168086526112e2906146ed565b610100515b601f1982018110612493575050610100515b61ffff821681106123ca5750509061132c918161ffff6110b261129e8b836101408161010084015116920151169061593d565b9390600661ffff6101208901511602948561ffff81160361170f5761ffff86161161034157611361600661ffff8716046146ed565b9461136f6040519687614681565b600661ffff821604808752611383906146ed565b610100515b601f1982018110612374575050610100515b61ffff8216811061223b575050506001600160401b03865116956001600160401b03601c54168097036121f7576020810151876101005152601d6020526040610100512054036121b35763ffffffff60808201511642111561216f57610100515b86518110156115215761140e8188614ff5565b5190602082519201519182610100515260186020526040610100512063ffffffff8260401c1661010051526020526001600160401b0381166001600160401b03604061010051205416106114b757600192610100515260186020526040610100512063ffffffff8260401c16610100515260205260406101005120906001600160401b036114a28184549316828416614859565b16906001600160401b031916179055016113fb565b608460405162461bcd60e51b815260206004820152602860248201527f416e20696e76616c6964206465706f736974207761732065786563757465642060448201527f6f6666636861696e0000000000000000000000000000000000000000000000006064820152fd5b50604080514281526001600160401b03891660208201527fe73055b4c53403597e4db3f0eb4dd4ca358a3d2cdf10ce573b8ec0d7a057ea0b9190a1611564615bac565b601c546101005160808190526012546001600160401b0390811660e052909691169486949091855b60c05151811015611845576115a38160c051614ff5565b516001600160a01b036020825192015116906001600160401b0381161561183b5763ffffffff8160601c1660e0510361183b5763ffffffff891663ffffffff8260401c16036116ca575b9061160e826001600160401b0363ffffffff6001969560401c169116614da7565b906001600160a01b0360805116801560001461167757506116308c8383615ce4565b1561163f575b50505b0161158c565b6101005152601b6020526040610100512061010051610100515260205261166e6040610100512091825461484c565b90558a80611636565b906116868d84836080516159ed565b15611694575b505050611639565b6101005152601b602052604061010051209061010051526020526116c06040610100512091825461484c565b90558a808061168c565b995060408a901c63ffffffff16975090631b0bc2a88803611729576101005160805261520891823a8102043a0361170f5761160e6001933a029b5b91929350506115ed565b634e487b7160e01b61010051526011600452602461010051fd5b63ffffffff8a60401c16610100515260156020526001600160a01b036040610100512054166080526201388091823a8102043a0361170f5761176c608051614f63565b9093611776614e56565b9190926040519063313ce56760e01b82526020826004816080515afa91821561182d5761010051926117fc575b5060ff8086166012011161170f576117ea6117e46117f6956117dc60019b6117d76117f09760ff61160e9c1660120161514e565b61514e565b953a02614d40565b93614d2f565b90614d40565b90614dcb565b9b611705565b61181f91925060203d602011611826575b6118178183614681565b810190614e3d565b90386117a3565b503d61180d565b6040513d61010051823e3d90fd5b5050600190611639565b50604080514281526001600160401b03891660208201527f32bf24d8be330e07624f644b504559770580e270aaa9f5228fb5aea491b689849190a1610100515b610120515181101561195f57806118a160019261012051614ff5565b5160408101519051806101005152600c60205260406101005120600281019182549163ffffffff8560881c1663ffffffff8460401c16149283611944575b5082611937575b50506118f5575b505001611885565b805473ffffffffffffffff000000000000000000000000191660589290921b73ffffffffffffffff0000000000000000000000001691909117905587806118ed565b8601541490508a806118e6565b9092506001600160401b03808660481c16911614918c6118df565b508493610100515b8551811015611b03578061197d60019288614ff5565b5160408101516001600160401b03808260481c169160081c16906001600160a01b03602084015116925190836101005152610100516020526040610100512082610100515260205260406101005120938454946001600160401b036119e486828916614859565b166001600160401b0319809716179055806101005152600260205260406101005120836101005152602052604061010051208054866001600160401b03611a2d86828516614bf1565b1691161790556101005152600260205260406101005120826101005152602052611a9f60406101005120611a6e856001600160401b03835460401c16614bf1565b6fffffffffffffffff0000000000000000196fffffffffffffffff000000000000000083549260401b169116179055565b81610100515260036020526040610100512090846001600160401b03611ac9845493828516614bf1565b1691161790556101005152600460205260406101005120916001600160401b03611af7845493828516614bf1565b16911617905501611967565b5083600154805b61205f5750610100515b8451811015611cb35780611b2a60019287614ff5565b51611c83611c7e60408301516001600160401b038160881c16906001600160401b03808260481c169160081c16906001600160a01b0392836020880151169651918761010051526002602052604061010051208361010051526020526040610100512090611bc0825492611a6e836001600160401b0380611bad89828a16614859565b1681198098161780855560401c16614859565b8361010051526003602052604061010051208054836001600160401b03611be987828516614859565b169116179055836101005152600460205260406101005120916001600160401b03611c18845493828516614859565b16911617905580831115611ca8576001600160401b03611c3a60059285614859565b1604925b611c4784614d53565b916101005152600c60205260406101005120541661010051526006602052611c776040610100512091825461484c565b9055614859565b614d53565b9061010051526006602052611ca06040610100512091825461484c565b905501611b14565b506101005192611c3e565b5082610100515b60a05151811015611e055780611df4611cd760019360a051614ff5565b516001600160401b03604082015191818360881c16611d87838560081c16925192836101005152600360205260406101005120928519938481541690556004602052604061010051208481541690556101005150808211600014611dfa5785611d4260059284614859565b1604905b611d4f82614d53565b856101005152600c6020526001600160a01b0360406101005120541661010051526006602052611c776040610100512091825461484c565b918360405195611d96876145b5565b60481c1685528360208601931683526101005152600760205282604061010051209451169084541617835551166fffffffffffffffff0000000000000000196fffffffffffffffff000000000000000083549260401b169116179055565b01611cba565b506101005190611d46565b50906001600160a01b036021541690813b156103415760405180927f52fa4c5300000000000000000000000000000000000000000000000000000000825260248201602060048401528351809152602060448401940190610100515b8181106120235750505081806101005194039161010051905af1801561182d57612014575b506001600160a01b036021541690813b156103415760405180927f1ac8bd1800000000000000000000000000000000000000000000000000000000825260248201602060048401528351809152602060448401940190610100515b818110611fb15750505081806101005194039161010051905af1801561182d57611f9a575b50601c549060406001600160401b03611f20818516614bd9565b1691826001600160401b0319851617601c550151916101005116176101005152601d60205260406101005120556001600160401b03601c54166101005152601e60205242604061010051205560017f9b779b17422d0df92223018b32b4d1fa46e071723d6817e2486d003becc55f00556101005161010051f35b611fa39061466e565b610100516103415781611f06565b919460019193945060e060209160c08851805183526001600160a01b0385820151168584015260408101516040840152606081015160608401526080810151608084015260a081015160a0840152015160c0820152019501910191859392611ee1565b61201d9061466e565b82611e86565b91946001919394506080602091606088518051835284810151858401526040810151604084015201516060820152019501910191859392611e61565b8060001981011161170f576120776000198201614775565b5060405190612085826145b5565b6001600160a01b0390600182825416918285520154906020840191825261010051526101005160205260406101005120905161010051526020526120d86001600160401b03604061010051205416614d53565b915116610100515260066020526120f76040610100512091825461484c565b905560015480156121555761210f6000198201614775565b6121395761010051815560016101005191015560001901600155801561170f576000190180611b0a565b634e487b7160e01b610100515261010051600452602461010051fd5b634e487b7160e01b61010051526031600452602461010051fd5b606460405162461bcd60e51b815260206004820152601c60248201527f496e76616c69642065787069726174696f6e2074696d657374616d70000000006044820152fd5b606460405162461bcd60e51b815260206004820152601260248201527f496e76616c696420737461746520726f6f7400000000000000000000000000006044820152fd5b606460405162461bcd60e51b815260206004820152601160248201527f696e76616c6964207478426174636849640000000000000000000000000000006044820152fd5b61224a8161ffff841685615036565b3560018201821161170f576001600160a01b0361226f6001840161ffff861687615036565b35169060028301831161170f5761228e6002840161ffff861687615036565b359160038401841161170f576122ac6003850161ffff871688615036565b3560048501851161170f576122c96004860161ffff881689615036565b3560058601861161170f576122e66005870161ffff89168a615036565b359160068701871161170f5761234d956123086006890161ffff8b168c615036565b35946040519661231788614653565b8752602087015260408601526060850152608084015260a083015260c08201526007830490612346828b614ff5565b5288614ff5565b50600681018091111561139a57634e487b7160e01b61010051526011600452602461010051fd5b60209060405161238381614653565b61010051815261010051838201526101005160408201526101005160608201526101005160808201526101005160a08201526101005160c082015282828b01015201611388565b6123d98161ffff841685615036565b3560018201821161170f576123f66001830161ffff851686615036565b359060028301831161170f576124146002840161ffff861687615036565b359160038401841161170f5761246c926124366003860161ffff881689615036565b35916040519361244585614638565b84526020840152604083015260608201528260021c90612465828a614ff5565b5287614ff5565b5060048101809111156112f957634e487b7160e01b61010051526011600452602461010051fd5b6020906040516124a281614638565b610100518152610100518382015261010051604082015261010051606082015282828a010152016112e7565b6124d9848689615036565b356001850180861161170f576124f090878a615036565b3560028601861161170f578a60ff8d9261250f8c8b60028c0191615036565b35906040519561251e8761461d565b86526020860152806040860152168015600014612586575050509061256d61257392612555610120515163ffffffff851690615953565b906125638261012051614ff5565b5261012051614ff5565b50615b96565b925b6003810180911161170f5792611256565b93969593919291600181036125c95750508161256d916125bc6125b56125c396955163ffffffff871690615953565b8093614ff5565b528c614ff5565b91612575565b9395939092506002810361260457508161256d916125f76125b56125fe9697955163ffffffff871690615953565b528b614ff5565b90612575565b600391925014612615575b50612575565b9561256d612648929761263260a0515163ffffffff851690615953565b9061263f8260a051614ff5565b5260a051614ff5565b948c61260f565b9060028201821161170f5760ff61266a600284018588615036565b3516806126a3575061267b90615009565b905b600381018091111561120357634e487b7160e01b61010051526011600452602461010051fd5b91979091600181036126c057506126b990615009565b965b61267d565b90979690600281036126dc57506126d690615009565b9561267d565b909690600219016126bb57926126f190615009565b9261267d565b6127068161ffff841685615036565b3560018201821161170f5761275f906001600160a01b0361272f6001850161ffff871688615036565b35166040519161273e836145b5565b825260208201528260011c906127568260c051614ff5565b5260c051614ff5565b5060028101809111156111b757634e487b7160e01b61010051526011600452602461010051fd5b602090604051612795816145b5565b6101005181526101005183820152828260c051010152016111a9565b6127c08161ffff841685615036565b3560018201821161170f5761280c906127e16001840161ffff861687615036565b35604051916127ef836145b5565b825260208201528260011c906128058289614ff5565b5286614ff5565b50600281018091111561112157634e487b7160e01b61010051526011600452602461010051fd5b602090604051612842816145b5565b610100518152610100518382015282828901015201611113565b63ffffffff61286c828487615036565b35166001820180831161170f57612884908487615036565b359060028301831161170f576128d3916128a2600285018689615036565b3590604051926128b18461461d565b83526020830152604082015260038304906128cc8287614ff5565b5284614ff5565b50600381018091111561108f57634e487b7160e01b61010051526011600452602461010051fd5b602090612905615b27565b82828701015201611081565b634e487b7160e01b61010051526032600452602461010051fd5b3461034157602036600319011261034157604061294e61294961454d565b614f63565b60ff8351921682526020820152f35b346103415760203660031901126103415761297661454d565b507ff0c57e16840df040f15088dc2f81fe391c3923bec73e23a9662efc9c229c6a00805460ff8160401c1615906001600160401b03811680159081612a92575b6001149081612a88575b159081612a7f575b50612a555767ffffffffffffffff198116600117835581612a36575b5060026022556129f5576101005180f35b68ff00000000000000001981541690557fc7f505b2f371ae2175ee4913f4499e1f2633a7b5936321eed1cdaeb6115181d2602060405160018152a1806105be565b68ffffffffffffffffff191668010000000000000001178255826129e4565b60046040517ff92ee8a9000000000000000000000000000000000000000000000000000000008152fd5b905015846129c8565b303b1591506129c0565b8391506129b6565b3461034157604036600319011261034157610316612ab661454d565b612abe615162565b6024359061571d565b346103415760203660031901126103415763ffffffff612ae561458c565b166101005152601560205260206001600160a01b03604061010051205416604051908152f35b34610341576101005136600319011261034157604051612b2a816145b5565b600581526020907f352e302e30000000000000000000000000000000000000000000000000000000602082015260405180926020825282519081602084015261010051935b828510612b945750506040925061010051838284010152601f80199101168101030190f35b8481018201518686016040015293810193859350612b6f565b3461034157610100513660031901126103415760206001600160a01b03600f5416604051908152f35b34610341576040366003190112610341576001600160a01b03612bf7614563565b16610100515260146020526020610d8663ffffffff6040610100512054166004356101005152601883526040610100512081610100515283526001600160401b03604061010051205416614da7565b3461034157610100513660031901126103415760206001600160a01b037f9016d09d72d40fdae2fd8ceac6b6234c7706214fd39c1cd1e609a0528c1993005416604051908152f35b34610341576040366003190112610341576020612cb4612cac614579565b600435614deb565b6001600160401b0360405191168152f35b346103415760208060031936011261034157612cdf61454d565b612ce7615162565b336101005152601b82526001600160a01b036040610100512091169081610100515282526040610100512054908115612de757336101005152601b83526040610100512081610100515283526101005160406101005120558015600014612d6a575061010051610316925090819081908190335af1612d64614ba9565b50614b5e565b60405163a9059cbb60e01b81523360048201526024810192909252829082908180604481015b039161010051905af190811561182d57612db5926101005192612dba575b5050614b5e565b610316565b612dd99250803d10612de0575b612dd18183614681565b810190614b46565b8280612dae565b503d612dc7565b6064836040519062461bcd60e51b82526004820152601d60248201527f4e6f206661696c6564207769746864726177616c20746f20636c61696d0000006044820152fd5b3461034157610100513660031901126103415760206040517f439148f0bbc682ca079e46d6e2c2f0c1e3b820f1a291b069d8882abf8cf18dd98152f35b346103415761010051366003190112610341576020604051610100518152f35b34610341576101005136600319011261034157602063ffffffff600b5416604051908152f35b346103415760208060031936011261034157600435806101005152600c82526040610100512091604051612ee1816145e6565b83549360026001600160a01b0386169182845263ffffffff809760a01c16858501526001810154604085015201549160a06001600160401b0384818096166060850152888160401c16608085015260601c169101523303612fe657916080917ff0be4d45a4b0c97a58e137eb4e5f3ee1946352b0634474b7f181b1d9e00b4c4a93826101005152600d825260406101005120600160ff1982541617905560038252806040610100512054169060048352604061010051205416916008549687821c169667ffffffff00000000612fb689614872565b831b169067ffffffff00000000191617600855604051938452339084015260408301526060820152a26101005180f35b6084826040519062461bcd60e51b82526004820152602560248201527f4f6e6c7920746865206f776e65722063616e20636c6f73652074686520706f7360448201527f6974696f6e0000000000000000000000000000000000000000000000000000006064820152fd5b3461034157610100513660031901126103415761306b6150a0565b7f9016d09d72d40fdae2fd8ceac6b6234c7706214fd39c1cd1e609a0528c19930080546001600160a01b0319811690915561010051906001600160a01b03167f8be0079c531659141344cd1fd0a4f28419497f9722a3daafe3b4186f6b6457e08280a36101005180f35b34610341576040366003190112610341576020610d866130f361459f565b6130fb614579565b90614da7565b3461034157610100513660031901126103415760206001600160a01b03600e5416604051908152f35b34610341576020366003190112610341576020610d8661314861454d565b614c0c565b346103415760603660031901126103415761316661458c565b6024356044359063ffffffff80931661010051526020916009835261319460ff6040610100512054166147c5565b6131c26131bd83600052600c6020526001600160401b0360026040600020015460601c16151590565b614704565b816101005152600d835260ff60406101005120541661330757916117f06060927faa43054738c0ccc1d25109def7436a8b764fbd8a5415e121d2a16c2f84d5a4b794638fdd705b8061010051526015855261322d826001600160a01b03604061010051205416615461565b8061010051526013855261324a60ff604061010051205416614c99565b61010051526016845261327f60ff6040610100512054169161326f6012841115614ce4565b6001600160401b03948593614d2f565b169133610100515261010051845260406101005120826101005152845260406101005120908154906132b385828416614bf1565b16906001600160401b0319161790556008549586841c169567ffffffff000000006132dd88614872565b851b169067ffffffff00000000191617600855604051923384528301526040820152a26101005180f35b6064836040519062461bcd60e51b82526004820152600f60248201527f706f736974696f6e20636c6f73656400000000000000000000000000000000006044820152fd5b34610341576080366003190112610341576004356001600160a01b03908181168091036103415761337a614563565b9160443590606435906001600160401b0394858311610341573660238401121561034157826004013595861161034157366024878501011161034157836133c082614c0c565b106136955760405163a9059cbb60e01b81526001600160a01b03861660048201526024810185905260209691909216939186818060448101038161010051895af190811561182d576101005191613678575b50156136345785602460c461342685615453565b958460405195869485937f23e30c8b0000000000000000000000000000000000000000000000000000000085523360048601528b828601528960448601528a606486015260a060848601528260a4860152018484013761010051838284010152601f8019910116810103018161010051895af1801561182d5761010051906135e7575b7f439148f0bbc682ca079e46d6e2c2f0c1e3b820f1a291b069d8882abf8cf18dd99150036135a357916134e16135199492869461484c565b6040516323b872dd60e01b81526001600160a01b03909316600484015230602484015260448301529092839190829081906064820190565b039161010051905af190811561182d576101005191613586575b50156135425760405160018152f35b6064906040519062461bcd60e51b82526004820152601960248201527f466c6173684c656e6465723a205265706179206661696c6564000000000000006044820152fd5b61359d9150823d8411612de057612dd18183614681565b82613533565b6064856040519062461bcd60e51b82526004820152601c60248201527f466c6173684c656e6465723a2043616c6c6261636b206661696c6564000000006044820152fd5b508581813d831161362d575b6135fd8183614681565b81010312610341577f439148f0bbc682ca079e46d6e2c2f0c1e3b820f1a291b069d8882abf8cf18dd990516134a9565b503d6135f3565b6064866040519062461bcd60e51b82526004820152601c60248201527f466c6173684c656e6465723a205472616e73666572206661696c6564000000006044820152fd5b61368f9150873d8911612de057612dd18183614681565b87613412565b608460405162461bcd60e51b815260206004820152602e60248201527f466c6173684c656e6465723a20496e73756666696369656e742066756e64732060448201527f666f7220666c617368206c6f616e0000000000000000000000000000000000006064820152fd5b3461034157604036600319011261034157613718614579565b6004356101005152601860205263ffffffff604061010051209116610100515260205260206001600160401b03604061010051205416604051908152f35b34610341576020366003190112610341576001600160a01b0361377761454d565b166101005152600660205260206040610100512054604051908152f35b346103415761010051366003190112610341576020602254604051908152f35b346103415760203660031901126103415760206137f26137d261458c565b63ffffffff1660005260156020526001600160a01b036040600020541690565b6001600160a01b0360405191168152f35b346103415761010051366003190112610341576001600160a01b037f00000000000000000000000000000000000000000000000000000000000000001630036138705760206040517f360894a13ba1a3210667c828492db98dca3e2076cc3735a920a3ca505d382bbc8152f35b60046040517fe07c8dba000000000000000000000000000000000000000000000000000000008152fd5b34610341576060366003190112610341576138b361454d565b6001600160a01b0390602435828116908181036103415783604435936138d7615162565b1690816101005152602094601086526138f960ff604061010051205416614afb565b600e54163303613a195783156139d557849190816139a0575050610100519283928392508291905af161392a614ba9565b501561395c575060017f9b779b17422d0df92223018b32b4d1fa46e071723d6817e2486d003becc55f00556101005180f35b6064906040519062461bcd60e51b82526004820152601460248201527f4661696c656420746f2073656e642045746865720000000000000000000000006044820152fd5b60405163a9059cbb60e01b81526001600160a01b03909116600482015260248101949094529091508290818060448101612d90565b6064856040519062461bcd60e51b82526004820152601660248201527f4e6f2070656e64696e67207769746864726177616c73000000000000000000006044820152fd5b6084856040519062461bcd60e51b82526004820152602a60248201527f4f6e6c792065736361706556657269666965722063616e2063616c6c2074686960448201527f732066756e6374696f6e000000000000000000000000000000000000000000006064820152fd5b346103415760203660031901126103415760206001600160a01b0380613aa761454d565b16610100515260178252604061010051205416604051908152f35b604036600319011261034157613ad661454d565b6024908135906001600160401b038211610341573660238301121561034157816004013591613b04836146a2565b613b116040519182614681565b838152602093848201923687838301011161034157868291018437846101005191830101526001600160a01b03807f000000000000000000000000000000000000000000000000000000000000000016803014908115613d21575b5061387057613b796150a0565b831693604051907f52d1902d0000000000000000000000000000000000000000000000000000000082528082600481895afa9182916101005193613cf1575b5050613bd557858560405190634c9c8ce360e01b82526004820152fd5b857f360894a13ba1a3210667c828492db98dca3e2076cc3735a920a3ca505d382bbc91828103613cc35750843b15613cad5750846001600160a01b0319825416179055604051937fbc7cd75a20ee27fd9adebab32041f755214dbc6bffa90cc0225b39da2e5c2d3b6101005161010051a2805115613c7757613c6f9350610100519161010051915190845af4613c69614ba9565b91615dac565b506101005180f35b50505034613c8557506105be565b807fb398979f0000000000000000000000000000000000000000000000000000000060049252fd5b8560405190634c9c8ce360e01b82526004820152fd5b604051907faa1d49a40000000000000000000000000000000000000000000000000000000082526004820152fd5b9080929350813d8311613d1a575b613d098183614681565b810103126103415751908780613bb8565b503d613cff565b9050817f360894a13ba1a3210667c828492db98dca3e2076cc3735a920a3ca505d382bbc5416141587613b6c565b34610341576020366003190112610341576001600160a01b03613d7061454d565b613d786150a0565b166001600160a01b031981816021541617602155600e541617600e556101005161010051f35b34610341576020366003190112610341576020613dd9600435600052600c6020526001600160401b0360026040600020015460601c16151590565b6040519015158152f35b34610341576040366003190112610341576105be613dff61458c565b60243590614887565b346103415760203660031901126103415763ffffffff613e2661458c565b1661010051526009602052602060ff6040610100512054166040519015158152f35b34610341576020366003190112610341576004356101005152600c60205260c06040610100512080549063ffffffff60026001830154920154906001600160401b039281604051956001600160a01b038116875260a01c166020860152604085015282821660608501528160401c16608084015260601c1660a0820152f35b3461034157604036600319011261034157613ee061454d565b613ee8614563565b906001600160a01b038091166101005152601b602052604061010051209116610100515260205260206040610100512054604051908152f35b34610341576040366003190112610341576001600160a01b03613f4261454d565b166101005152600260205260406101005120602435610100515260205260406101005120546001600160401b03610869604051928284938260401c169116839060209093929360408301946001600160401b03809216845216910152565b34610341576040366003190112610341576001600160a01b03613fc161454d565b166101005152600a602052604061010051206024356101005152602052602060ff6040610100512054166040519015158152f35b606036600319011261034157602061402361400e61454d565b614016615162565b6044359060243590615207565b60017f9b779b17422d0df92223018b32b4d1fa46e071723d6817e2486d003becc55f00556001600160401b0360405191168152f35b34610341576020366003190112610341576001600160401b0361407961459f565b166101005152601d60205260206040610100512054604051908152f35b34610341576020366003190112610341576001600160401b036140b761459f565b166101005152601f602052602060ff6040610100512054166040519015158152f35b34610341576020366003190112610341576001600160a01b036140fa61454d565b1661010051526010602052602060ff6040610100512054166040519015158152f35b34610341576020366003190112610341576001600160401b0361413d61459f565b166101005152601e60205260206040610100512054604051908152f35b34610341576020366003190112610341576004356141976131bd82600052600c6020526001600160401b0360026040600020015460601c16151590565b6040516141a3816145b5565b3381526020810191825260015468010000000000000000811015614202578060016141d19201600155614775565b929092612139576001600160a01b0360019251166001600160a01b0319845416178355519101556101005161010051f35b634e487b7160e01b61010051526041600452602461010051fd5b346103415760603660031901126103415761423561454d565b61423d614579565b60443560ff81168103610341576142526150a0565b6001600160a01b038093169081156144e35763ffffffff80931693841561449f576142af908361010051526142966020956014875260406101005120541615615103565b8561010051526015855260406101005120541615615103565b620186a08411156103415760405163313ce56760e01b81528381600481865afa91821561182d5760ff926142ed926101005191614482575b5061514e565b16926012841161443e5760607fa0fa9e6f8b5151671d99d8a21fbee478f03ed8c5078386b9716ed66db871ccec9183610100515260148552604061010051208163ffffffff198254161790558061010051526015855260406101005120846001600160a01b031982541617905560168552604061010051209560ff19968188825416179055601386526040610100512060018882541617905560405191858352868301526040820152a18061010051526010825260ff6040610100512054166143fa577f2db5c923577787b86e45d0fc2e5d9e9a655c9b0d7802164b4e967544fe407864928161010051526010835260016040610100512091825416179055604051908152a16101005180f35b6064826040519062461bcd60e51b82526004820152601860248201527f5661756c7420616c7265616479207265676973746572656400000000000000006044820152fd5b6064836040519062461bcd60e51b82526004820152601660248201527f5363616c6520666163746f7220746f6f206c61726765000000000000000000006044820152fd5b6144999150863d8811611826576118178183614681565b876142e7565b606460405162461bcd60e51b815260206004820152601860248201527f546f6b656e2049442053686f756c64206e6f74206265203000000000000000006044820152fd5b606460405162461bcd60e51b815260206004820152601d60248201527f546f6b656e20616464726573732053686f756c64206e6f7420626520300000006044820152fd5b346103415761010051366003190112610341576020906001600160401b03601c54168152f35b600435906001600160a01b03821682036107d657565b602435906001600160a01b03821682036107d657565b6024359063ffffffff821682036107d657565b6004359063ffffffff821682036107d657565b600435906001600160401b03821682036107d657565b604081019081106001600160401b038211176145d057604052565b634e487b7160e01b600052604160045260246000fd5b60c081019081106001600160401b038211176145d057604052565b61016081019081106001600160401b038211176145d057604052565b606081019081106001600160401b038211176145d057604052565b608081019081106001600160401b038211176145d057604052565b60e081019081106001600160401b038211176145d057604052565b6001600160401b0381116145d057604052565b90601f801991011681019081106001600160401b038211176145d057604052565b6001600160401b0381116145d057601f01601f191660200190565b9181601f840112156107d6578235916001600160401b0383116107d6576020808501948460051b0101116107d657565b6001600160401b0381116145d05760051b60200190565b1561470b57565b608460405162461bcd60e51b815260206004820152602160248201527f706f736974696f6e20616464726573732069736e27742072656769737465726560448201527f64000000000000000000000000000000000000000000000000000000000000006064820152fd5b6001548110156147af57600160005260011b7fb10e2d527612073b26eecdfd717e6a320cf44b4afac2b0732d9fcbe2b7fa0cf60190600090565b634e487b7160e01b600052603260045260246000fd5b156147cc57565b606460405162461bcd60e51b815260206004820152601760248201527f6d61726b65742069736e277420726567697374657265640000000000000000006044820152fd5b60201b906bffffffffffffffff0000000067ffffffff0000000083169216820361483657565b634e487b7160e01b600052601160045260246000fd5b9190820180921161483657565b6001600160401b03918216908216039190821161483657565b63ffffffff8091169081146148365760010190565b91909163ffffffff90816000911681526020906009825260406148af60ff82842054166147c5565b6148d86131bd87600052600c6020526001600160401b0360026040600020015460601c16151590565b338252600283528082208683528352808220918151926148f7846145b5565b54926001600160401b039182851682528286830195851c16855288815260078652838120548381166149f45750918084927f596ee89944172f283ef762f313344c7e24443c63de4a42fafa46ff56254608b098999a958795608099985182517fffffffffffffffff0000000000000000000000000000000000000000000000008b8201923360601b845260c01b166034820152601c8152614997816145b5565b51902081526005895220600160ff19825416179055600854998a881c169967ffffffff000000006149c78c614872565b891b169067ffffffff000000001916176008555116925116928151943386528501528301526060820152a2565b915097918495939650808095511691871c1602838116908103614ae75781885260078352838689205416908115614ad35784938793611a6e9796614ad19a9b946007940497638fdd705b80875260138552614a5460ff8989205416614c99565b865260168452614a81614a7960ff8989205416614a746012821115614ce4565b614d2f565b838b16614d40565b33875260068552614a9688882091825461484c565b905551168185528383528585209087614ab3835492828416614859565b16906001600160401b03191617905583525220938454901c16614859565b565b602489634e487b7160e01b81526012600452fd5b602488634e487b7160e01b81526011600452fd5b15614b0257565b606460405162461bcd60e51b815260206004820152601760248201527f5661756c74206973206e6f7420726567697374657265640000000000000000006044820152fd5b908160209103126107d6575180151581036107d65790565b15614b6557565b606460405162461bcd60e51b815260206004820152600f60248201527f5472616e73666572206661696c656400000000000000000000000000000000006044820152fd5b3d15614bd4573d90614bba826146a2565b91614bc86040519384614681565b82523d6000602084013e565b606090565b9060016001600160401b038093160191821161483657565b9190916001600160401b038080941691160191821161483657565b60206001600160a01b03916024604051809481937f70a08231000000000000000000000000000000000000000000000000000000008352306004840152165afa908115614c8d57600091614c5e575090565b90506020813d602011614c85575b81614c7960209383614681565b810103126107d6575190565b3d9150614c6c565b6040513d6000823e3d90fd5b15614ca057565b606460405162461bcd60e51b815260206004820152601460248201527f546f6b656e206e6f7420726567697374657265640000000000000000000000006044820152fd5b15614ceb57565b606460405162461bcd60e51b815260206004820152601460248201527f496e76616c6964207363616c6520666163746f720000000000000000000000006044820152fd5b60ff16604d811161483657600a0a90565b8181029291811591840414171561483657565b614da49061d903806000526013602052614d7460ff60406000205416614c99565b60005260166020526001600160401b03614d9d60ff60406000205416614a746012821115614ce4565b9116614d40565b90565b63ffffffff614da49216806000526013602052614d7460ff60406000205416614c99565b8115614dd5570490565b634e487b7160e01b600052601260045260246000fd5b614e399063ffffffff6001600160401b039316806000526013602052614e1860ff60406000205416614c99565b60005260166020526117f060ff60406000205416614a746012821115614ce4565b1690565b908160209103126107d6575160ff811681036107d65790565b60009081805260209160148352604092614e7a63ffffffff85842054161515614c99565b818052601781526001600160a01b038483205416918215614f535784519163313ce56760e01b83528083600481875afa928315614f49578293614f27575b5080600493948751948580926350d25bcd60e01b82525afa958615614f1c57508195614ee6575b5050509190565b909180939550813d8311614f15575b614eff8183614681565b81010312614f1257505191388080614edf565b80fd5b503d614ef5565b51913d9150823e3d90fd5b60049350614f428291823d8411611826576118178183614681565b9350614eb8565b86513d84823e3d90fd5b50505090506008906305f5e10090565b906001600160a01b038092169160009083825260209060148252604094614f9463ffffffff87862054161515614c99565b8352601782528483205416918215614f535784519163313ce56760e01b83528083600481875afa928315614f49578293614f27575080600493948751948580926350d25bcd60e01b82525afa958615614f1c57508195614ee6575050509190565b80518210156147af5760209160051b010190565b90600163ffffffff8093160191821161483657565b91909163ffffffff8080941691160191821161483657565b91908110156147af5760051b0190565b356001600160a01b03811681036107d65790565b33600052600660205260406000208054801561509c5760006150999255638fdd705b6000526015602052336001600160a01b0360406000205416615960565b50565b5050565b6001600160a01b037f9016d09d72d40fdae2fd8ceac6b6234c7706214fd39c1cd1e609a0528c199300541633036150d357565b60246040517f118cdaa7000000000000000000000000000000000000000000000000000000008152336004820152fd5b1561510a57565b606460405162461bcd60e51b815260206004820152601860248201527f546f6b656e20616c7265616479207265676973746572656400000000000000006044820152fd5b9060ff8091169116039060ff821161483657565b7f9b779b17422d0df92223018b32b4d1fa46e071723d6817e2486d003becc55f0060028154146151925760029055565b60046040517f3ee5aeb5000000000000000000000000000000000000000000000000000000008152fd5b156151c357565b606460405162461bcd60e51b815260206004820152601160248201527f496e76616c696420737461726b204b65790000000000000000000000000000006044820152fd5b6152327f080000000000001100000000000000000000000000000000000000000000000184106151bc565b61523d8315156151bc565b341561535c575050614da4906152c17f429602b012976e07ac9b27b6c1bac9791626550f52721f02a2523c88808ec7a060a0631b0bc2a86000908082526020956013875260409061529360ff8386205416614c99565b8284526016885260ff82852054166152ae6012821115614ce4565b6152c76001600160401b03988992614d2f565b34614dcb565b169781855260188152828520848652815287838620541697836152ea8b8b614bf1565b9684815260188452818120878252845220816001600160401b031997168782541617905561531b8160125416614810565b956019549082615337615331828516809b614bf1565b99614bd9565b16911617601955835195168552840152820152846060820152426080820152a1614bf1565b917f429602b012976e07ac9b27b6c1bac9791626550f52721f02a2523c88808ec7a060a08461538e85614da497615461565b6001600160a01b03600091168152602093601485526040956153ba63ffffffff88852054168092614deb565b968284526018875280842082855287526001600160401b039283828620541697826153e58b8b614bf1565b9683815260188352818120868252835220856001600160401b03199716878254161790556154168560125416614810565b95601954908661542c615331828516809b614bf1565b169116176019558483519616865285015283015285166060820152426080820152a1614bf1565b156001171561483657600090565b6154bb6000926001600160a01b0360209316908185526010845261548b60ff604087205416614afb565b6040516323b872dd60e01b8152336004820152306024820152604481019190915293849283919082906064820190565b03925af18015614c8d57614ad1916000916154d65750614b5e565b6154ef915060203d602011612de057612dd18183614681565b38612d64565b601a548110156147af57600390601a600052027f057c384a7d1c54f3a1b2e5e67b2617b8224fdfd1ea7234eea573a6ff665ff63e0190600090565b7f08000000000000110000000000000000000000000000000000000000000000018110156156d9573315615695577f4f26c3876aa9f4b92579780beea1161a61f87ebf1ec6ee865b299e447ecba99c54600082815260186020908152604080832063ffffffff9485168085529252808320549093906001600160401b03161561568e5783516155be8161461d565b33815260208101868152858201938452601a546801000000000000000081101561567a578060016155f29201601a556154f5565b9290926156675760609694927ffe5eeb45c725aa6c7460c0a9b5891c86aab2691e00ef4e9e24376ec43264561b989694926001600160a01b0360029351166001600160a01b03198354161782555160018201550191511663ffffffff19825416179055815192835260208301524290820152a1565b602486634e487b7160e01b815280600452fd5b602486634e487b7160e01b81526041600452fd5b5050505050565b606460405162461bcd60e51b815260206004820152601560248201527f6d73672e73656e6465722063616e2774206265203000000000000000000000006044820152fd5b606460405162461bcd60e51b815260206004820152601160248201527f496e76616c696420737461726b206b65790000000000000000000000000000006044820152fd5b7f08000000000000110000000000000000000000000000000000000000000000018210156156d9573315615695576001600160a01b03809116600091818352601460205263ffffffff6040938185822054169286825260186020528582208483526020526001600160401b0386832054161561586a5785519061579f8261461d565b3382526020820191888352878101958652601a5468010000000000000000811015615856578060016157d49201601a556154f5565b9490946158435750927ffe5eeb45c725aa6c7460c0a9b5891c86aab2691e00ef4e9e24376ec43264561b98969492600292606099979551166001600160a01b03198354161782555160018201550191511663ffffffff19825416179055815192835260208301524290820152a1565b80634e487b7160e01b6024925280600452fd5b602485634e487b7160e01b81526041600452fd5b50505050505050565b6040519061588082614601565b816101406000918281528260208201528260408201528260608201528260808201528260a08201528260c08201528260e082015282610100820152826101208201520152565b909392938483116107d65784116107d6578160051b01920390565b90600363ffffffff8093160291821691820361483657565b60011b906201fffe61fffe83169216820361483657565b90600361ffff8093160291821691820361483657565b60021b906203fffc61fffc83169216820361483657565b91909161ffff8080941691160191821161483657565b9190820391821161483657565b6001600160a01b03169182600052601060205260ff60406000205416156159e55780156159e55760405163a9059cbb60e01b81526001600160a01b03929092166004830152602482015290602090829060449082906000905af1908115614c8d576000916159cc575090565b614da4915060203d602011612de057612dd18183614681565b505050600190565b906001600160a01b03809216906000948286526020946010865260ff60408820541615615b1b5781615a1e91615953565b938415615b1b5781615a98575b505060405163a9059cbb60e01b81526001600160a01b039091166004820152602481019290925290919081908390818681604481015b03925af1928315615a8c5792615a7657505090565b614da49250803d10612de057612dd18183614681565b604051903d90823e3d90fd5b600f5460405163a9059cbb60e01b815291166001600160a01b03166004820152602481019190915284818060448101038189875af1908115615b105791615aee86959392615a619795938991615af95750614b5e565b919394819350615a2b565b6154ef9150863d8811612de057612dd18183614681565b6040513d88823e3d90fd5b50505050505050600190565b60405190615b348261461d565b60006040838281528260208201520152565b90615b50826146ed565b615b5d6040519182614681565b8281528092615b6e601f19916146ed565b019060005b828110615b7f57505050565b602090615b8a615b27565b82828501015201615b73565b63ffffffff908116600019019190821161483657565b601a8054156150995760005b8154811015615c705780615bcd6001926154f5565b5082810154600052602090601882526001600160401b0360408060002063ffffffff60028501541694856000525260002054168015615c685782615c1091614da7565b90631b0bc2a88303615c27575b5050505b01615bb8565b6001600160a01b03615c56615c5f9463ffffffff1660005260156020526001600160a01b036040600020541690565b91541690615960565b50388080615c1d565b505050615c21565b5050601a546000601a5580615c825750565b6003908060030290600382040361483657601a6000527f057c384a7d1c54f3a1b2e5e67b2617b8224fdfd1ea7234eea573a6ff665ff63e908101905b818110615cca57505050565b806000849255600060018201556000600282015501615cbe565b9082615cef91615953565b9182156159e55780615d1b575b5060008080936001600160a01b038294165af1615d17614ba9565b5090565b6000808080936001600160a01b03600f54165af1615d37614ba9565b5015615d435738615cfc565b608460405162461bcd60e51b8152602060048201526024808201527f4661696c656420746f2073656e6420457468657220746f20676173436f6c6c6560448201527f63746f72000000000000000000000000000000000000000000000000000000006064820152fd5b90615deb5750805115615dc157805190602001fd5b60046040517f1425ea42000000000000000000000000000000000000000000000000000000008152fd5b81511580615e36575b615dfc575090565b6024906001600160a01b03604051917f9996b315000000000000000000000000000000000000000000000000000000008352166004820152fd5b50803b15615df456fea26469706673582212205afbe2b26936f6b0fd9c5c1ca0b356acda280f953927d0a63ed6887d9650a19064736f6c63430008160033",
  "linkReferences": {},
  "deployedLinkReferences": {}
}