{
  "_format": "hh-sol-artifact-1",
  "contractName": "InvisibleL1",
  "sourceName": "src/Invisible.sol",
  "abi": [
    {
      "inputs": [
        {
          "internalType": "address",
          "name": "target",
          "type": "address"
        }
      ],
      "name": "AddressEmptyCode",
      "type": "error"
    },
    {
      "inputs": [
        {
          "internalType": "address",
          "name": "implementation",
          "type": "address"
        }
      ],
      "name": "ERC1967InvalidImplementation",
      "type": "error"
    },
    {
      "inputs": [],
      "name": "ERC1967NonPayable",
      "type": "error"
    },
    {
      "inputs": [],
      "name": "FailedInnerCall",
      "type": "error"
    },
    {
      "inputs": [],
      "name": "InvalidInitialization",
      "type": "error"
    },
    {
      "inputs": [],
      "name": "NotInitializing",
      "type": "error"
    },
    {
      "inputs": [
        {
          "internalType": "address",
          "name": "owner",
          "type": "address"
        }
      ],
      "name": "OwnableInvalidOwner",
      "type": "error"
    },
    {
      "inputs": [
        {
          "internalType": "address",
          "name": "account",
          "type": "address"
        }
      ],
      "name": "OwnableUnauthorizedAccount",
      "type": "error"
    },
    {
      "inputs": [],
      "name": "ReentrancyGuardReentrantCall",
      "type": "error"
    },
    {
      "inputs": [],
      "name": "UUPSUnauthorizedCallContext",
      "type": "error"
    },
    {
      "inputs": [
        {
          "internalType": "bytes32",
          "name": "slot",
          "type": "bytes32"
        }
      ],
      "name": "UUPSUnsupportedProxiableUUID",
      "type": "error"
    },
    {
      "anonymous": false,
      "inputs": [
        {
          "indexed": false,
          "internalType": "address",
          "name": "depositor",
          "type": "address"
        },
        {
          "indexed": false,
          "internalType": "uint256",
          "name": "mmPositionAddress",
          "type": "uint256"
        },
        {
          "indexed": false,
          "internalType": "uint64",
          "name": "usdcAmount",
          "type": "uint64"
        },
        {
          "indexed": true,
          "internalType": "uint32",
          "name": "mmActionId",
          "type": "uint32"
        }
      ],
      "name": "AddLiquidity",
      "type": "event"
    },
    {
      "anonymous": false,
      "inputs": [
        {
          "indexed": false,
          "internalType": "uint256",
          "name": "positionAddress",
          "type": "uint256"
        },
        {
          "indexed": false,
          "internalType": "address",
          "name": "mmOwner",
          "type": "address"
        },
        {
          "indexed": false,
          "internalType": "uint64",
          "name": "initialValueSum",
          "type": "uint64"
        },
        {
          "indexed": false,
          "internalType": "uint64",
          "name": "vlpAmountSum",
          "type": "uint64"
        },
        {
          "indexed": true,
          "internalType": "uint32",
          "name": "mmActionId",
          "type": "uint32"
        }
      ],
      "name": "ClosePositionEvent",
      "type": "event"
    },
    {
      "anonymous": false,
      "inputs": [
        {
          "indexed": false,
          "internalType": "uint256",
          "name": "pubKey",
          "type": "uint256"
        },
        {
          "indexed": false,
          "internalType": "address",
          "name": "tokenAddress",
          "type": "address"
        },
        {
          "indexed": false,
          "internalType": "uint256",
          "name": "timestamp",
          "type": "uint256"
        }
      ],
      "name": "DepositCancelEvent",
      "type": "event"
    },
    {
      "anonymous": false,
      "inputs": [
        {
          "indexed": false,
          "internalType": "uint64",
          "name": "depositId",
          "type": "uint64"
        },
        {
          "indexed": false,
          "internalType": "uint256",
          "name": "pubKey",
          "type": "uint256"
        },
        {
          "indexed": false,
          "internalType": "uint32",
          "name": "tokenId",
          "type": "uint32"
        },
        {
          "indexed": false,
          "internalType": "uint64",
          "name": "depositAmountScaled",
          "type": "uint64"
        },
        {
          "indexed": false,
          "internalType": "uint256",
          "name": "timestamp",
          "type": "uint256"
        }
      ],
      "name": "DepositEvent",
      "type": "event"
    },
    {
      "anonymous": false,
      "inputs": [
        {
          "indexed": false,
          "internalType": "uint64",
          "name": "version",
          "type": "uint64"
        }
      ],
      "name": "Initialized",
      "type": "event"
    },
    {
      "anonymous": false,
      "inputs": [
        {
          "indexed": false,
          "internalType": "address",
          "name": "tokenAddress",
          "type": "address"
        },
        {
          "indexed": false,
          "internalType": "uint32",
          "name": "tokenId",
          "type": "uint32"
        },
        {
          "indexed": false,
          "internalType": "uint8",
          "name": "scaleFactor",
          "type": "uint8"
        }
      ],
      "name": "NewTokenRegisteredEvent",
      "type": "event"
    },
    {
      "anonymous": false,
      "inputs": [
        {
          "indexed": true,
          "internalType": "address",
          "name": "previousOwner",
          "type": "address"
        },
        {
          "indexed": true,
          "internalType": "address",
          "name": "newOwner",
          "type": "address"
        }
      ],
      "name": "OwnershipTransferred",
      "type": "event"
    },
    {
      "anonymous": false,
      "inputs": [
        {
          "indexed": false,
          "internalType": "uint256",
          "name": "timestamp",
          "type": "uint256"
        },
        {
          "indexed": false,
          "internalType": "uint64",
          "name": "txBatchId",
          "type": "uint64"
        }
      ],
      "name": "ProcessedWithdrawals",
      "type": "event"
    },
    {
      "anonymous": false,
      "inputs": [
        {
          "indexed": false,
          "internalType": "address",
          "name": "depositor",
          "type": "address"
        },
        {
          "indexed": false,
          "internalType": "uint256",
          "name": "mmPositionAddress",
          "type": "uint256"
        },
        {
          "indexed": false,
          "internalType": "uint64",
          "name": "initialValue",
          "type": "uint64"
        },
        {
          "indexed": false,
          "internalType": "uint64",
          "name": "vlpAmount",
          "type": "uint64"
        },
        {
          "indexed": true,
          "internalType": "uint32",
          "name": "mmActionId",
          "type": "uint32"
        }
      ],
      "name": "RemoveLiquidity",
      "type": "event"
    },
    {
      "anonymous": false,
      "inputs": [
        {
          "indexed": false,
          "internalType": "bool",
          "name": "isAutomatic",
          "type": "bool"
        },
        {
          "indexed": false,
          "internalType": "uint32",
          "name": "chainId",
          "type": "uint32"
        },
        {
          "indexed": false,
          "internalType": "uint32",
          "name": "tokenId",
          "type": "uint32"
        },
        {
          "indexed": false,
          "internalType": "uint64",
          "name": "amount",
          "type": "uint64"
        },
        {
          "indexed": false,
          "internalType": "address",
          "name": "recipient",
          "type": "address"
        }
      ],
      "name": "TestWithdrawal",
      "type": "event"
    },
    {
      "anonymous": false,
      "inputs": [
        {
          "indexed": true,
          "internalType": "uint32",
          "name": "txBatchId",
          "type": "uint32"
        },
        {
          "indexed": false,
          "internalType": "uint256",
          "name": "prevStateRoot",
          "type": "uint256"
        },
        {
          "indexed": false,
          "internalType": "uint256",
          "name": "newStateRoot",
          "type": "uint256"
        },
        {
          "indexed": false,
          "internalType": "uint256",
          "name": "timestamp",
          "type": "uint256"
        }
      ],
      "name": "TxBatchProcesssed",
      "type": "event"
    },
    {
      "anonymous": false,
      "inputs": [
        {
          "indexed": false,
          "internalType": "uint256",
          "name": "timestamp",
          "type": "uint256"
        },
        {
          "indexed": false,
          "internalType": "uint64",
          "name": "txBatchId",
          "type": "uint64"
        }
      ],
      "name": "UpdatedPendingDepositsEvent",
      "type": "event"
    },
    {
      "anonymous": false,
      "inputs": [
        {
          "indexed": true,
          "internalType": "address",
          "name": "implementation",
          "type": "address"
        }
      ],
      "name": "Upgraded",
      "type": "event"
    },
    {
      "anonymous": false,
      "inputs": [
        {
          "indexed": false,
          "internalType": "address",
          "name": "tokenAddress",
          "type": "address"
        }
      ],
      "name": "VaultRegisteredEvent",
      "type": "event"
    },
    {
      "anonymous": false,
      "inputs": [
        {
          "indexed": false,
          "internalType": "address",
          "name": "withdrawer",
          "type": "address"
        },
        {
          "indexed": false,
          "internalType": "address",
          "name": "tokenAddress",
          "type": "address"
        },
        {
          "indexed": false,
          "internalType": "uint256",
          "name": "withdrawalAmount",
          "type": "uint256"
        },
        {
          "indexed": false,
          "internalType": "uint256",
          "name": "timestamp",
          "type": "uint256"
        }
      ],
      "name": "WithdrawalEvent",
      "type": "event"
    },
    {
      "anonymous": false,
      "inputs": [
        {
          "indexed": false,
          "internalType": "address",
          "name": "mmOwner",
          "type": "address"
        },
        {
          "indexed": false,
          "internalType": "uint32",
          "name": "syntheticAsset",
          "type": "uint32"
        },
        {
          "indexed": false,
          "internalType": "uint256",
          "name": "positionAddress",
          "type": "uint256"
        },
        {
          "indexed": false,
          "internalType": "uint32",
          "name": "vlpTokenId",
          "type": "uint32"
        },
        {
          "indexed": true,
          "internalType": "uint32",
          "name": "mmActionId",
          "type": "uint32"
        }
      ],
      "name": "newPerpMMRegistration",
      "type": "event"
    },
    {
      "inputs": [],
      "name": "UPGRADE_INTERFACE_VERSION",
      "outputs": [
        {
          "internalType": "string",
          "name": "",
          "type": "string"
        }
      ],
      "stateMutability": "view",
      "type": "function"
    },
    {
      "inputs": [
        {
          "internalType": "address",
          "name": "mmOwner",
          "type": "address"
        },
        {
          "internalType": "uint256",
          "name": "tabPosAddress",
          "type": "uint256"
        }
      ],
      "name": "approveMMRegistration",
      "outputs": [],
      "stateMutability": "nonpayable",
      "type": "function"
    },
    {
      "inputs": [
        {
          "internalType": "address",
          "name": "recipient",
          "type": "address"
        },
        {
          "internalType": "address",
          "name": "token",
          "type": "address"
        }
      ],
      "name": "claimPendingWithdrawal",
      "outputs": [],
      "stateMutability": "nonpayable",
      "type": "function"
    },
    {
      "inputs": [
        {
          "internalType": "uint256",
          "name": "mmPositionAddress",
          "type": "uint256"
        }
      ],
      "name": "closePerpMarketMaker",
      "outputs": [],
      "stateMutability": "nonpayable",
      "type": "function"
    },
    {
      "inputs": [
        {
          "internalType": "address[]",
          "name": "tokens",
          "type": "address[]"
        }
      ],
      "name": "collectGasFees",
      "outputs": [],
      "stateMutability": "nonpayable",
      "type": "function"
    },
    {
      "inputs": [
        {
          "internalType": "address",
          "name": "tokenAddress",
          "type": "address"
        },
        {
          "internalType": "address payable",
          "name": "recipient",
          "type": "address"
        },
        {
          "internalType": "uint256",
          "name": "escapeAmount",
          "type": "uint256"
        }
      ],
      "name": "executeEscape",
      "outputs": [],
      "stateMutability": "nonpayable",
      "type": "function"
    },
    {
      "inputs": [
        {
          "internalType": "address",
          "name": "recipient",
          "type": "address"
        }
      ],
      "name": "getETHWithdrawableAmount",
      "outputs": [
        {
          "internalType": "uint256",
          "name": "",
          "type": "uint256"
        }
      ],
      "stateMutability": "view",
      "type": "function"
    },
    {
      "inputs": [
        {
          "internalType": "uint256",
          "name": "starkKey",
          "type": "uint256"
        },
        {
          "internalType": "address",
          "name": "tokenAddress",
          "type": "address"
        }
      ],
      "name": "getPendingDepositAmount",
      "outputs": [
        {
          "internalType": "uint256",
          "name": "",
          "type": "uint256"
        }
      ],
      "stateMutability": "view",
      "type": "function"
    },
    {
      "inputs": [
        {
          "internalType": "uint256",
          "name": "starkKey",
          "type": "uint256"
        }
      ],
      "name": "getPendingETHDepositAmount",
      "outputs": [
        {
          "internalType": "uint256",
          "name": "",
          "type": "uint256"
        }
      ],
      "stateMutability": "view",
      "type": "function"
    },
    {
      "inputs": [
        {
          "internalType": "uint32",
          "name": "tokenId",
          "type": "uint32"
        }
      ],
      "name": "getScaleFactor",
      "outputs": [
        {
          "internalType": "uint8",
          "name": "",
          "type": "uint8"
        }
      ],
      "stateMutability": "view",
      "type": "function"
    },
    {
      "inputs": [
        {
          "internalType": "uint32",
          "name": "tokenId",
          "type": "uint32"
        }
      ],
      "name": "getTokenAddress",
      "outputs": [
        {
          "internalType": "address",
          "name": "",
          "type": "address"
        }
      ],
      "stateMutability": "view",
      "type": "function"
    },
    {
      "inputs": [
        {
          "internalType": "address",
          "name": "tokenAddress",
          "type": "address"
        }
      ],
      "name": "getTokenId",
      "outputs": [
        {
          "internalType": "uint32",
          "name": "",
          "type": "uint32"
        }
      ],
      "stateMutability": "view",
      "type": "function"
    },
    {
      "inputs": [
        {
          "internalType": "address",
          "name": "tokenAddress",
          "type": "address"
        }
      ],
      "name": "getTokenPrice",
      "outputs": [
        {
          "internalType": "uint8",
          "name": "",
          "type": "uint8"
        },
        {
          "internalType": "uint256",
          "name": "",
          "type": "uint256"
        }
      ],
      "stateMutability": "view",
      "type": "function"
    },
    {
      "inputs": [
        {
          "internalType": "address",
          "name": "recipient",
          "type": "address"
        },
        {
          "internalType": "address",
          "name": "tokenAddress",
          "type": "address"
        }
      ],
      "name": "getWithdrawableAmount",
      "outputs": [
        {
          "internalType": "uint256",
          "name": "",
          "type": "uint256"
        }
      ],
      "stateMutability": "view",
      "type": "function"
    },
    {
      "inputs": [
        {
          "internalType": "address",
          "name": "initialOwner",
          "type": "address"
        },
        {
          "internalType": "uint32",
          "name": "_chainId",
          "type": "uint32"
        }
      ],
      "name": "initialize",
      "outputs": [],
      "stateMutability": "nonpayable",
      "type": "function"
    },
    {
      "inputs": [
        {
          "internalType": "uint256",
          "name": "mmPositionAddress",
          "type": "uint256"
        }
      ],
      "name": "initiateMMClose",
      "outputs": [],
      "stateMutability": "nonpayable",
      "type": "function"
    },
    {
      "inputs": [
        {
          "internalType": "uint256",
          "name": "mmAddress",
          "type": "uint256"
        }
      ],
      "name": "isAddressRegistered",
      "outputs": [
        {
          "internalType": "bool",
          "name": "",
          "type": "bool"
        }
      ],
      "stateMutability": "view",
      "type": "function"
    },
    {
      "inputs": [
        {
          "internalType": "uint32",
          "name": "syntheticAsset",
          "type": "uint32"
        }
      ],
      "name": "isMarketRegistered",
      "outputs": [
        {
          "internalType": "bool",
          "name": "",
          "type": "bool"
        }
      ],
      "stateMutability": "view",
      "type": "function"
    },
    {
      "inputs": [
        {
          "internalType": "uint32",
          "name": "tokenId",
          "type": "uint32"
        }
      ],
      "name": "isTokenRegistered",
      "outputs": [
        {
          "internalType": "bool",
          "name": "",
          "type": "bool"
        }
      ],
      "stateMutability": "view",
      "type": "function"
    },
    {
      "inputs": [
        {
          "internalType": "address",
          "name": "tokenAddress",
          "type": "address"
        }
      ],
      "name": "isVaultRegistered",
      "outputs": [
        {
          "internalType": "bool",
          "name": "",
          "type": "bool"
        }
      ],
      "stateMutability": "view",
      "type": "function"
    },
    {
      "inputs": [
        {
          "internalType": "address",
          "name": "tokenAddress",
          "type": "address"
        },
        {
          "internalType": "uint256",
          "name": "amount",
          "type": "uint256"
        },
        {
          "internalType": "uint256",
          "name": "starkKey",
          "type": "uint256"
        }
      ],
      "name": "makeDeposit",
      "outputs": [
        {
          "internalType": "uint64",
          "name": "newAmountDeposited",
          "type": "uint64"
        },
        {
          "internalType": "uint64",
          "name": "depositId",
          "type": "uint64"
        }
      ],
      "stateMutability": "payable",
      "type": "function"
    },
    {
      "inputs": [],
      "name": "owner",
      "outputs": [
        {
          "internalType": "address",
          "name": "",
          "type": "address"
        }
      ],
      "stateMutability": "view",
      "type": "function"
    },
    {
      "inputs": [
        {
          "internalType": "uint32",
          "name": "syntheticToken",
          "type": "uint32"
        },
        {
          "internalType": "uint256",
          "name": "mmPositionAddress",
          "type": "uint256"
        },
        {
          "internalType": "uint256",
          "name": "usdcAmount",
          "type": "uint256"
        }
      ],
      "name": "provideLiquidity",
      "outputs": [],
      "stateMutability": "nonpayable",
      "type": "function"
    },
    {
      "inputs": [],
      "name": "proxiableUUID",
      "outputs": [
        {
          "internalType": "bytes32",
          "name": "",
          "type": "bytes32"
        }
      ],
      "stateMutability": "view",
      "type": "function"
    },
    {
      "inputs": [
        {
          "internalType": "uint32[]",
          "name": "syntheticAssets",
          "type": "uint32[]"
        }
      ],
      "name": "registerNewMarkets",
      "outputs": [],
      "stateMutability": "nonpayable",
      "type": "function"
    },
    {
      "inputs": [
        {
          "internalType": "uint32",
          "name": "syntheticAsset",
          "type": "uint32"
        },
        {
          "internalType": "uint256",
          "name": "positionAddress",
          "type": "uint256"
        }
      ],
      "name": "registerPerpMarketMaker",
      "outputs": [],
      "stateMutability": "nonpayable",
      "type": "function"
    },
    {
      "inputs": [
        {
          "internalType": "address",
          "name": "tokenAddress",
          "type": "address"
        },
        {
          "internalType": "uint32",
          "name": "tokenId",
          "type": "uint32"
        },
        {
          "internalType": "uint8",
          "name": "offchainDecimals",
          "type": "uint8"
        }
      ],
      "name": "registerToken",
      "outputs": [],
      "stateMutability": "nonpayable",
      "type": "function"
    },
    {
      "inputs": [
        {
          "internalType": "uint32",
          "name": "syntheticToken",
          "type": "uint32"
        },
        {
          "internalType": "uint256",
          "name": "mmPositionAddress",
          "type": "uint256"
        }
      ],
      "name": "removeLiquidity",
      "outputs": [],
      "stateMutability": "nonpayable",
      "type": "function"
    },
    {
      "inputs": [],
      "name": "renounceOwnership",
      "outputs": [],
      "stateMutability": "nonpayable",
      "type": "function"
    },
    {
      "inputs": [
        {
          "internalType": "address",
          "name": "",
          "type": "address"
        },
        {
          "internalType": "uint256",
          "name": "",
          "type": "uint256"
        }
      ],
      "name": "s_activeLiqudity",
      "outputs": [
        {
          "internalType": "uint64",
          "name": "initialValue",
          "type": "uint64"
        },
        {
          "internalType": "uint64",
          "name": "vlpAmount",
          "type": "uint64"
        }
      ],
      "stateMutability": "view",
      "type": "function"
    },
    {
      "inputs": [
        {
          "internalType": "uint256",
          "name": "",
          "type": "uint256"
        }
      ],
      "name": "s_aggregateVlpIssued",
      "outputs": [
        {
          "internalType": "uint64",
          "name": "",
          "type": "uint64"
        }
      ],
      "stateMutability": "view",
      "type": "function"
    },
    {
      "inputs": [
        {
          "internalType": "uint256",
          "name": "",
          "type": "uint256"
        }
      ],
      "name": "s_closedPositionLiqudity",
      "outputs": [
        {
          "internalType": "uint64",
          "name": "vlpAmountSum",
          "type": "uint64"
        },
        {
          "internalType": "uint64",
          "name": "returnCollateral",
          "type": "uint64"
        }
      ],
      "stateMutability": "view",
      "type": "function"
    },
    {
      "inputs": [],
      "name": "s_messageRelay",
      "outputs": [
        {
          "internalType": "address",
          "name": "",
          "type": "address"
        }
      ],
      "stateMutability": "view",
      "type": "function"
    },
    {
      "inputs": [
        {
          "internalType": "address",
          "name": "",
          "type": "address"
        },
        {
          "internalType": "uint256",
          "name": "",
          "type": "uint256"
        }
      ],
      "name": "s_pendingAddLiqudityRequests",
      "outputs": [
        {
          "internalType": "uint64",
          "name": "",
          "type": "uint64"
        }
      ],
      "stateMutability": "view",
      "type": "function"
    },
    {
      "inputs": [
        {
          "internalType": "uint256",
          "name": "",
          "type": "uint256"
        },
        {
          "internalType": "uint32",
          "name": "",
          "type": "uint32"
        }
      ],
      "name": "s_pendingDeposits",
      "outputs": [
        {
          "internalType": "uint64",
          "name": "",
          "type": "uint64"
        }
      ],
      "stateMutability": "view",
      "type": "function"
    },
    {
      "inputs": [
        {
          "internalType": "bytes32",
          "name": "",
          "type": "bytes32"
        }
      ],
      "name": "s_pendingRemoveLiqudityRequests",
      "outputs": [
        {
          "internalType": "uint256",
          "name": "",
          "type": "uint256"
        }
      ],
      "stateMutability": "view",
      "type": "function"
    },
    {
      "inputs": [
        {
          "internalType": "uint256",
          "name": "",
          "type": "uint256"
        }
      ],
      "name": "s_perpRegistrations",
      "outputs": [
        {
          "internalType": "address",
          "name": "mmOwner",
          "type": "address"
        },
        {
          "internalType": "uint32",
          "name": "syntheticAsset",
          "type": "uint32"
        },
        {
          "internalType": "uint256",
          "name": "positionAddress",
          "type": "uint256"
        },
        {
          "internalType": "uint32",
          "name": "vlpTokenId",
          "type": "uint32"
        },
        {
          "internalType": "uint64",
          "name": "vlpAmount",
          "type": "uint64"
        }
      ],
      "stateMutability": "view",
      "type": "function"
    },
    {
      "inputs": [
        {
          "internalType": "uint256",
          "name": "",
          "type": "uint256"
        }
      ],
      "name": "s_providedUsdcLiquidity",
      "outputs": [
        {
          "internalType": "uint64",
          "name": "",
          "type": "uint64"
        }
      ],
      "stateMutability": "view",
      "type": "function"
    },
    {
      "inputs": [],
      "name": "s_txBatchId",
      "outputs": [
        {
          "internalType": "uint32",
          "name": "",
          "type": "uint32"
        }
      ],
      "stateMutability": "view",
      "type": "function"
    },
    {
      "inputs": [
        {
          "internalType": "uint32",
          "name": "",
          "type": "uint32"
        }
      ],
      "name": "s_txBatchId2StateRoot",
      "outputs": [
        {
          "internalType": "uint256",
          "name": "",
          "type": "uint256"
        }
      ],
      "stateMutability": "view",
      "type": "function"
    },
    {
      "inputs": [
        {
          "internalType": "uint32",
          "name": "",
          "type": "uint32"
        }
      ],
      "name": "s_txBatchId2Timestamp",
      "outputs": [
        {
          "internalType": "uint256",
          "name": "",
          "type": "uint256"
        }
      ],
      "stateMutability": "view",
      "type": "function"
    },
    {
      "inputs": [
        {
          "internalType": "uint256",
          "name": "amount",
          "type": "uint256"
        },
        {
          "internalType": "uint32",
          "name": "tokenId",
          "type": "uint32"
        }
      ],
      "name": "scaleDown",
      "outputs": [
        {
          "internalType": "uint64",
          "name": "amountScaled",
          "type": "uint64"
        }
      ],
      "stateMutability": "view",
      "type": "function"
    },
    {
      "inputs": [
        {
          "internalType": "uint64",
          "name": "amount",
          "type": "uint64"
        },
        {
          "internalType": "uint32",
          "name": "tokenId",
          "type": "uint32"
        }
      ],
      "name": "scaleUp",
      "outputs": [
        {
          "internalType": "uint256",
          "name": "amountScaled",
          "type": "uint256"
        }
      ],
      "stateMutability": "view",
      "type": "function"
    },
    {
      "inputs": [
        {
          "internalType": "address[]",
          "name": "tokenAddress",
          "type": "address[]"
        },
        {
          "internalType": "address[]",
          "name": "aggregatorAddresses",
          "type": "address[]"
        }
      ],
      "name": "setClAggregators",
      "outputs": [],
      "stateMutability": "nonpayable",
      "type": "function"
    },
    {
      "inputs": [
        {
          "internalType": "address",
          "name": "newVerirfier",
          "type": "address"
        }
      ],
      "name": "setEscapeVerifier",
      "outputs": [],
      "stateMutability": "nonpayable",
      "type": "function"
    },
    {
      "inputs": [
        {
          "internalType": "address",
          "name": "newRelay",
          "type": "address"
        }
      ],
      "name": "setMessageRelay",
      "outputs": [],
      "stateMutability": "nonpayable",
      "type": "function"
    },
    {
      "inputs": [
        {
          "internalType": "uint32",
          "name": "_txBatchId",
          "type": "uint32"
        },
        {
          "internalType": "uint256",
          "name": "_stateRoot",
          "type": "uint256"
        }
      ],
      "name": "setTxBatchInfo",
      "outputs": [],
      "stateMutability": "nonpayable",
      "type": "function"
    },
    {
      "inputs": [
        {
          "internalType": "address",
          "name": "tokenAddress",
          "type": "address"
        },
        {
          "internalType": "uint256",
          "name": "starkKey",
          "type": "uint256"
        }
      ],
      "name": "startCancelDeposit",
      "outputs": [],
      "stateMutability": "nonpayable",
      "type": "function"
    },
    {
      "inputs": [
        {
          "internalType": "uint256",
          "name": "starkKey",
          "type": "uint256"
        }
      ],
      "name": "startCancelETHDeposit",
      "outputs": [],
      "stateMutability": "nonpayable",
      "type": "function"
    },
    {
      "inputs": [
        {
          "internalType": "address",
          "name": "newOwner",
          "type": "address"
        }
      ],
      "name": "transferOwnership",
      "outputs": [],
      "stateMutability": "nonpayable",
      "type": "function"
    },
    {
      "inputs": [
        {
          "internalType": "uint256",
          "name": "mmPositionAddress",
          "type": "uint256"
        }
      ],
      "name": "tryCancelAddLiquidity",
      "outputs": [],
      "stateMutability": "nonpayable",
      "type": "function"
    },
    {
      "inputs": [
        {
          "internalType": "uint256[]",
          "name": "programOutput",
          "type": "uint256[]"
        }
      ],
      "name": "updateStateAfterTxBatch",
      "outputs": [],
      "stateMutability": "nonpayable",
      "type": "function"
    },
    {
      "inputs": [
        {
          "internalType": "address",
          "name": "newImplementation",
          "type": "address"
        },
        {
          "internalType": "bytes",
          "name": "data",
          "type": "bytes"
        }
      ],
      "name": "upgradeToAndCall",
      "outputs": [],
      "stateMutability": "payable",
      "type": "function"
    },
    {
      "inputs": [],
      "name": "version",
      "outputs": [
        {
          "internalType": "uint256",
          "name": "",
          "type": "uint256"
        }
      ],
      "stateMutability": "view",
      "type": "function"
    },
    {
      "inputs": [],
      "name": "withdrawalLiquidity",
      "outputs": [],
      "stateMutability": "nonpayable",
      "type": "function"
    }
  ],
  "bytecode": "0x60a0806040523461002b57306080526155bc9081620000318239608051818181612cb80152612f4c0152f35b600080fdfe60c080604052600436101561001357600080fd5b600090813560e01c90816301f079e314613cca5750806305560c79146139d8578063063f2ada1461390d578063105a88e3146138d0578063149e7f41146138965780631dffcf6f146138565780632440fdc2146137df57806325e8eecb146137825780632f6817221461371557806335fd59b5146134955780633671a8f21461346f57806337caeedd14613367578063401a1ff114613334578063423ec4be1461324d57806343d105a714613207578063462de13f146131dd57806346c58227146131925780634e062132146131495780634f1ef28614612ed05780635250e16814612d3257806352d1902d14612c9d578063543d7a1914612c4d57806354fd4d5014612c2f57806357be454414612be65780636025557814612a115780636d3ed747146129d7578063715018a61461295c57806374a0b7ae146127d6578063781f358a146127af57806388526682146127775780638cb66241146127425780638da5cb5b146126fc57806399bf59641461269f5780639d49e3481461266c578063ad3cb1cc146125d5578063b1a75c72146125a7578063c0beaaee14612443578063c488a05c146123f9578063c5e4c9f9146121e8578063d02641a0146121b5578063d236c24714610723578063d28ff48f146106eb578063deb6cecd1461068e578063e03462f414610659578063e3564dd314610609578063e7273eeb146105e4578063e8da278a146105a5578063e9dfa0fe146104c3578063efae440614610480578063f153768614610442578063f2fde38b14610415578063f340470b14610358578063f6f01b871461031e578063f875089e146102c85763fce4624d1461027e57600080fd5b346102c557806003193601126102c5576102966149ce565b61029e6148bc565b60017f9b779b17422d0df92223018b32b4d1fa46e071723d6817e2486d003becc55f005580f35b80fd5b50346102c55760403660031901126102c5576102e2613d2b565b63ffffffff602435916102f3614920565b168063ffffffff19601c541617601c558161030c578280f35b8252601d602052604082205538808280f35b50346102c55760203660031901126102c55760ff604060209263ffffffff610344613d2b565b168152601284522054166040519015158152f35b50346102c55760403660031901126102c5576001600160401b036004358181116104115761038a903690600401613e61565b909160243590811161040d576103a4903690600401613e61565b90916103ae614920565b845b8181106103bb578580f35b806103d16103cc60019385896146a6565b6146b6565b6103df6103cc8387896146a6565b906001600160a01b03809116895260166020526040892091166001600160a01b0319825416179055016103b0565b8380fd5b8280fd5b50346102c55760203660031901126102c55761043f610432613cec565b61043a614920565b61481e565b80f35b50346102c55760203660031901126102c55763ffffffff60406020926001600160a01b0361046e613cec565b16815260138452205416604051908152f35b50346102c55760203660031901126102c5576004358152600660209081526040918290205482516001600160401b03808316825291841c90911691810191909152f35b50346102c5576020806003193601126105a157600435906001600160401b03821161041157366023830112156104115781600401359161050283613e91565b926105106040519485613e25565b8084526024602085019160051b8301019136831161059d57602401905b82821061057c5750505061053f614920565b825b8251811015610578578063ffffffff61055c6001938661480a565b511685526008835260408520805460ff19168317905501610541565b8380f35b813563ffffffff8116810361059857815290830190830161052d565b600080fd5b8580fd5b5080fd5b50346102c55760203660031901126102c5576001600160a01b036105c7613cec565b6105cf614920565b166001600160a01b0319601754161760175580f35b50346102c55760203660031901126102c5576105fe6149ce565b61029e600435614e3b565b50346102c55760403660031901126102c5576001600160a01b0361062b613cec565b610633614920565b168152600960205260408120602435825260205260408120600160ff1982541617905580f35b50346102c55760203660031901126102c557604060209163ffffffff61067d613d2b565b168152601e83522054604051908152f35b50346102c55760203660031901126102c55760008052601360205260206106e363ffffffff604060002054166004356000526018835260406000208160005283526001600160401b0360406000205416614610565b604051908152f35b50346102c55760203660031901126102c55760ff604060209263ffffffff610711613d2b565b16815260158452205416604051908152f35b50346102c55760203660031901126102c5576004356001600160401b0381116105a157610754903690600401613e61565b919061075e614920565b6107666149ce565b61076e61519d565b50826004116105a15761077f61519d565b506040519061078d82613d8a565b63ffffffff6040820135168252803560208301526020810135604083015260ff604082013560401c16606083015263ffffffff604082013560201c16608083015261ffff606082013560501c1660a083015261ffff606082013560401c1660c083015261ffff606082013560301c1660e083015261ffff606082013560201c1661010083015261ffff60608201351661012083015261ffff606082013560101c166101408301528260a060405161084381613da6565b82815282602082015282604082015282606082015282608082015201526003198401156121a1576040519361087785613da6565b63ffffffff608083810135608881901c8316885260ff81831c166020808a0191909152606082811c85166040808c0182905284901c8616918b01919091529082901c841692890192909252821660a08801526003029081160361218d5763ffffffff8080608085013560601c16600302166001011161218d5763ffffffff6060860151166005028063ffffffff811603612179579061094961093863ffffffff61097495941663ffffffff80608087013560601c1660030216600101613f94565b63ffffffff60808901511690613f94565b91608063ffffffff6109676003198501958260a08c01511690613f94565b16926003190191016151f0565b63ffffffff61099061098b8260a089015116615223565b61520b565b16918183116118e5576109a560038404613e91565b926109b36040519485613e25565b60038104808552601f19906109c790613e91565b01865b818110612162575050855b8181106120ca57505090610a02918163ffffffff6109fb61098b8260a08c015116615223565b16916151f0565b90610a1461ffff60a086015116615239565b8261ffff82161161059d57610a40610a32617fff8360011c16613e91565b604051608052608051613e25565b617fff8160011c1660805152601f19610a5f617fff8360011c16613e91565b01865b8181106120a5575050855b61ffff8216811061202557505090610a92918161ffff6109fb8160a089015116615239565b610aa661ffff60c086959495015116615239565b928161ffff85161161059d57610ac2617fff8560011c16613e91565b93610ad06040519586613e25565b600181901c617fff16808652601f1990610ae990613e91565b01875b818110612002575050865b61ffff82168110611f6857505090610b1c918161ffff6109fb8160c08a015116615239565b9061ffff610b2f8160e088015116615250565b16918083116117865786908792889489938a5b828110611ec65750610b5963ffffffff8216615318565b95610b6963ffffffff8216615318565b60a052610b7b63ffffffff8916615318565b97610b8b63ffffffff8816615318565b968d935b858510611d3b5750505050505090610bb4918161ffff6109fb8160e08d015116615250565b610bdb610bd661ffff6101008b959b01511661ffff610140860151169061527d565b615266565b978161ffff8a1611611c1c57610bf7613fff8a60021c16613e91565b98610c056040519a8b613e25565b600281901c613fff16808b52610c1a90613e91565b8a8c5b8d601f1984018210611d0b57925050505b61ffff82168110611c3457505090610c60918161ffff6109fb610bd68261010089015116836101408a0151169061527d565b600761ffff6101208501511602908161ffff811603611c205761ffff821611611c1c57610c93600761ffff831604613e91565b91610ca16040519384613e25565b600761ffff831604808452610cb590613e91565b8b5b601f1982018110611bda5750508a5b61ffff83168110611a52575050506001600160401b0382511697895b60805151811015610df057610cf98160805161480a565b51906020825192015191828d52601860205260408d208d63ffffffff8360401c1690526020528c6001600160401b0360408184169220541610610d86576001928d52601860205260408d208d63ffffffff8360401c16905260205260408d20906001600160401b03610d71818454931682841661403f565b16906001600160401b03191617905501610ce2565b608460405162461bcd60e51b815260206004820152602860248201527f416e20696e76616c6964206465706f736974207761732065786563757465642060448201527f6f6666636861696e0000000000000000000000000000000000000000000000006064820152fd5b507fe73055b4c53403597e4db3f0eb4dd4ca358a3d2cdf10ce573b8ec0d7a057ea0b610e3d8b9798999a60405191829142839092916001600160401b036020916040840195845216910152565b0390a1610e48615368565b6001600160401b038351169763ffffffff6011541697875b8b51811015610fec5780610e766001928e61480a565b518b8151918c8560ff8560801c161493602063ffffffff8260601c166001600160401b0363ffffffff8460401c169316946001600160a01b03928391015116957f68bd1d55c96cd597bd2b71e4f8038d1c75b84ab7de94a2458e5d810528fade5460a06040518a8152846020820152866040820152886060820152896080820152a18515610fdf5703610fd45760408383610f1a9552601460205220541692614610565b9215610fac5780610f685750610f3082826154c8565b15610f3f575b50505b01610e60565b8b52601b60205260408b208b8052602052610f5f60408c20918254614032565b90558d80610f36565b90610f74838284614cd1565b15610f82575b505050610f39565b8c52601b60205260408c20908c52602052610fa260408c20918254614032565b90558d8080610f7a565b908c52601b60205260408c20908c52602052610fcd60408c20918254614032565b9055610f39565b505050505050610f39565b5050505050505050610f39565b50604080514281526001600160401b038c166020820152979896977fb6b024ed190b1c1f8da1d5ad2646a7311d56e5bc0fe8cc956a9e7b453f45d2039190a1855b88518110156110c457806110436001928b61480a565b5160408101519051808a52600b60205260408a20600281019163ffffffff8460481c1663ffffffff8454161491826110b7575b5050611085575b50500161102d565b80546bffffffffffffffff00000000191660189290921b6bffffffffffffffff00000000169190911790558a8061107d565b8601541490508d80611076565b508695939495638fdd705b855260146020526001600160a01b0360408620541693855b60a0515181101561129857808761110260019360a05161480a565b516040810151906001600160401b03808360481c169260081c16916001600160a01b0360208301511691519180855284602052604085208386526020526001600160401b036040808720968754978361115d89828c1661403f565b168419809a16179055858152600c60205220541661126257808d5260026020528c8360408220915260205260408d208054866001600160401b036111a3868285166144e5565b1691161790558c52600260205260408c20828d5260205261120960408d206111d8856001600160401b03835460401c166144e5565b6fffffffffffffffff0000000000000000196fffffffffffffffff000000000000000083549260401b169116179055565b818c52600360205260408c2090846001600160401b0361122d8454938285166144e5565b1691161790558a52600460205260408a20916001600160401b036112558454938285166144e5565b1691161790555b016110e7565b9350905061127091506145ba565b908952601b60205260408920888a5260205261129160408a20918254614032565b905561125c565b508688969495600154805b611948575050638fdd705b855260146020526001600160a01b0360408620541696855b855181101561145757806112dc6001928861480a565b518a61142461141f8b60408501516001600160401b038160881c16906001600160401b03808260481c169160081c16916001600160a01b0360208901511697519188855260026020526040852083865260205260408520906113668254926111d8836001600160401b038061135389828a1661403f565b1681198098161780855560401c1661403f565b8386526003602052604086208054836001600160401b036113898782851661403f565b169116179055838652600460205260408620916001600160401b036113b284549382851661403f565b16911617905580831160001461144b57604060056001600160401b036113db611418948761403f565b1604945b6113e8866145ba565b938152600b6020526001600160a01b0382822054168152601b988960205282822090825260205220918254614032565b905561403f565b6145ba565b918a52602052604089208b8a5260205261144360408a20918254614032565b9055016112c6565b506114186040846113df565b5090859187638fdd705b845260146020526001600160a01b0360408520541692845b87518110156115b95780856115976114936001948c61480a565b516001600160401b036040820151918b826040818660881c1692611535838860081c1695519586835260036020528383209585199687815416905560046020528484208781541690558082116000146115b157856114f36005928461403f565b1604905b611500826145ba565b888552600b9c8d6020526001600160a01b0387872054168652601b602052868620908652602052611418868620918254614032565b94838351986115438a613d3e565b60481c16885283602089019616865281526006602052209451169084541617835551166fffffffffffffffff0000000000000000196fffffffffffffffff000000000000000083549260401b169116179055565b602052866002604082208281558285820155015501611479565b5082906114f7565b50849350856001600160a01b0360215416803b1561059d579085906040519283917f52fa4c5300000000000000000000000000000000000000000000000000000000835260248301602060048501528151809152602060448501920190855b818110611907575050508383809203925af180156118fc576118e9575b506001600160a01b0360215416803b156118e557908491604051917f1ac8bd1800000000000000000000000000000000000000000000000000000000835260248301602060048501528151809152602060448501920190855b818110611880575050508391838381809403925af1801561187557611861575b5063ffffffff835116815b835181101561178a5763ffffffff6116d1828661480a565b51511660206116e0838761480a565b5101519060406116f0848861480a565b510151916001600160a01b0360175416803b156117865786928360849260405196879586947f118ef8e100000000000000000000000000000000000000000000000000000000865260048601528a6024860152604485015260648401525af190811561177b578491611767575b50506001016116b9565b61177090613e12565b61041157828761175d565b6040513d86823e3d90fd5b8680fd5b5083908252601f60205260408220600160ff1982541617905563ffffffff6117b481835116613f69565b16601c54908063ffffffff19831617601c558360408401519216178352601d602052604083205563ffffffff601c54168252601e6020524260408320557fd5c40af847bcc10a4f276f644544573d98e6365a5e1e311a8b1248237b4cb977606063ffffffff601c541692604060208201519101516040519182526020820152426040820152a260017f9b779b17422d0df92223018b32b4d1fa46e071723d6817e2486d003becc55f005580f35b61186a90613e12565b6104115782846116ae565b6040513d84823e3d90fd5b919394955091602060e060019260c08751805183526001600160a01b0385820151168584015260408101516040840152606081015160608401526080810151608084015260a081015160a0840152015160c0820152019401910191889594939261168e565b8480fd5b6118f590949194613e12565b9284611635565b6040513d87823e3d90fd5b926020919496508295506080906060600194518051835284810151858401526040810151604084015201516060820152019401910190899492869492611618565b80600019810111611a17576119606000198201613f19565b506040519061196e82613d3e565b60016001600160a01b03825416918284520154906020830191825289528860205260408920905189526020526001600160a01b036119b86001600160401b0360408b2054166145ba565b9151168852601b602052604088208389526020526119db60408920918254614032565b90556001548015611a3e576119f36000198201613f19565b611a2b576001818a8093550155600019016001558015611a175760001901806112a3565b602487634e487b7160e01b81526011600452fd5b602489634e487b7160e01b815280600452fd5b602488634e487b7160e01b81526031600452fd5b611a618161ffff8516846146a6565b35600182018211611bc6576001600160a01b03611a866001840161ffff8716866146a6565b351660028301808411611bb257611aa29061ffff8716866146a6565b35600384018411611bb257611abf6003850161ffff8816876146a6565b35600485018511611b9d57611adc6004860161ffff8916886146a6565b359060058601808711611b8657611af89061ffff8a16896146a6565b3592600687018711611b865790611b649594939291611b1f6006890161ffff8c168b6146a6565b359460405196611b2e88613df7565b8752602087015260408601526060850152608084015260a083015260c08201526007830490611b5d828861480a565b528561480a565b506007810180911115610cc6575b60248c634e487b7160e01b81526011600452fd5b50505060248f634e487b7160e01b81526011600452fd5b5060248f634e487b7160e01b81526011600452fd5b60248f634e487b7160e01b81526011600452fd5b60248d634e487b7160e01b81526011600452fd5b6020908d60405190611beb82613df7565b80825280848301528060408301528060608301528060808301528060a083015260c082015282828801015201610cb7565b8980fd5b60248b634e487b7160e01b81526011600452fd5b611c438161ffff8416856146a6565b35600182018211611bc657611c606001830161ffff8516866146a6565b35600283018311611cf757611c7d6002840161ffff8616876146a6565b35600384018411611bb257918d91611cd693611ca16003870161ffff89168a6146a6565b359160405193611cb085613ddc565b8452602084015260408301526060820152611ccf8460021c809361480a565b528c61480a565b506004810180911115610c2e5760248c634e487b7160e01b81526011600452fd5b60248e634e487b7160e01b81526011600452fd5b602082819460405193611d1d85613ddc565b80855280848601528060408601526060850152010152018b90610c1d565b611d468587896146a6565b3560018601808711611eb057611d5d90888a6146a6565b35600287018711611eb057908c8b60ff8e94611d7e8d8d60028e01916146a6565b359060405195611d8d87613dc1565b86526020860152806040860152168015600014611de55750505081611dcc91611ccf611dc5611dd296955163ffffffff871690615293565b809361480a565b50615223565b935b60038101809111611bb25793610b8f565b94989794929350909160018103611e315750505090611dcc611e2b92611e1560a0515163ffffffff851690615293565b90611e228260a05161480a565b5260a05161480a565b92611dd4565b9396959391929160028103611e6d57505081611dcc91611e60611dc5611e6796955163ffffffff871690615293565b528d61480a565b91611dd4565b600391935095939514611e82575b5050611dd4565b81611dcc91611ea1611dc5611ea89697955163ffffffff871690615293565b528b61480a565b908838611e7b565b505060248f634e487b7160e01b81526011600452fd5b90600282018211611b725760ff611ee16002840185876146a6565b351680611f145750611ef290613f69565b905b6003810180911115610b425760248c634e487b7160e01b81526011600452fd5b9196909160018103611f315750611f2a90613f69565b955b611ef4565b9697909660028103611f4d5750611f4790613f69565b96611ef4565b90979060021901611f2c5794611f6290613f69565b94611ef4565b611f778161ffff8416856146a6565b35600182018211611fee57611fcc906001600160a01b03611fa06001850161ffff8716886146a6565b351660405191611faf83613d3e565b825260208201528260011c90611fc5828a61480a565b528761480a565b506002810180911115610af7575b602488634e487b7160e01b81526011600452fd5b602489634e487b7160e01b81526011600452fd5b60209060405161201181613d3e565b8a81528a8382015282828a01015201610aec565b6120348161ffff8416856146a6565b35600182018211611fda57612084906120556001840161ffff8616876146a6565b356040519161206383613d3e565b825260208201528260011c9061207b8260805161480a565b5260805161480a565b506002810180911115610a6d57602487634e487b7160e01b81526011600452fd5b6020906040516120b481613d3e565b8981528983820152828260805101015201610a62565b63ffffffff6120da8284866146a6565b351660018201808311611fee576120f29084866146a6565b35600283018311611fee5790612141916121106002850186886146a6565b35906040519261211f84613dc1565b835260208301526040820152600383049061213a828961480a565b528661480a565b5060038101809111156109d557602487634e487b7160e01b81526011600452fd5b60209061216d6152f9565b828289010152016109ca565b602485634e487b7160e01b81526011600452fd5b602484634e487b7160e01b81526011600452fd5b602483634e487b7160e01b81526032600452fd5b50346102c55760203660031901126102c55760406121d96121d4613cec565b6146e3565b60ff8351921682526020820152f35b50346102c55760403660031901126102c557612202613cec565b61220a613d18565b7ff0c57e16840df040f15088dc2f81fe391c3923bec73e23a9662efc9c229c6a0091825460ff8160401c1615906001600160401b038116928315806123f2575b600180951490816123e8575b1590816123df575b506123b55767ffffffffffffffff1982168417865561228e9183612396575b506122866152a0565b61043a6152a0565b6122966152a0565b848052816020936013855263ffffffff6040882091631b0bc2a88219938185825416179055895260148752604089206001600160a01b03198154169055601587526040892060ff1990600a828254161790556012885260408a208582825416179055898052600f88528460408b209182541617905516816011541617601155601c541617601c55818552601d83527f056b03fb25a6b461493d8d902f42874dde8b8422fd27f7869e70e61132bdcd2f604086205581602255612356578380f35b7fc7f505b2f371ae2175ee4913f4499e1f2633a7b5936321eed1cdaeb6115181d29268ff0000000000000000198154169055604051908152a13880808380f35b68ffffffffffffffffff1916680100000000000000011786553861227d565b60046040517ff92ee8a9000000000000000000000000000000000000000000000000000000008152fd5b9050153861225e565b303b159150612256565b508261224a565b50346102c55760403660031901126102c5576001600160401b0360406020926001600160a01b03612428613cec565b16815280845281812060243582528452205416604051908152f35b50346102c5576020806003193601126105a1576004356001600160401b03811161041157612475903690600401613e61565b6124809291926149ce565b612488614920565b83805b8281106124ba575060017f9b779b17422d0df92223018b32b4d1fa46e071723d6817e2486d003becc55f005580f35b6001600160a01b036124d06103cc8386896146a6565b16808352600e8552846040842091825492836124f7575b505050506001915001849061248b565b8590558061252657505082808060019561251c94335af16125166143ef565b50614482565b85918438806124e7565b60405163a9059cbb60e01b815233600482015260248101939093529193909184916044918391905af191821561259c5760019261256a91889161256f575b506143a4565b61251c565b61258f9150863d8811612595575b6125878183613e25565b81019061446a565b38612564565b503d61257d565b6040513d88823e3d90fd5b50346102c55760403660031901126102c55761029e6125c4613cec565b6125cc6149ce565b6024359061503a565b50346102c557806003193601126102c5576040516125f281613d3e565b600581526020917f352e302e30000000000000000000000000000000000000000000000000000000602083015260405192839160208352835191826020850152815b83811061265557505060408094508284010152601f80199101168101030190f35b808601820151878201604001528694508101612634565b50346102c55760203660031901126102c5576001600160401b036040602092600435815260048452205416604051908152f35b50346102c55760403660031901126102c5576106e36020916001600160a01b036126c7613d02565b168152601383526001600160401b03604063ffffffff8184205416926004358152601886528181208482528652205416614610565b50346102c557806003193601126102c55760206001600160a01b037f9016d09d72d40fdae2fd8ceac6b6234c7706214fd39c1cd1e609a0528c1993005416604051908152f35b50346102c55760203660031901126102c557604060209163ffffffff612766613d2b565b168152601d83522054604051908152f35b50346102c55760403660031901126102c557602061279e612796613d18565b600435614654565b6001600160401b0360405191168152f35b50346102c557806003193601126102c55760206001600160a01b0360175416604051908152f35b50346102c5576020806003193601126105a157600435808352600c82526001600160401b039182604085205416156129185763ffffffff9283601c5416838652600c83528160408720541610156128ae57916080917ff0be4d45a4b0c97a58e137eb4e5f3ee1946352b0634474b7f181b1d9e00b4c4a9382875260038252806040882054169060048352604088205416916007549687821c169667ffffffff0000000061288289613fac565b831b169067ffffffff00000000191617600755604051938452339084015260408301526060820152a280f35b6084826040519062461bcd60e51b82526004820152602d60248201527f5761697420666f7220746865206e65787420626174636820746f20636c6f736560448201527f2074686520706f736974696f6e000000000000000000000000000000000000006064820152fd5b6064906040519062461bcd60e51b82526004820152601460248201527f496e69746961746520636c6f73652066697273740000000000000000000000006044820152fd5b50346102c557806003193601126102c557612975614920565b806001600160a01b037f9016d09d72d40fdae2fd8ceac6b6234c7706214fd39c1cd1e609a0528c1993008054906001600160a01b031982169055167f8be0079c531659141344cd1fd0a4f28419497f9722a3daafe3b4186f6b6457e08280a380f35b50346102c55760403660031901126102c557600435906001600160401b03821682036102c55760206106e383612a0b613d18565b90614610565b50346102c55760603660031901126102c557612a2b613d2b565b6024356044359063ffffffff80931684526020916008835260ff60408620541615612ba25791612b2d827faa43054738c0ccc1d25109def7436a8b764fbd8a5415e121d2a16c2f84d5a4b794612aa7612aa2606096600052600b6020526001600160401b0360026040600020015460201c16151590565b613ea8565b818852600c84526001600160401b03928391612ac98360408c20541615613fc1565b89612aed826001600160a01b036040638fdd705b9485815260148c52205416614d6a565b808b5260128752612b0460ff60408d205416614500565b8a5260158652612b2760ff60408c205416612b22601282111561454b565b614596565b90614634565b16913388528784526040882082895284526040882090815490612b52858284166144e5565b16906001600160401b0319161790556007549586841c169567ffffffff00000000612b7c88613fac565b851b169067ffffffff00000000191617600755604051923384528301526040820152a280f35b6064836040519062461bcd60e51b82526004820152601760248201527f6d61726b65742069736e277420726567697374657265640000000000000000006044820152fd5b50346102c55760403660031901126102c5576001600160401b036040602092612c0d613d18565b60043582526018855263ffffffff838320911682528452205416604051908152f35b50346102c557806003193601126102c5576020602254604051908152f35b50346102c55760203660031901126102c5576020612c8c612c6c613d2b565b63ffffffff1660005260146020526001600160a01b036040600020541690565b6001600160a01b0360405191168152f35b50346102c557806003193601126102c5576001600160a01b037f0000000000000000000000000000000000000000000000000000000000000000163003612d085760206040517f360894a13ba1a3210667c828492db98dca3e2076cc3735a920a3ca505d382bbc8152f35b60046040517fe07c8dba000000000000000000000000000000000000000000000000000000008152fd5b50346102c55760603660031901126102c557612d4c613cec565b6024356001600160a01b0380821680920361040d578060443593612d6e6149ce565b16808552602091600f8352612d8960ff60408820541661441f565b600d54163303612e66578315612e22578492919080612db6575050818061029e9481935af16125166143ef565b9281949192604491604051958694859363a9059cbb60e01b8552600485015260248401525af1908115612e1757612df5928492612dfa575b50506143a4565b61029e565b612e109250803d10612595576125878183613e25565b3880612dee565b6040513d85823e3d90fd5b6064826040519062461bcd60e51b82526004820152601660248201527f4e6f2070656e64696e67207769746864726177616c73000000000000000000006044820152fd5b6084826040519062461bcd60e51b82526004820152602a60248201527f4f6e6c792065736361706556657269666965722063616e2063616c6c2074686960448201527f732066756e6374696f6e000000000000000000000000000000000000000000006064820152fd5b5060403660031901126102c557612ee5613cec565b60249182356001600160401b0381116105a157366023820112156105a157806004013592612f1284613e46565b612f1f6040519182613e25565b848152602094858201933688838301011161059d57818692898993018737830101526001600160a01b03807f00000000000000000000000000000000000000000000000000000000000000001680301490811561311b575b50612d0857612f84614920565b821694604051907f52d1902d00000000000000000000000000000000000000000000000000000000825280826004818a5afa91829187936130eb575b5050612fdd57868660405190634c9c8ce360e01b82526004820152fd5b8590877f360894a13ba1a3210667c828492db98dca3e2076cc3735a920a3ca505d382bbc918281036130bd5750843b156130a7575080546001600160a01b031916821790556040518592917fbc7cd75a20ee27fd9adebab32041f755214dbc6bffa90cc0225b39da2e5c2d3b8480a2815115613071575061306d9382915190845af46130676143ef565b916154f3565b5080f35b93505050503461307f575080f35b807fb398979f0000000000000000000000000000000000000000000000000000000060049252fd5b8260405190634c9c8ce360e01b82526004820152fd5b604051907faa1d49a40000000000000000000000000000000000000000000000000000000082526004820152fd5b9080929350813d8311613114575b6131038183613e25565b8101031261059d5751903880612fc0565b503d6130f9565b9050817f360894a13ba1a3210667c828492db98dca3e2076cc3735a920a3ca505d382bbc5416141538612f77565b50346102c55760203660031901126102c5576001600160a01b0361316b613cec565b613173614920565b166001600160a01b031981816021541617602155600d541617600d5580f35b50346102c55760403660031901126102c55760406020916131b1613cec565b6131b9613d02565b6001600160a01b039182168352601b85528383209116825283522054604051908152f35b50346102c55760203660031901126102c55760406020916004358152600583522054604051908152f35b50346102c55760203660031901126102c5576020613243600435600052600b6020526001600160401b0360026040600020015460201c16151590565b6040519015158152f35b50346102c55760403660031901126102c557613267613cec565b61326f613d02565b6132776149ce565b6001600160a01b039081831692838552601b602052604085209282169283865260205260408520549182156132f0578593858552601b60205260408520818652602052846040812055156000146132dc5750508180809261029e955af16125646143ef565b612df594506132eb9350614cd1565b6143a4565b606460405162461bcd60e51b815260206004820152601e60248201527f4e6f2070656e64696e67207769746864726177616c20746f20636c61696d00006044820152fd5b50346102c55760203660031901126102c5576001600160401b036040602092600435815260038452205416604051908152f35b50346102c5576020806003193601126105a15760043590818352600b8152604083206040519061339682613d6f565b80549160806001600160401b0360026001600160a01b0386169485855263ffffffff809760a01c16888601526001810154604086015201548581166060850152861c1691015233036134055790600c91601c54169284525260408220906001600160401b031982541617905580f35b6084826040519062461bcd60e51b82526004820152602560248201527f4f6e6c7920746865206f776e65722063616e20636c6f73652074686520706f7360448201527f6974696f6e0000000000000000000000000000000000000000000000000000006064820152fd5b50346102c55760403660031901126102c55761043f61348c613d2b565b60243590614058565b50346102c55760403660031901126102c5576134af613d2b565b60243533835260206009815260408420828552815260ff604085205416156136ab5763ffffffff8093168085526008825260ff604086205416156136675790849160075493858516918661350284613f69565b1692620186a084101561059d57836001600160401b03847fddca15dfa1b739a175377817c0cf5b0d58d64fb228328239b6e538890a2aa850998b600260809b8261354e61362199613f69565b1663ffffffff19809516176007558b6040519161356a83613d6f565b3383526001600160a01b036040838501928d8452600b828701958b8752606088019d8e52608088019b838d52835252209351167fffffffffffffffff00000000000000000000000000000000000000000000000077ffffffff00000000000000000000000000000000000000008554935160a01b16921617178255516001820155019451169084541617835551166bffffffffffffffff0000000082549160201b16906bffffffffffffffff000000001916179055565b6007549687851c169667ffffffff0000000061363c89613fac565b861b169067ffffffff000000001916176007556040519333855284015260408301526060820152a280f35b6064826040519062461bcd60e51b82526004820152601a60248201527f50657270206d61726b657420646f6573206e6f742065786973740000000000006044820152fd5b6084906040519062461bcd60e51b82526004820152602d60248201527f4f6e6c7920617070726f7665642070657270206d61726b6574206d616b65727360448201527f2063616e207265676973746572000000000000000000000000000000000000006064820152fd5b50346102c55760203660031901126102c557604060a0916004358152600b602052206001600160401b0381549163ffffffff600260018301549201549181604051956001600160a01b0381168752871c16602086015260408501528116606084015260201c166080820152f35b50346102c55760403660031901126102c5576040906001600160a01b036137a7613cec565b168152600260209081528282206024358352815291902054604080516001600160401b03808416825292821c90921692820192909252f35b5060603660031901126102c5576138166137f7613cec565b6137ff6149ce565b63ffffffff60115416906044359060243590614a73565b60017f9b779b17422d0df92223018b32b4d1fa46e071723d6817e2486d003becc55f0055604080516001600160401b039384168152919092166020820152f35b50346102c55760203660031901126102c55760406020916001600160a01b0361387d613cec565b168152601b835281812081805283522054604051908152f35b50346102c55760203660031901126102c55760ff604060209263ffffffff6138bc613d2b565b168152600884522054166040519015158152f35b50346102c55760203660031901126102c55760ff60406020926001600160a01b036138f9613cec565b168152600f84522054166040519015158152f35b50346102c55760203660031901126102c55760043561394b612aa282600052600b6020526001600160401b0360026040600020015460201c16151590565b6040519061395882613d3e565b33825260208201908152600154680100000000000000008110156139c4578060016139869201600155613f19565b9290926139b157906001600160a01b0360019251166001600160a01b03198454161783555191015580f35b602484634e487b7160e01b815280600452fd5b602484634e487b7160e01b81526041600452fd5b50346102c55760603660031901126102c5576139f2613cec565b6139fa613d18565b906044359060ff821680920361040d57613a12614920565b6001600160a01b03809116918215613c865763ffffffff809416918215613c4257613a6390848752613a506020966013885260408920541615614983565b8387526014865260408720541615614983565b620186a08211156118e55760405163313ce56760e01b81528481600481875afa801561259c5760ff918791613c15575b50160360ff81116121795760ff169060128211613bd15760607fa0fa9e6f8b5151671d99d8a21fbee478f03ed8c5078386b9716ed66db871ccec9184875260138652604087208163ffffffff198254161790558087526014865260408720856001600160a01b031982541617905560158652604087209360ff19948186825416179055601287526040882060018682541617905560405191868352878301526040820152a1818452600f835260ff604085205416613b8d57907f2db5c923577787b86e45d0fc2e5d9e9a655c9b0d7802164b4e967544fe4078649291818552600f835260016040862091825416179055604051908152a180f35b6064836040519062461bcd60e51b82526004820152601860248201527f5661756c7420616c7265616479207265676973746572656400000000000000006044820152fd5b6064846040519062461bcd60e51b82526004820152601660248201527f5363616c6520666163746f7220746f6f206c61726765000000000000000000006044820152fd5b613c359150863d8811613c3b575b613c2d8183613e25565b8101906146ca565b38613a93565b503d613c23565b606460405162461bcd60e51b815260206004820152601860248201527f546f6b656e2049442053686f756c64206e6f74206265203000000000000000006044820152fd5b606460405162461bcd60e51b815260206004820152601d60248201527f546f6b656e20616464726573732053686f756c64206e6f7420626520300000006044820152fd5b9050346105a157816003193601126105a15760209063ffffffff601c54168152f35b600435906001600160a01b038216820361059857565b602435906001600160a01b038216820361059857565b6024359063ffffffff8216820361059857565b6004359063ffffffff8216820361059857565b604081019081106001600160401b03821117613d5957604052565b634e487b7160e01b600052604160045260246000fd5b60a081019081106001600160401b03821117613d5957604052565b61016081019081106001600160401b03821117613d5957604052565b60c081019081106001600160401b03821117613d5957604052565b606081019081106001600160401b03821117613d5957604052565b608081019081106001600160401b03821117613d5957604052565b60e081019081106001600160401b03821117613d5957604052565b6001600160401b038111613d5957604052565b90601f801991011681019081106001600160401b03821117613d5957604052565b6001600160401b038111613d5957601f01601f191660200190565b9181601f84011215610598578235916001600160401b038311610598576020808501948460051b01011161059857565b6001600160401b038111613d595760051b60200190565b15613eaf57565b608460405162461bcd60e51b815260206004820152602160248201527f706f736974696f6e20616464726573732069736e27742072656769737465726560448201527f64000000000000000000000000000000000000000000000000000000000000006064820152fd5b600154811015613f5357600160005260011b7fb10e2d527612073b26eecdfd717e6a320cf44b4afac2b0732d9fcbe2b7fa0cf60190600090565b634e487b7160e01b600052603260045260246000fd5b90600163ffffffff80931601918211613f7e57565b634e487b7160e01b600052601160045260246000fd5b91909163ffffffff80809416911601918211613f7e57565b63ffffffff809116908114613f7e5760010190565b15613fc857565b606460405162461bcd60e51b815260206004820152600f60248201527f706f736974696f6e20636c6f73656400000000000000000000000000000000006044820152fd5b60201b906bffffffffffffffff0000000067ffffffff00000000831692168203613f7e57565b91908201809211613f7e57565b6001600160401b039182169082160391908211613f7e57565b63ffffffff918260009216825260209160088352604060ff818320541615614361576140a083600052600b6020526001600160401b0360026040600020015460201c16151590565b156142f857828252600c84526001600160401b036140c381838520541615613fc1565b3383526002855281832084845285528183208251906140e182613d3e565b549382851682528287830195851c168552638fdd705b8152601487526001600160a01b0384822054168682526006885284822054848116614237575050845184517fffffffffffffffff000000000000000000000000000000000000000000000000898201923360601b845260c01b166034820152601c815261416381613d3e565b51902080825260058852848220546141f457926080969492827f596ee89944172f283ef762f313344c7e24443c63de4a42fafa46ff56254608b0999795839452600588528442912055600754998a881c169967ffffffff000000006141c78c613fac565b891b169067ffffffff000000001916176007555116925116928151943386528501528301526060820152a2565b60648886519062461bcd60e51b82526004820152601760248201527f7265717565737420616c72656164792070656e64696e670000000000000000006044820152fd5b919998509592859250808096989598511691881c1602848116908103611fee578289526006845284878a2054169081156142e457938793866142e29a9b946006946111d89a999804986142898a6145ba565b90338852601b865288882090885285526142a7888820918254614032565b9055511681855283835285852090876142c483549282841661403f565b16906001600160401b03191617905583525220938454901c1661403f565b565b60248a634e487b7160e01b81526012600452fd5b83608491519062461bcd60e51b82526004820152602260248201527f706f736974696f6e2061646472657373206973206e6f7420726567697374657260448201527f65640000000000000000000000000000000000000000000000000000000000006064820152fd5b83606491519062461bcd60e51b82526004820152601860248201527f6d61726b6574206973206e6f74207265676973746572656400000000000000006044820152fd5b156143ab57565b606460405162461bcd60e51b815260206004820152600f60248201527f5472616e73666572206661696c656400000000000000000000000000000000006044820152fd5b3d1561441a573d9061440082613e46565b9161440e6040519384613e25565b82523d6000602084013e565b606090565b1561442657565b606460405162461bcd60e51b815260206004820152601760248201527f5661756c74206973206e6f7420726567697374657265640000000000000000006044820152fd5b90816020910312610598575180151581036105985790565b1561448957565b606460405162461bcd60e51b815260206004820152601460248201527f4661696c656420746f2073656e642045746865720000000000000000000000006044820152fd5b9060016001600160401b0380931601918211613f7e57565b9190916001600160401b0380809416911601918211613f7e57565b1561450757565b606460405162461bcd60e51b815260206004820152601460248201527f546f6b656e206e6f7420726567697374657265640000000000000000000000006044820152fd5b1561455257565b606460405162461bcd60e51b815260206004820152601460248201527f496e76616c6964207363616c6520666163746f720000000000000000000000006044820152fd5b60ff16604d8111613f7e57600a0a90565b81810292918115918404141715613f7e57565b61460d90638fdd705b8060005260126020526145dd60ff60406000205416614500565b60005260156020526001600160401b0361460660ff60406000205416612b22601282111561454b565b91166145a7565b90565b63ffffffff61460d92168060005260126020526145dd60ff60406000205416614500565b811561463e570490565b634e487b7160e01b600052601260045260246000fd5b6146a29063ffffffff6001600160401b03931680600052601260205261468160ff60406000205416614500565b6000526015602052612b2760ff60406000205416612b22601282111561454b565b1690565b9190811015613f535760051b0190565b356001600160a01b03811681036105985790565b90816020910312610598575160ff811681036105985790565b906001600160a01b03809216916000908382526020906013825260409461471463ffffffff87862054161515614500565b83526016825284832054169182156147fa5784519163313ce56760e01b83528083600481875afa9283156147f05782936147ce575b5080600493948751948580927f50d25bcd0000000000000000000000000000000000000000000000000000000082525afa9586156147c357508195614790575b5050509190565b909180939550813d83116147bc575b6147a98183613e25565b810103126102c557505191388080614789565b503d61479f565b51913d9150823e3d90fd5b600493506147e98291823d8411613c3b57613c2d8183613e25565b9350614749565b86513d84823e3d90fd5b50505090506008906305f5e10090565b8051821015613f535760209160051b010190565b6001600160a01b0380911690811561488b577f9016d09d72d40fdae2fd8ceac6b6234c7706214fd39c1cd1e609a0528c199300805490836001600160a01b03198316179055167f8be0079c531659141344cd1fd0a4f28419497f9722a3daafe3b4186f6b6457e0600080a3565b60246040517f1e4fbdf700000000000000000000000000000000000000000000000000000000815260006004820152fd5b6000638fdd705b815260146020526001600160a01b03604082205416338252601b60205260408220818352602052604082205490811561491b5761491892338152601b6020526040812082825260205260408120553390614cd1565b50565b505050565b6001600160a01b037f9016d09d72d40fdae2fd8ceac6b6234c7706214fd39c1cd1e609a0528c1993005416330361495357565b60246040517f118cdaa7000000000000000000000000000000000000000000000000000000008152336004820152fd5b1561498a57565b606460405162461bcd60e51b815260206004820152601860248201527f546f6b656e20616c7265616479207265676973746572656400000000000000006044820152fd5b7f9b779b17422d0df92223018b32b4d1fa46e071723d6817e2486d003becc55f0060028154146149fe5760029055565b60046040517f3ee5aeb5000000000000000000000000000000000000000000000000000000008152fd5b15614a2f57565b606460405162461bcd60e51b815260206004820152601160248201527f496e76616c696420737461726b204b65790000000000000000000000000000006044820152fd5b9093929193614aa37f08000000000000110000000000000000000000000000000000000000000000018610614a28565b614aae851515614a28565b3415614bd2575050631b0bc2a86000938185526020916012835260408087205460ff16614ada90614500565b818752601584528087205460ff1692614af6601285111561454b565b6001600160401b03614b088195614596565b614b129034614634565b169481895260188152828920848a52815284838a2054169683614b35888a6144e5565b9a84815260188452818120878252845220866001600160401b03199b168b825416179055614b629061400c565b9860195490868083169b8c614b76916144e5565b9b614b80906144cd565b169116176019558251948916855284015282015281606082015242608082015260a07f429602b012976e07ac9b27b6c1bac9791626550f52721f02a2523c88808ec7a091a1614bce916144e5565b9190565b9093614bde8286614d6a565b6000946001600160a01b03168552602090601382526040928387205463ffffffff169081614c0b91614654565b938288526018845280882082895284526001600160401b039283828a2054169682614c36888a6144e5565b9a83815260188852818120868252885220856001600160401b03199b168b825416179055614c639061400c565b9860195490858083169b8c614c77916144e5565b9b614c81906144cd565b16911617601955815194848a1686528501528301528216606082015242608082015260a07f429602b012976e07ac9b27b6c1bac9791626550f52721f02a2523c88808ec7a091a1614bce916144e5565b6001600160a01b03169182600052600f60205260ff6040600020541615614d62578015614d625760405163a9059cbb60e01b81526001600160a01b03929092166004830152602482015290602090829060449082906000905af1908115614d5657600091614d3d575090565b61460d915060203d602011612595576125878183613e25565b6040513d6000823e3d90fd5b505050600190565b60009160646001600160a01b036020931691828552600f8452614d9360ff60408720541661441f565b60405194859384927f23b872dd00000000000000000000000000000000000000000000000000000000845233600485015230602485015260448401525af18015614d56576142e291600091614de857506143a4565b61258f915060203d602011612595576125878183613e25565b601a54811015613f5357601a60005260021b7f057c384a7d1c54f3a1b2e5e67b2617b8224fdfd1ea7234eea573a6ff665ff63e0190600090565b7f0800000000000011000000000000000000000000000000000000000000000001811015614ff6573315614fb2577f8fa6efc3be94b5b348b21fea823fe8d100408cee9b7f90524494500445d8ff6c54600082815260186020908152604080832063ffffffff9485168085529252808320549093906001600160401b031615614fab57835191614eca83613ddc565b33835260208301918683528584019182526060840192428452601a5468010000000000000000811015614f9757806001614f079201601a55614e01565b959095614f8457926003927ffe5eeb45c725aa6c7460c0a9b5891c86aab2691e00ef4e9e24376ec43264561b999795926001600160a01b0360609a989651166001600160a01b03198754161786555160018601556002850191511663ffffffff1982541617905551910155815192835260208301524290820152a1565b602487634e487b7160e01b815280600452fd5b602487634e487b7160e01b81526041600452fd5b5050505050565b606460405162461bcd60e51b815260206004820152601560248201527f6d73672e73656e6465722063616e2774206265203000000000000000000000006044820152fd5b606460405162461bcd60e51b815260206004820152601160248201527f496e76616c696420737461726b206b65790000000000000000000000000000006044820152fd5b7f0800000000000011000000000000000000000000000000000000000000000001821015614ff6573315614fb2576001600160a01b038091166000818152601360205263ffffffff926040938085842054169086845260186020528584208285526020526001600160401b03868520541615615194578551926150bc84613ddc565b33845260208401908882528785019384526060850194428652601a5468010000000000000000811015615180578060016150f99201601a55614e01565b97909761516d57505186546001600160a01b0319169116178555516001850155905160028401805463ffffffff191691909216179055516003909101558151928352602083015242908201527ffe5eeb45c725aa6c7460c0a9b5891c86aab2691e00ef4e9e24376ec43264561b90606090a1565b80634e487b7160e01b6024925280600452fd5b602488634e487b7160e01b81526041600452fd5b50505050505050565b604051906151aa82613d8a565b816101406000918281528260208201528260408201528260608201528260808201528260a08201528260c08201528260e082015282610100820152826101208201520152565b90939293848311610598578411610598578160051b01920390565b90600363ffffffff80931602918216918203613f7e57565b63ffffffff9081166000190191908211613f7e57565b60011b906201fffe61fffe831692168203613f7e57565b90600361ffff80931602918216918203613f7e57565b60021b906203fffc61fffc831692168203613f7e57565b91909161ffff80809416911601918211613f7e57565b91908203918211613f7e57565b60ff7ff0c57e16840df040f15088dc2f81fe391c3923bec73e23a9662efc9c229c6a005460401c16156152cf57565b60046040517fd7e6bcf8000000000000000000000000000000000000000000000000000000008152fd5b6040519061530682613dc1565b60006040838281528260208201520152565b9061532282613e91565b61532f6040519182613e25565b8281528092615340601f1991613e91565b019060005b82811061535157505050565b60209061535c6152f9565b82828501015201615345565b601a8054156149185760005b81548110156154305780615389600192614e01565b508281015460005260206018815260408060002063ffffffff600285015416908160005283526001600160401b03826000205416928315615426576153d18261541d95614610565b946001600160a01b0380915416600052601b825261540d846000209363ffffffff1660005260146020526001600160a01b036040600020541690565b1660005252600020918254614032565b90555b01615374565b5050505050615420565b5050601a546000601a55806154425750565b60027f3fffffffffffffffffffffffffffffffffffffffffffffffffffffffffffffff82168203613f7e57601a6000527f057c384a7d1c54f3a1b2e5e67b2617b8224fdfd1ea7234eea573a6ff665ff63e9160021b8201915b8281106154a757505050565b8060006004925560006001820155600083820155600060038201550161549b565b81156154ec5760008080936001600160a01b038294165af16154e86143ef565b5090565b5050600190565b90615532575080511561550857805190602001fd5b60046040517f1425ea42000000000000000000000000000000000000000000000000000000008152fd5b8151158061557d575b615543575090565b6024906001600160a01b03604051917f9996b315000000000000000000000000000000000000000000000000000000008352166004820152fd5b50803b1561553b56fea26469706673582212209bcd7b2abb56af414793dc84465ba75a61b157b7d58f08b4f1140ee1bb9bb6c064736f6c63430008160033",
  "linkReferences": {},
  "deployedLinkReferences": {}
}